{
    "_format": "hh-sol-artifact-1",
    "contractName": "PendleWrapper",
    "sourceName": "contracts/proxies/PendleWrapper.sol",
    "abi": [
        {
            "inputs": [
                {
                    "components": [
                        {
                            "internalType": "contract IPendleRouter",
                            "name": "pendleRouter",
                            "type": "address"
                        },
                        {
                            "internalType": "contract IUniswapV2Router02",
                            "name": "joeRouter",
                            "type": "address"
                        },
                        {
                            "internalType": "contract IJoeBar",
                            "name": "joeBar",
                            "type": "address"
                        },
                        {
                            "internalType": "contract IWETH",
                            "name": "weth",
                            "type": "address"
                        },
                        {
                            "internalType": "contract IWMEMO",
                            "name": "wMEMO",
                            "type": "address"
                        },
                        {
                            "internalType": "contract ITimeStaking",
                            "name": "timeStaking",
                            "type": "address"
                        },
                        {
                            "internalType": "bytes32",
                            "name": "codeHashJoe",
                            "type": "bytes32"
                        }
                    ],
                    "internalType": "struct ConstructorData",
                    "name": "_data",
                    "type": "tuple"
                }
            ],
            "stateMutability": "nonpayable",
            "type": "constructor"
        },
        {
            "anonymous": false,
            "inputs": [
                {
                    "indexed": true,
                    "internalType": "address",
                    "name": "sender",
                    "type": "address"
                },
                {
                    "indexed": false,
                    "internalType": "address",
                    "name": "token0",
                    "type": "address"
                },
                {
                    "indexed": false,
                    "internalType": "address",
                    "name": "token1",
                    "type": "address"
                },
                {
                    "indexed": false,
                    "internalType": "uint256",
                    "name": "token0Amount",
                    "type": "uint256"
                },
                {
                    "indexed": false,
                    "internalType": "uint256",
                    "name": "token1Amount",
                    "type": "uint256"
                },
                {
                    "indexed": false,
                    "internalType": "uint256",
                    "name": "exactOutLp",
                    "type": "uint256"
                }
            ],
            "name": "AddLiquidityOT",
            "type": "event"
        },
        {
            "anonymous": false,
            "inputs": [
                {
                    "indexed": true,
                    "internalType": "address",
                    "name": "sender",
                    "type": "address"
                },
                {
                    "indexed": false,
                    "internalType": "bytes32",
                    "name": "marketFactoryId",
                    "type": "bytes32"
                },
                {
                    "indexed": false,
                    "internalType": "address",
                    "name": "token0",
                    "type": "address"
                },
                {
                    "indexed": false,
                    "internalType": "address",
                    "name": "token1",
                    "type": "address"
                },
                {
                    "indexed": false,
                    "internalType": "uint256",
                    "name": "token0Amount",
                    "type": "uint256"
                },
                {
                    "indexed": false,
                    "internalType": "uint256",
                    "name": "token1Amount",
                    "type": "uint256"
                },
                {
                    "indexed": false,
                    "internalType": "uint256",
                    "name": "exactOutLp",
                    "type": "uint256"
                }
            ],
            "name": "AddLiquidityYT",
            "type": "event"
        },
        {
            "anonymous": false,
            "inputs": [
                {
                    "indexed": false,
                    "internalType": "bytes32",
                    "name": "forgeId",
                    "type": "bytes32"
                },
                {
                    "indexed": true,
                    "internalType": "address",
                    "name": "underlyingAsset",
                    "type": "address"
                },
                {
                    "indexed": true,
                    "internalType": "uint256",
                    "name": "expiry",
                    "type": "uint256"
                },
                {
                    "indexed": false,
                    "internalType": "uint256",
                    "name": "amountToTokenize",
                    "type": "uint256"
                },
                {
                    "indexed": false,
                    "internalType": "uint256",
                    "name": "amountTokenMinted",
                    "type": "uint256"
                },
                {
                    "indexed": true,
                    "internalType": "address",
                    "name": "user",
                    "type": "address"
                }
            ],
            "name": "MintYieldTokens",
            "type": "event"
        },
        {
            "anonymous": false,
            "inputs": [
                {
                    "indexed": true,
                    "internalType": "address",
                    "name": "user",
                    "type": "address"
                },
                {
                    "indexed": false,
                    "internalType": "address",
                    "name": "token0",
                    "type": "address"
                },
                {
                    "indexed": false,
                    "internalType": "address",
                    "name": "token1",
                    "type": "address"
                },
                {
                    "indexed": false,
                    "internalType": "address",
                    "name": "lpToken",
                    "type": "address"
                },
                {
                    "indexed": false,
                    "internalType": "uint256",
                    "name": "amountIn0",
                    "type": "uint256"
                },
                {
                    "indexed": false,
                    "internalType": "uint256",
                    "name": "amountIn1",
                    "type": "uint256"
                },
                {
                    "indexed": false,
                    "internalType": "uint256",
                    "name": "lpOut",
                    "type": "uint256"
                }
            ],
            "name": "RawTokenToYTokenDouble",
            "type": "event"
        },
        {
            "anonymous": false,
            "inputs": [
                {
                    "indexed": true,
                    "internalType": "address",
                    "name": "user",
                    "type": "address"
                },
                {
                    "indexed": false,
                    "internalType": "address",
                    "name": "rawAsset",
                    "type": "address"
                },
                {
                    "indexed": false,
                    "internalType": "address",
                    "name": "yieldBearingToken",
                    "type": "address"
                },
                {
                    "indexed": false,
                    "internalType": "uint256",
                    "name": "amountIn",
                    "type": "uint256"
                },
                {
                    "indexed": false,
                    "internalType": "uint256",
                    "name": "amountOut",
                    "type": "uint256"
                }
            ],
            "name": "RawTokenToYTokenSingle",
            "type": "event"
        },
        {
            "anonymous": false,
            "inputs": [
                {
                    "indexed": false,
                    "internalType": "address",
                    "name": "user",
                    "type": "address"
                },
                {
                    "indexed": false,
                    "internalType": "address",
                    "name": "inToken",
                    "type": "address"
                },
                {
                    "indexed": false,
                    "internalType": "address",
                    "name": "outToken",
                    "type": "address"
                },
                {
                    "indexed": false,
                    "internalType": "uint256",
                    "name": "inAmount",
                    "type": "uint256"
                },
                {
                    "indexed": false,
                    "internalType": "uint256",
                    "name": "outAmount",
                    "type": "uint256"
                }
            ],
            "name": "SwapEventYT",
            "type": "event"
        },
        {
            "inputs": [],
            "name": "ETH_ADDRESS",
            "outputs": [
                {
                    "internalType": "address",
                    "name": "",
                    "type": "address"
                }
            ],
            "stateMutability": "view",
            "type": "function"
        },
        {
            "inputs": [],
            "name": "MEMO",
            "outputs": [
                {
                    "internalType": "contract IERC20",
                    "name": "",
                    "type": "address"
                }
            ],
            "stateMutability": "view",
            "type": "function"
        },
        {
            "inputs": [],
            "name": "codeHashJoe",
            "outputs": [
                {
                    "internalType": "bytes32",
                    "name": "",
                    "type": "bytes32"
                }
            ],
            "stateMutability": "view",
            "type": "function"
        },
        {
            "inputs": [
                {
                    "components": [
                        {
                            "internalType": "address",
                            "name": "token",
                            "type": "address"
                        },
                        {
                            "internalType": "address",
                            "name": "to",
                            "type": "address"
                        }
                    ],
                    "internalType": "struct Approval[]",
                    "name": "approvals",
                    "type": "tuple[]"
                }
            ],
            "name": "infinityApprove",
            "outputs": [],
            "stateMutability": "nonpayable",
            "type": "function"
        },
        {
            "inputs": [
                {
                    "internalType": "enum Mode",
                    "name": "mode",
                    "type": "uint8"
                },
                {
                    "components": [
                        {
                            "components": [
                                {
                                    "internalType": "uint256",
                                    "name": "amountInMax",
                                    "type": "uint256"
                                },
                                {
                                    "internalType": "uint256",
                                    "name": "amountOut",
                                    "type": "uint256"
                                },
                                {
                                    "internalType": "address[]",
                                    "name": "path",
                                    "type": "address[]"
                                }
                            ],
                            "internalType": "struct DataSwap[]",
                            "name": "swaps",
                            "type": "tuple[]"
                        },
                        {
                            "components": [
                                {
                                    "internalType": "address",
                                    "name": "token",
                                    "type": "address"
                                },
                                {
                                    "internalType": "uint256",
                                    "name": "amount",
                                    "type": "uint256"
                                }
                            ],
                            "internalType": "struct PairTokenAmount[]",
                            "name": "pulls",
                            "type": "tuple[]"
                        },
                        {
                            "internalType": "uint256",
                            "name": "deadline",
                            "type": "uint256"
                        }
                    ],
                    "internalType": "struct DataPull",
                    "name": "dataPull",
                    "type": "tuple"
                },
                {
                    "components": [
                        {
                            "components": [
                                {
                                    "internalType": "address",
                                    "name": "token",
                                    "type": "address"
                                },
                                {
                                    "internalType": "uint256",
                                    "name": "amount",
                                    "type": "uint256"
                                }
                            ],
                            "internalType": "struct DataTknzSingle",
                            "name": "single",
                            "type": "tuple"
                        },
                        {
                            "components": [
                                {
                                    "internalType": "address",
                                    "name": "tokenA",
                                    "type": "address"
                                },
                                {
                                    "internalType": "address",
                                    "name": "tokenB",
                                    "type": "address"
                                },
                                {
                                    "internalType": "uint256",
                                    "name": "amountADesired",
                                    "type": "uint256"
                                },
                                {
                                    "internalType": "uint256",
                                    "name": "amountBDesired",
                                    "type": "uint256"
                                },
                                {
                                    "internalType": "uint256",
                                    "name": "amountAMin",
                                    "type": "uint256"
                                },
                                {
                                    "internalType": "uint256",
                                    "name": "amountBMin",
                                    "type": "uint256"
                                },
                                {
                                    "internalType": "uint256",
                                    "name": "deadline",
                                    "type": "uint256"
                                }
                            ],
                            "internalType": "struct DataAddLiqJoe",
                            "name": "double",
                            "type": "tuple"
                        },
                        {
                            "internalType": "address",
                            "name": "forge",
                            "type": "address"
                        },
                        {
                            "internalType": "uint256",
                            "name": "expiryYT",
                            "type": "uint256"
                        }
                    ],
                    "internalType": "struct DataTknz",
                    "name": "dataTknz",
                    "type": "tuple"
                },
                {
                    "components": [
                        {
                            "internalType": "address",
                            "name": "baseToken",
                            "type": "address"
                        },
                        {
                            "internalType": "uint256",
                            "name": "amountTokenDesired",
                            "type": "uint256"
                        },
                        {
                            "internalType": "uint256",
                            "name": "amountTokenMin",
                            "type": "uint256"
                        },
                        {
                            "internalType": "uint256",
                            "name": "deadline",
                            "type": "uint256"
                        },
                        {
                            "internalType": "address",
                            "name": "liqMiningAddr",
                            "type": "address"
                        }
                    ],
                    "internalType": "struct DataAddLiqOT",
                    "name": "dataAddOT",
                    "type": "tuple"
                }
            ],
            "name": "insAddDualLiqForOT",
            "outputs": [
                {
                    "components": [
                        {
                            "internalType": "address",
                            "name": "OT",
                            "type": "address"
                        },
                        {
                            "internalType": "address",
                            "name": "YT",
                            "type": "address"
                        },
                        {
                            "internalType": "uint256",
                            "name": "amountYO",
                            "type": "uint256"
                        }
                    ],
                    "internalType": "struct DataYO",
                    "name": "dataYO",
                    "type": "tuple"
                },
                {
                    "internalType": "uint256",
                    "name": "lpOutOT",
                    "type": "uint256"
                },
                {
                    "internalType": "uint256",
                    "name": "amountBaseTokenUsedOT",
                    "type": "uint256"
                }
            ],
            "stateMutability": "payable",
            "type": "function"
        },
        {
            "inputs": [
                {
                    "internalType": "enum Mode",
                    "name": "mode",
                    "type": "uint8"
                },
                {
                    "components": [
                        {
                            "components": [
                                {
                                    "internalType": "uint256",
                                    "name": "amountInMax",
                                    "type": "uint256"
                                },
                                {
                                    "internalType": "uint256",
                                    "name": "amountOut",
                                    "type": "uint256"
                                },
                                {
                                    "internalType": "address[]",
                                    "name": "path",
                                    "type": "address[]"
                                }
                            ],
                            "internalType": "struct DataSwap[]",
                            "name": "swaps",
                            "type": "tuple[]"
                        },
                        {
                            "components": [
                                {
                                    "internalType": "address",
                                    "name": "token",
                                    "type": "address"
                                },
                                {
                                    "internalType": "uint256",
                                    "name": "amount",
                                    "type": "uint256"
                                }
                            ],
                            "internalType": "struct PairTokenAmount[]",
                            "name": "pulls",
                            "type": "tuple[]"
                        },
                        {
                            "internalType": "uint256",
                            "name": "deadline",
                            "type": "uint256"
                        }
                    ],
                    "internalType": "struct DataPull",
                    "name": "dataPull",
                    "type": "tuple"
                },
                {
                    "components": [
                        {
                            "components": [
                                {
                                    "internalType": "address",
                                    "name": "token",
                                    "type": "address"
                                },
                                {
                                    "internalType": "uint256",
                                    "name": "amount",
                                    "type": "uint256"
                                }
                            ],
                            "internalType": "struct DataTknzSingle",
                            "name": "single",
                            "type": "tuple"
                        },
                        {
                            "components": [
                                {
                                    "internalType": "address",
                                    "name": "tokenA",
                                    "type": "address"
                                },
                                {
                                    "internalType": "address",
                                    "name": "tokenB",
                                    "type": "address"
                                },
                                {
                                    "internalType": "uint256",
                                    "name": "amountADesired",
                                    "type": "uint256"
                                },
                                {
                                    "internalType": "uint256",
                                    "name": "amountBDesired",
                                    "type": "uint256"
                                },
                                {
                                    "internalType": "uint256",
                                    "name": "amountAMin",
                                    "type": "uint256"
                                },
                                {
                                    "internalType": "uint256",
                                    "name": "amountBMin",
                                    "type": "uint256"
                                },
                                {
                                    "internalType": "uint256",
                                    "name": "deadline",
                                    "type": "uint256"
                                }
                            ],
                            "internalType": "struct DataAddLiqJoe",
                            "name": "double",
                            "type": "tuple"
                        },
                        {
                            "internalType": "address",
                            "name": "forge",
                            "type": "address"
                        },
                        {
                            "internalType": "uint256",
                            "name": "expiryYT",
                            "type": "uint256"
                        }
                    ],
                    "internalType": "struct DataTknz",
                    "name": "dataTknz",
                    "type": "tuple"
                },
                {
                    "components": [
                        {
                            "internalType": "address",
                            "name": "baseToken",
                            "type": "address"
                        },
                        {
                            "internalType": "uint256",
                            "name": "amountTokenDesired",
                            "type": "uint256"
                        },
                        {
                            "internalType": "uint256",
                            "name": "amountTokenMin",
                            "type": "uint256"
                        },
                        {
                            "internalType": "uint256",
                            "name": "deadline",
                            "type": "uint256"
                        },
                        {
                            "internalType": "address",
                            "name": "liqMiningAddr",
                            "type": "address"
                        }
                    ],
                    "internalType": "struct DataAddLiqOT",
                    "name": "dataAddOT",
                    "type": "tuple"
                },
                {
                    "components": [
                        {
                            "internalType": "address",
                            "name": "baseToken",
                            "type": "address"
                        },
                        {
                            "internalType": "uint256",
                            "name": "amountTokenDesired",
                            "type": "uint256"
                        },
                        {
                            "internalType": "uint256",
                            "name": "amountTokenMin",
                            "type": "uint256"
                        },
                        {
                            "internalType": "bytes32",
                            "name": "marketFactoryId",
                            "type": "bytes32"
                        },
                        {
                            "internalType": "address",
                            "name": "liqMiningAddr",
                            "type": "address"
                        }
                    ],
                    "internalType": "struct DataAddLiqYT",
                    "name": "dataAddYT",
                    "type": "tuple"
                }
            ],
            "name": "insAddDualLiqForOTandYT",
            "outputs": [
                {
                    "components": [
                        {
                            "internalType": "address",
                            "name": "OT",
                            "type": "address"
                        },
                        {
                            "internalType": "address",
                            "name": "YT",
                            "type": "address"
                        },
                        {
                            "internalType": "uint256",
                            "name": "amountYO",
                            "type": "uint256"
                        }
                    ],
                    "internalType": "struct DataYO",
                    "name": "dataYO",
                    "type": "tuple"
                },
                {
                    "internalType": "uint256",
                    "name": "lpOutOT",
                    "type": "uint256"
                },
                {
                    "internalType": "uint256",
                    "name": "amountBaseTokenUsedOT",
                    "type": "uint256"
                },
                {
                    "internalType": "uint256",
                    "name": "lpOutYT",
                    "type": "uint256"
                },
                {
                    "internalType": "uint256",
                    "name": "amountBaseTokenUsedYT",
                    "type": "uint256"
                }
            ],
            "stateMutability": "payable",
            "type": "function"
        },
        {
            "inputs": [
                {
                    "internalType": "enum Mode",
                    "name": "mode",
                    "type": "uint8"
                },
                {
                    "components": [
                        {
                            "components": [
                                {
                                    "internalType": "uint256",
                                    "name": "amountInMax",
                                    "type": "uint256"
                                },
                                {
                                    "internalType": "uint256",
                                    "name": "amountOut",
                                    "type": "uint256"
                                },
                                {
                                    "internalType": "address[]",
                                    "name": "path",
                                    "type": "address[]"
                                }
                            ],
                            "internalType": "struct DataSwap[]",
                            "name": "swaps",
                            "type": "tuple[]"
                        },
                        {
                            "components": [
                                {
                                    "internalType": "address",
                                    "name": "token",
                                    "type": "address"
                                },
                                {
                                    "internalType": "uint256",
                                    "name": "amount",
                                    "type": "uint256"
                                }
                            ],
                            "internalType": "struct PairTokenAmount[]",
                            "name": "pulls",
                            "type": "tuple[]"
                        },
                        {
                            "internalType": "uint256",
                            "name": "deadline",
                            "type": "uint256"
                        }
                    ],
                    "internalType": "struct DataPull",
                    "name": "dataPull",
                    "type": "tuple"
                },
                {
                    "components": [
                        {
                            "components": [
                                {
                                    "internalType": "address",
                                    "name": "token",
                                    "type": "address"
                                },
                                {
                                    "internalType": "uint256",
                                    "name": "amount",
                                    "type": "uint256"
                                }
                            ],
                            "internalType": "struct DataTknzSingle",
                            "name": "single",
                            "type": "tuple"
                        },
                        {
                            "components": [
                                {
                                    "internalType": "address",
                                    "name": "tokenA",
                                    "type": "address"
                                },
                                {
                                    "internalType": "address",
                                    "name": "tokenB",
                                    "type": "address"
                                },
                                {
                                    "internalType": "uint256",
                                    "name": "amountADesired",
                                    "type": "uint256"
                                },
                                {
                                    "internalType": "uint256",
                                    "name": "amountBDesired",
                                    "type": "uint256"
                                },
                                {
                                    "internalType": "uint256",
                                    "name": "amountAMin",
                                    "type": "uint256"
                                },
                                {
                                    "internalType": "uint256",
                                    "name": "amountBMin",
                                    "type": "uint256"
                                },
                                {
                                    "internalType": "uint256",
                                    "name": "deadline",
                                    "type": "uint256"
                                }
                            ],
                            "internalType": "struct DataAddLiqJoe",
                            "name": "double",
                            "type": "tuple"
                        },
                        {
                            "internalType": "address",
                            "name": "forge",
                            "type": "address"
                        },
                        {
                            "internalType": "uint256",
                            "name": "expiryYT",
                            "type": "uint256"
                        }
                    ],
                    "internalType": "struct DataTknz",
                    "name": "dataTknz",
                    "type": "tuple"
                },
                {
                    "components": [
                        {
                            "internalType": "address",
                            "name": "baseToken",
                            "type": "address"
                        },
                        {
                            "internalType": "uint256",
                            "name": "amountTokenDesired",
                            "type": "uint256"
                        },
                        {
                            "internalType": "uint256",
                            "name": "amountTokenMin",
                            "type": "uint256"
                        },
                        {
                            "internalType": "bytes32",
                            "name": "marketFactoryId",
                            "type": "bytes32"
                        },
                        {
                            "internalType": "address",
                            "name": "liqMiningAddr",
                            "type": "address"
                        }
                    ],
                    "internalType": "struct DataAddLiqYT",
                    "name": "dataAddYT",
                    "type": "tuple"
                }
            ],
            "name": "insAddDualLiqForYT",
            "outputs": [
                {
                    "components": [
                        {
                            "internalType": "address",
                            "name": "OT",
                            "type": "address"
                        },
                        {
                            "internalType": "address",
                            "name": "YT",
                            "type": "address"
                        },
                        {
                            "internalType": "uint256",
                            "name": "amountYO",
                            "type": "uint256"
                        }
                    ],
                    "internalType": "struct DataYO",
                    "name": "dataYO",
                    "type": "tuple"
                },
                {
                    "internalType": "uint256",
                    "name": "lpOut",
                    "type": "uint256"
                },
                {
                    "internalType": "uint256",
                    "name": "amountBaseTokenUsed",
                    "type": "uint256"
                }
            ],
            "stateMutability": "payable",
            "type": "function"
        },
        {
            "inputs": [
                {
                    "internalType": "enum Mode",
                    "name": "mode",
                    "type": "uint8"
                },
                {
                    "components": [
                        {
                            "components": [
                                {
                                    "internalType": "uint256",
                                    "name": "amountInMax",
                                    "type": "uint256"
                                },
                                {
                                    "internalType": "uint256",
                                    "name": "amountOut",
                                    "type": "uint256"
                                },
                                {
                                    "internalType": "address[]",
                                    "name": "path",
                                    "type": "address[]"
                                }
                            ],
                            "internalType": "struct DataSwap[]",
                            "name": "swaps",
                            "type": "tuple[]"
                        },
                        {
                            "components": [
                                {
                                    "internalType": "address",
                                    "name": "token",
                                    "type": "address"
                                },
                                {
                                    "internalType": "uint256",
                                    "name": "amount",
                                    "type": "uint256"
                                }
                            ],
                            "internalType": "struct PairTokenAmount[]",
                            "name": "pulls",
                            "type": "tuple[]"
                        },
                        {
                            "internalType": "uint256",
                            "name": "deadline",
                            "type": "uint256"
                        }
                    ],
                    "internalType": "struct DataPull",
                    "name": "dataPull",
                    "type": "tuple"
                },
                {
                    "components": [
                        {
                            "components": [
                                {
                                    "internalType": "address",
                                    "name": "token",
                                    "type": "address"
                                },
                                {
                                    "internalType": "uint256",
                                    "name": "amount",
                                    "type": "uint256"
                                }
                            ],
                            "internalType": "struct DataTknzSingle",
                            "name": "single",
                            "type": "tuple"
                        },
                        {
                            "components": [
                                {
                                    "internalType": "address",
                                    "name": "tokenA",
                                    "type": "address"
                                },
                                {
                                    "internalType": "address",
                                    "name": "tokenB",
                                    "type": "address"
                                },
                                {
                                    "internalType": "uint256",
                                    "name": "amountADesired",
                                    "type": "uint256"
                                },
                                {
                                    "internalType": "uint256",
                                    "name": "amountBDesired",
                                    "type": "uint256"
                                },
                                {
                                    "internalType": "uint256",
                                    "name": "amountAMin",
                                    "type": "uint256"
                                },
                                {
                                    "internalType": "uint256",
                                    "name": "amountBMin",
                                    "type": "uint256"
                                },
                                {
                                    "internalType": "uint256",
                                    "name": "deadline",
                                    "type": "uint256"
                                }
                            ],
                            "internalType": "struct DataAddLiqJoe",
                            "name": "double",
                            "type": "tuple"
                        },
                        {
                            "internalType": "address",
                            "name": "forge",
                            "type": "address"
                        },
                        {
                            "internalType": "uint256",
                            "name": "expiryYT",
                            "type": "uint256"
                        }
                    ],
                    "internalType": "struct DataTknz",
                    "name": "dataTknz",
                    "type": "tuple"
                },
                {
                    "internalType": "bytes32",
                    "name": "marketFactoryId",
                    "type": "bytes32"
                },
                {
                    "internalType": "address",
                    "name": "baseToken",
                    "type": "address"
                },
                {
                    "internalType": "uint256",
                    "name": "minOutLp",
                    "type": "uint256"
                },
                {
                    "internalType": "address",
                    "name": "liqMiningAddr",
                    "type": "address"
                }
            ],
            "name": "insAddSingleLiq",
            "outputs": [
                {
                    "components": [
                        {
                            "internalType": "address",
                            "name": "OT",
                            "type": "address"
                        },
                        {
                            "internalType": "address",
                            "name": "YT",
                            "type": "address"
                        },
                        {
                            "internalType": "uint256",
                            "name": "amountYO",
                            "type": "uint256"
                        }
                    ],
                    "internalType": "struct DataYO",
                    "name": "dataYO",
                    "type": "tuple"
                },
                {
                    "internalType": "uint256",
                    "name": "lpOut",
                    "type": "uint256"
                }
            ],
            "stateMutability": "payable",
            "type": "function"
        },
        {
            "inputs": [
                {
                    "internalType": "enum Mode",
                    "name": "mode",
                    "type": "uint8"
                },
                {
                    "components": [
                        {
                            "components": [
                                {
                                    "internalType": "uint256",
                                    "name": "amountInMax",
                                    "type": "uint256"
                                },
                                {
                                    "internalType": "uint256",
                                    "name": "amountOut",
                                    "type": "uint256"
                                },
                                {
                                    "internalType": "address[]",
                                    "name": "path",
                                    "type": "address[]"
                                }
                            ],
                            "internalType": "struct DataSwap[]",
                            "name": "swaps",
                            "type": "tuple[]"
                        },
                        {
                            "components": [
                                {
                                    "internalType": "address",
                                    "name": "token",
                                    "type": "address"
                                },
                                {
                                    "internalType": "uint256",
                                    "name": "amount",
                                    "type": "uint256"
                                }
                            ],
                            "internalType": "struct PairTokenAmount[]",
                            "name": "pulls",
                            "type": "tuple[]"
                        },
                        {
                            "internalType": "uint256",
                            "name": "deadline",
                            "type": "uint256"
                        }
                    ],
                    "internalType": "struct DataPull",
                    "name": "dataPull",
                    "type": "tuple"
                },
                {
                    "components": [
                        {
                            "components": [
                                {
                                    "internalType": "address",
                                    "name": "token",
                                    "type": "address"
                                },
                                {
                                    "internalType": "uint256",
                                    "name": "amount",
                                    "type": "uint256"
                                }
                            ],
                            "internalType": "struct DataTknzSingle",
                            "name": "single",
                            "type": "tuple"
                        },
                        {
                            "components": [
                                {
                                    "internalType": "address",
                                    "name": "tokenA",
                                    "type": "address"
                                },
                                {
                                    "internalType": "address",
                                    "name": "tokenB",
                                    "type": "address"
                                },
                                {
                                    "internalType": "uint256",
                                    "name": "amountADesired",
                                    "type": "uint256"
                                },
                                {
                                    "internalType": "uint256",
                                    "name": "amountBDesired",
                                    "type": "uint256"
                                },
                                {
                                    "internalType": "uint256",
                                    "name": "amountAMin",
                                    "type": "uint256"
                                },
                                {
                                    "internalType": "uint256",
                                    "name": "amountBMin",
                                    "type": "uint256"
                                },
                                {
                                    "internalType": "uint256",
                                    "name": "deadline",
                                    "type": "uint256"
                                }
                            ],
                            "internalType": "struct DataAddLiqJoe",
                            "name": "double",
                            "type": "tuple"
                        },
                        {
                            "internalType": "address",
                            "name": "forge",
                            "type": "address"
                        },
                        {
                            "internalType": "uint256",
                            "name": "expiryYT",
                            "type": "uint256"
                        }
                    ],
                    "internalType": "struct DataTknz",
                    "name": "dataTknz",
                    "type": "tuple"
                },
                {
                    "internalType": "bytes32",
                    "name": "marketFactoryId",
                    "type": "bytes32"
                },
                {
                    "internalType": "address",
                    "name": "baseToken",
                    "type": "address"
                },
                {
                    "internalType": "uint256",
                    "name": "minOutBaseTokenAmount",
                    "type": "uint256"
                }
            ],
            "name": "insRealizeFutureYield",
            "outputs": [
                {
                    "components": [
                        {
                            "internalType": "address",
                            "name": "OT",
                            "type": "address"
                        },
                        {
                            "internalType": "address",
                            "name": "YT",
                            "type": "address"
                        },
                        {
                            "internalType": "uint256",
                            "name": "amountYO",
                            "type": "uint256"
                        }
                    ],
                    "internalType": "struct DataYO",
                    "name": "dataYO",
                    "type": "tuple"
                },
                {
                    "internalType": "uint256",
                    "name": "amountBaseTokenOut",
                    "type": "uint256"
                }
            ],
            "stateMutability": "payable",
            "type": "function"
        },
        {
            "inputs": [
                {
                    "components": [
                        {
                            "components": [
                                {
                                    "internalType": "uint256",
                                    "name": "amountInMax",
                                    "type": "uint256"
                                },
                                {
                                    "internalType": "uint256",
                                    "name": "amountOut",
                                    "type": "uint256"
                                },
                                {
                                    "internalType": "address[]",
                                    "name": "path",
                                    "type": "address[]"
                                }
                            ],
                            "internalType": "struct DataSwap[]",
                            "name": "swaps",
                            "type": "tuple[]"
                        },
                        {
                            "components": [
                                {
                                    "internalType": "address",
                                    "name": "token",
                                    "type": "address"
                                },
                                {
                                    "internalType": "uint256",
                                    "name": "amount",
                                    "type": "uint256"
                                }
                            ],
                            "internalType": "struct PairTokenAmount[]",
                            "name": "pulls",
                            "type": "tuple[]"
                        },
                        {
                            "internalType": "uint256",
                            "name": "deadline",
                            "type": "uint256"
                        }
                    ],
                    "internalType": "struct DataPull",
                    "name": "dataPull",
                    "type": "tuple"
                }
            ],
            "name": "insSwap",
            "outputs": [],
            "stateMutability": "payable",
            "type": "function"
        },
        {
            "inputs": [
                {
                    "internalType": "enum Mode",
                    "name": "mode",
                    "type": "uint8"
                },
                {
                    "components": [
                        {
                            "components": [
                                {
                                    "internalType": "uint256",
                                    "name": "amountInMax",
                                    "type": "uint256"
                                },
                                {
                                    "internalType": "uint256",
                                    "name": "amountOut",
                                    "type": "uint256"
                                },
                                {
                                    "internalType": "address[]",
                                    "name": "path",
                                    "type": "address[]"
                                }
                            ],
                            "internalType": "struct DataSwap[]",
                            "name": "swaps",
                            "type": "tuple[]"
                        },
                        {
                            "components": [
                                {
                                    "internalType": "address",
                                    "name": "token",
                                    "type": "address"
                                },
                                {
                                    "internalType": "uint256",
                                    "name": "amount",
                                    "type": "uint256"
                                }
                            ],
                            "internalType": "struct PairTokenAmount[]",
                            "name": "pulls",
                            "type": "tuple[]"
                        },
                        {
                            "internalType": "uint256",
                            "name": "deadline",
                            "type": "uint256"
                        }
                    ],
                    "internalType": "struct DataPull",
                    "name": "dataPull",
                    "type": "tuple"
                },
                {
                    "components": [
                        {
                            "components": [
                                {
                                    "internalType": "address",
                                    "name": "token",
                                    "type": "address"
                                },
                                {
                                    "internalType": "uint256",
                                    "name": "amount",
                                    "type": "uint256"
                                }
                            ],
                            "internalType": "struct DataTknzSingle",
                            "name": "single",
                            "type": "tuple"
                        },
                        {
                            "components": [
                                {
                                    "internalType": "address",
                                    "name": "tokenA",
                                    "type": "address"
                                },
                                {
                                    "internalType": "address",
                                    "name": "tokenB",
                                    "type": "address"
                                },
                                {
                                    "internalType": "uint256",
                                    "name": "amountADesired",
                                    "type": "uint256"
                                },
                                {
                                    "internalType": "uint256",
                                    "name": "amountBDesired",
                                    "type": "uint256"
                                },
                                {
                                    "internalType": "uint256",
                                    "name": "amountAMin",
                                    "type": "uint256"
                                },
                                {
                                    "internalType": "uint256",
                                    "name": "amountBMin",
                                    "type": "uint256"
                                },
                                {
                                    "internalType": "uint256",
                                    "name": "deadline",
                                    "type": "uint256"
                                }
                            ],
                            "internalType": "struct DataAddLiqJoe",
                            "name": "double",
                            "type": "tuple"
                        },
                        {
                            "internalType": "address",
                            "name": "forge",
                            "type": "address"
                        },
                        {
                            "internalType": "uint256",
                            "name": "expiryYT",
                            "type": "uint256"
                        }
                    ],
                    "internalType": "struct DataTknz",
                    "name": "dataTknz",
                    "type": "tuple"
                }
            ],
            "name": "insTokenize",
            "outputs": [
                {
                    "components": [
                        {
                            "internalType": "address",
                            "name": "OT",
                            "type": "address"
                        },
                        {
                            "internalType": "address",
                            "name": "YT",
                            "type": "address"
                        },
                        {
                            "internalType": "uint256",
                            "name": "amountYO",
                            "type": "uint256"
                        }
                    ],
                    "internalType": "struct DataYO",
                    "name": "dataYO",
                    "type": "tuple"
                }
            ],
            "stateMutability": "payable",
            "type": "function"
        },
        {
            "inputs": [],
            "name": "joeBar",
            "outputs": [
                {
                    "internalType": "contract IJoeBar",
                    "name": "",
                    "type": "address"
                }
            ],
            "stateMutability": "view",
            "type": "function"
        },
        {
            "inputs": [],
            "name": "joeRouter",
            "outputs": [
                {
                    "internalType": "contract IUniswapV2Router02",
                    "name": "",
                    "type": "address"
                }
            ],
            "stateMutability": "view",
            "type": "function"
        },
        {
            "inputs": [],
            "name": "pendleData",
            "outputs": [
                {
                    "internalType": "contract IPendleData",
                    "name": "",
                    "type": "address"
                }
            ],
            "stateMutability": "view",
            "type": "function"
        },
        {
            "inputs": [],
            "name": "pendleRouter",
            "outputs": [
                {
                    "internalType": "contract IPendleRouter",
                    "name": "",
                    "type": "address"
                }
            ],
            "stateMutability": "view",
            "type": "function"
        },
        {
            "inputs": [],
            "name": "timeStaking",
            "outputs": [
                {
                    "internalType": "contract ITimeStaking",
                    "name": "",
                    "type": "address"
                }
            ],
            "stateMutability": "view",
            "type": "function"
        },
        {
            "inputs": [],
            "name": "wMEMO",
            "outputs": [
                {
                    "internalType": "contract IWMEMO",
                    "name": "",
                    "type": "address"
                }
            ],
            "stateMutability": "view",
            "type": "function"
        },
        {
            "inputs": [],
            "name": "weth",
            "outputs": [
                {
                    "internalType": "contract IWETH",
                    "name": "",
                    "type": "address"
                }
            ],
            "stateMutability": "view",
            "type": "function"
        },
        {
            "stateMutability": "payable",
            "type": "receive"
        }
    ],
    "bytecode": "0x6101a06040523480156200001257600080fd5b50604051620040bc380380620040bc833981016040819052620000359162000201565b600160008190555080600001516001600160a01b0316610160816001600160a01b031660601b8152505080600001516001600160a01b03166373d4a13a6040518163ffffffff1660e01b815260040160206040518083038186803b1580156200009d57600080fd5b505afa158015620000b2573d6000803e3d6000fd5b505050506040513d601f19601f82011682018060405250810190620000d89190620001db565b6001600160601b0319606091821b811661018052602080840151831b821660a052604080850151841b831660c05284840151841b831660e05260808501805190941b90921661010052915181516363f5778f60e11b815291516001600160a01b03919091169263c7eaef1e9260048082019391829003018186803b1580156200016057600080fd5b505afa15801562000175573d6000803e3d6000fd5b505050506040513d601f19601f820116820180604052508101906200019b9190620001db565b6001600160601b0319606091821b81166101205260a083015190911b166101405260c00151608052620002cc565b8051620001d681620002b3565b919050565b600060208284031215620001ed578081fd5b8151620001fa81620002b3565b9392505050565b600060e0828403121562000213578081fd5b60405160e081016001600160401b03811182821017156200023057fe5b6040526200023e83620001c9565b81526200024e60208401620001c9565b60208201526200026160408401620001c9565b60408201526200027460608401620001c9565b60608201526200028760808401620001c9565b60808201526200029a60a08401620001c9565b60a082015260c083015160c08201528091505092915050565b6001600160a01b0381168114620002c957600080fd5b50565b60805160a05160601c60c05160601c60e05160601c6101005160601c6101205160601c6101405160601c6101605160601c6101805160601c613ce4620003d8600039806102f252806116a652508061033a5280610a405280610b845280610f8f528061113052508061073952806124e652806125ab52806126505250806108ac52806115ac52806124a952806126ec5250806105f852806126ba528061278452806127e352508061040052806109185280610a0952806116ea5280612126528061294052806129755250806103165280612394528061240452806124635250806105d452806108ef528061191752806119e5528061289c52508061071552806129975250613ce46000f3fe60806040526004361061010d5760003560e01c80635af7bfbe116100955780637891b076116100645780637891b0761461027a57806392f2d2331461028f578063a734f06e146102a2578063a9460cc2146102b7578063c7eaef1e146102db57610114565b80635af7bfbe14610203578063678fb5411461021857806372a3cc901461023857806378096d311461025857610114565b80633fc8cef3116100dc5780633fc8cef31461018f5780634c93b6aa146101a4578063522c6a1f146101b957806352b171ad146101db57806359f571e8146101ee57610114565b80630a99b3a1146101195780631ce3525a14610144578063206aeab31461015957806336ce29461461016e57610114565b3661011457005b600080fd5b34801561012557600080fd5b5061012e6102f0565b60405161013b91906135b4565b60405180910390f35b34801561015057600080fd5b5061012e610314565b34801561016557600080fd5b5061012e610338565b61018161017c3660046132ad565b61035c565b60405161013b929190613981565b34801561019b57600080fd5b5061012e6103fe565b6101b76101b2366004613457565b610422565b005b6101cc6101c7366004613349565b610491565b60405161013b9392919061399c565b6101816101e9366004613226565b610532565b3480156101fa57600080fd5b5061012e6105d2565b34801561020f57600080fd5b5061012e6105f6565b34801561022457600080fd5b506101b761023336600461308e565b61061a565b61024b6102463660046131c9565b61068a565b60405161013b9190613973565b34801561026457600080fd5b5061026d610713565b60405161013b919061374d565b34801561028657600080fd5b5061012e610737565b6101cc61029d366004613349565b61075b565b3480156102ae57600080fd5b5061012e6107dc565b6102ca6102c53660046133b9565b6107f4565b60405161013b9594939291906139bb565b3480156102e757600080fd5b5061012e6108aa565b7f000000000000000000000000000000000000000000000000000000000000000081565b7f000000000000000000000000000000000000000000000000000000000000000081565b7f000000000000000000000000000000000000000000000000000000000000000081565b610364612ea8565b6000600260005414156103ac576040805162461bcd60e51b815260206004820152601f6024820152600080516020613c40833981519152604482015290519081900360640190fd5b60026000556103b9612ec8565b6103c3818a6108ce565b6103cf8a82308b610940565b92506103df818489898989610b5a565b91506103ea81610d18565b506001600055909890975095505050505050565b7f000000000000000000000000000000000000000000000000000000000000000081565b60026000541415610468576040805162461bcd60e51b815260206004820152601f6024820152600080516020613c40833981519152604482015290519081900360640190fd5b6002600055610475612ec8565b61047f81836108ce565b61048881610d18565b50506001600055565b610499612ea8565b600080600260005414156104e2576040805162461bcd60e51b815260206004820152601f6024820152600080516020613c40833981519152604482015290519081900360640190fd5b60026000556104ef612ec8565b6104f981886108ce565b61050588823089610940565b9350610512818587610e3f565b9350915061051f81610d18565b5060016000819055509450945094915050565b61053a612ea8565b600060026000541415610582576040805162461bcd60e51b815260206004820152601f6024820152600080516020613c40833981519152604482015290519081900360640190fd5b600260005561058f612ec8565b61059981896108ce565b6105a58982308a610940565b92506105b48382888888610f6b565b91506105bf81610d18565b5060016000559097909650945050505050565b7f000000000000000000000000000000000000000000000000000000000000000081565b7f000000000000000000000000000000000000000000000000000000000000000081565b60005b818110156106855761067d83838381811061063457fe5b905060400201602001602081019061064c9190613014565b84848481811061065857fe5b61066e9260206040909202019081019150613014565b6001600160a01b031690611077565b60010161061d565b505050565b610692612ea8565b600260005414156106d8576040805162461bcd60e51b815260206004820152601f6024820152600080516020613c40833981519152604482015290519081900360640190fd5b60026000556106e5612ec8565b6106ef81856108ce565b6106fb85823386610940565b915061070681610d18565b5060016000559392505050565b7f000000000000000000000000000000000000000000000000000000000000000081565b7f000000000000000000000000000000000000000000000000000000000000000081565b610763612ea8565b600080600260005414156107ac576040805162461bcd60e51b815260206004820152601f6024820152600080516020613c40833981519152604482015290519081900360640190fd5b60026000556107b9612ec8565b6107c381886108ce565b6107cf88823089610940565b9350610512818587611107565b73eeeeeeeeeeeeeeeeeeeeeeeeeeeeeeeeeeeeeeee81565b6107fc612ea8565b60008060008060026000541415610848576040805162461bcd60e51b815260206004820152601f6024820152600080516020613c40833981519152604482015290519081900360640190fd5b6002600055610855612ec8565b61085f818b6108ce565b61086b8b82308c610940565b955061087881878a610e3f565b95509350610887818789611107565b9350915061089481610d18565b5060016000819055509550955095509550959050565b7f000000000000000000000000000000000000000000000000000000000000000081565b6108d8818361130d565b61093c6108e58280613a73565b6001600160a01b037f000000000000000000000000000000000000000000000000000000000000000016919060408501357f00000000000000000000000000000000000000000000000000000000000000006114a9565b5050565b610948612ea8565b600061095486846114ed565b9050600061096a61014085016101208601613014565b6001600160a01b031663beb9a9736040518163ffffffff1660e01b815260040160206040518083038186803b1580156109a257600080fd5b505afa1580156109b6573d6000803e3d6000fd5b505050506040513d601f19601f820116820180604052508101906109da91906131b1565b905060006109f6886109f136889003880188613489565b611572565b9050610a01816115d8565b15610a2957507f00000000000000000000000000000000000000000000000000000000000000005b604051630bd7389760e41b81526001600160a01b037f0000000000000000000000000000000000000000000000000000000000000000169063bd73897090610a8290859085906101408b01359089908d9060040161381b565b606060405180830381600087803b158015610a9c57600080fd5b505af1158015610ab0573d6000803e3d6000fd5b505050506040513d601f19601f82011682018060405250810190610ad4919061304c565b60408701526001600160a01b039081166020870152168452610af687856115fe565b336001600160a01b0316856101400135826001600160a01b03167f25c3d30ac04323eeab03b77624058f9dba1b9ad77f4b8cde98c6ed1b54b0a2ae85878960400151604051610b4793929190613847565b60405180910390a4505050949350505050565b602085015160408087015190516373095ccb60e11b81526000926001600160a01b038581161515937f00000000000000000000000000000000000000000000000000000000000000009091169263e612b99692610bc2928b928b916001918c90600401613775565b602060405180830381600087803b158015610bdc57600080fd5b505af1158015610bf0573d6000803e3d6000fd5b505050506040513d601f19601f82011682018060405250810190610c1491906131b1565b91508015610ca057610c9b8388602001516001600160a01b031663e184c9be6040518163ffffffff1660e01b815260040160206040518083038186803b158015610c5d57600080fd5b505afa158015610c71573d6000803e3d6000fd5b505050506040513d601f19601f82011682018060405250810190610c9591906131b1565b8461161a565b610cb9565b610cb9610cb287878a602001516116a2565b8990611782565b336001600160a01b03167f7082f656bbe948898eb7290d1bfdc6fc58eb8ea5867dc304dc7cc1831a7fc384878960200151888b60400151600088604051610d05969594939291906137ab565b60405180910390a2509695505050505050565b60005b600c81101561093c5760008282600c8110610d3257fe5b60200201516001600160a01b03161415610d4b5761093c565b610d648282600c8110610d5a57fe5b60200201516115d8565b15610e0357600033610d858484600c8110610d7b57fe5b6020020151611836565b604051610d91906135b1565b60006040518083038185875af1925050503d8060008114610dce576040519150601f19603f3d011682016040523d82523d6000602084013e610dd3565b606091505b5050905080610dfd5760405162461bcd60e51b8152600401610df4906138e7565b60405180910390fd5b50610e37565b610e3733610e168484600c8110610d7b57fe5b8484600c8110610e2257fe5b60200201516001600160a01b031691906118c9565b600101610d1b565b6000808080610e5460a0860160808701613014565b6001600160a01b031614159050600081610e6e5733610e70565b305b9050610eea816040518060e0016040528089600001516001600160a01b03168152602001886000016020810190610ea79190613014565b6001600160a01b031681526020018960400151815260200188602001358152602001896040015181526020018860400135815260200188606001358152506118dd565b95509350508115610f0e57610f0e610f0860a0870160808801613014565b85611acd565b855133907fb89b89aa639e6d1925f87d47cb14154370386b5db972794d6c7d7f94db1edfb790610f416020890189613014565b89604001518789604051610f59959493929190613698565b60405180910390a25050935093915050565b60208501516040808701519051630c8140d560e31b81526000926001600160a01b037f0000000000000000000000000000000000000000000000000000000000000000169263640a06a892610fc99291889188908b90600401613698565b602060405180830381600087803b158015610fe357600080fd5b505af1158015610ff7573d6000803e3d6000fd5b505050506040513d601f19601f8201168201806040525081019061101b91906131b1565b90506110278584611782565b7f3afca6d1a5fd82596782f7dc8b2e23bdd69d22398e73a6c7deb8662e28c023fa338760200151858960400151856040516110669594939291906135c8565b60405180910390a195945050505050565b60408051636eb1769f60e11b81523060048201526001600160a01b03838116602483015291516000199285169163dd62ed3e916044808301926020929190829003018186803b1580156110c957600080fd5b505afa1580156110dd573d6000803e3d6000fd5b505050506040513d60208110156110f357600080fd5b50511161093c5761093c8282600019611b29565b600080808061111c60a0860160808701613014565b6001600160a01b03908116919091141591507f0000000000000000000000000000000000000000000000000000000000000000166374f62c0d61116a6111656020880188613014565b6115d8565b61117557600061117b565b85602001355b602080890151606089013591611193908a018a613014565b6040808c015181516001600160e01b031960e089901b1681526111c79594939260208e01359183918f0135906004016137df565b6060604051808303818588803b1580156111e057600080fd5b505af11580156111f4573d6000803e3d6000fd5b50505050506040513d601f19601f82011682018060405250810190611219919061351a565b909450925050801561127a5761127561123860a0860160808701613014565b86602001516001600160a01b031663e184c9be6040518163ffffffff1660e01b815260040160206040518083038186803b158015610c5d57600080fd5b6112a3565b6112a361129c60608601356112926020880188613014565b88602001516116a2565b8790611782565b60208086015133917f7082f656bbe948898eb7290d1bfdc6fc58eb8ea5867dc304dc7cc1831a7fc384916060880135916112df90890189613014565b89604001518960200135886040516112fc969594939291906137ab565b60405180910390a250935093915050565b6113178183611c31565b6000805b6113286020850185613ab9565b90508110156113ab5760006113406020860186613ab9565b8381811061134a57fe5b90506040020180360381019061136091906134ff565b905061136f81600001516115d8565b15611382578060200151830192506113a2565b602081015181516113a2916001600160a01b039091169033903090611d18565b5060010161131b565b5060005b6113b98480613a73565b905081101561146c5760006113ce8580613a73565b838181106113d857fe5b90506020028101906113ea9190613aff565b6113f390613b5e565b9050611416816040015160008151811061140957fe5b60200260200101516115d8565b156114275780519290920191611463565b61146333308360000151846040015160008151811061144257fe5b60200260200101516001600160a01b0316611d18909392919063ffffffff16565b506001016113af565b5061148a73eeeeeeeeeeeeeeeeeeeeeeeeeeeeeeeeeeeeeeee611836565b8110156106855760405162461bcd60e51b8152600401610df490613910565b60005b838110156114e5576114dd868686848181106114c457fe5b90506020028101906114d69190613aff565b8486611d2d565b6001016114ac565b505050505050565b6000808360038111156114fc57fe5b14156115125761150b826120db565b905061156c565b600283600381111561152057fe5b141561152f5761150b8261237a565b600383600381111561153d57fe5b141561154c5761150b8261249d565b611567306115623685900385016040860161343c565b612810565b925050505b92915050565b6000600183600381111561158257fe5b14156115955761150b8260200151612884565b60038360038111156115a357fe5b14156115d057507f000000000000000000000000000000000000000000000000000000000000000061156c565b505151919050565b6001600160a01b03811673eeeeeeeeeeeeeeeeeeeeeeeeeeeeeeeeeeeeeeee145b919050565b61160c828260000151611782565b61093c828260200151611782565b6040516358e9a81560e01b81526001600160a01b038416906358e9a8159061164a90339086908690600401613615565b602060405180830381600087803b15801561166457600080fd5b505af1158015611678573d6000803e3d6000fd5b505050506040513d601f19601f8201168201806040525081019061169c9190613030565b50505050565b60007f00000000000000000000000000000000000000000000000000000000000000006001600160a01b0316638e7cf76685846116de876115d8565b6116e8578661170a565b7f00000000000000000000000000000000000000000000000000000000000000005b6040518463ffffffff1660e01b815260040161172893929190613756565b60206040518083038186803b15801561174057600080fd5b505afa158015611754573d6000803e3d6000fd5b505050506040513d601f19601f820116820180604052508101906117789190613030565b90505b9392505050565b6001600160a01b0381166117955761093c565b60005b600c81101561181d57816001600160a01b03168382600c81106117b757fe5b60200201516001600160a01b031614806117ea575060008382600c81106117da57fe5b60200201516001600160a01b0316145b1561181557818382600c81106117fc57fe5b6001600160a01b0390921660209290920201525061093c565b600101611798565b5060405162461bcd60e51b8152600401610df49061385d565b6000611841826115d8565b1561184d5750476115f9565b6040516370a0823160e01b81526001600160a01b038316906370a08231906118799030906004016135b4565b60206040518083038186803b15801561189157600080fd5b505afa1580156118a5573d6000803e3d6000fd5b505050506040513d601f19601f8201168201806040525081019061156c91906131b1565b6106856001600160a01b03841683836129c3565b600080600080600090506118f485602001516115d8565b156119055750600161190585612a15565b8451611910906115d8565b156119e3577f00000000000000000000000000000000000000000000000000000000000000006001600160a01b031663f91b3f728660400151876020015188606001518960a001518a608001518c8c60c001516040518863ffffffff1660e01b815260040161198496959493929190613712565b6060604051808303818588803b15801561199d57600080fd5b505af11580156119b1573d6000803e3d6000fd5b50505050506040513d601f19601f820116820180604052508101906119d6919061351a565b9095509093509150611ab3565b7f00000000000000000000000000000000000000000000000000000000000000006001600160a01b031663e8e3370086600001518760200151886040015189606001518a608001518b60a001518d8d60c001516040518963ffffffff1660e01b8152600401611a599897969594939291906136c9565b606060405180830381600087803b158015611a7357600080fd5b505af1158015611a87573d6000803e3d6000fd5b505050506040513d601f19601f82011682018060405250810190611aab919061351a565b919550935091505b8015611ac557919291611ac585612a15565b509250925092565b6040516356e4bb9760e11b81526001600160a01b0383169063adc9772e90611afb90339085906004016135fc565b600060405180830381600087803b158015611b1557600080fd5b505af11580156114e5573d6000803e3d6000fd5b826001600160a01b031663095ea7b38360006040518363ffffffff1660e01b815260040180836001600160a01b0316815260200182815260200192505050602060405180830381600087803b158015611b8157600080fd5b505af1158015611b95573d6000803e3d6000fd5b505050506040513d6020811015611bab57600080fd5b50506040805163095ea7b360e01b81526001600160a01b0384811660048301526024820184905291519185169163095ea7b3916044808201926020929091908290030181600087803b158015611c0057600080fd5b505af1158015611c14573d6000803e3d6000fd5b505050506040513d6020811015611c2a57600080fd5b5050505050565b60005b611c416020830183613ab9565b9050811015611c8857611c8083611c5b6020850185613ab9565b84818110611c6557fe5b611c7b9260206040909202019081019150613014565b611782565b600101611c34565b5060005b611c968280613a73565b9050811015610685576000611cab8380613a73565b83818110611cb557fe5b9050602002810190611cc79190613aff565b611cd090613b5e565b9050611cf4848260400151600081518110611ce757fe5b6020026020010151611782565b60408101518051611d0f9186916000198101908110611ce757fe5b50600101611c8c565b61169c6001600160a01b038516848484612a52565b611d3683613b5e565b60408101515160028110801590611d91575081604001516001820381518110611d5b57fe5b60200260200101516001600160a01b03168260400151600081518110611d7d57fe5b60200260200101516001600160a01b031614155b611dad5760405162461bcd60e51b8152600401610df4906138bc565b8151611dcb5760405162461bcd60e51b8152600401610df490613947565b6020820151611dec5760405162461bcd60e51b8152600401610df490613947565b6000611dfb6040870187613a73565b80806020026020016040519081016040528093929190818152602001838360200280828437600092019190915250929350611e619250611e419150506040880188613a73565b6000818110611e4c57fe5b90506020020160208101906111659190613014565b611e9657611e9687611e766040890189613a73565b6000818110611e8157fe5b905060200201602081019061066e9190613014565b611ea6611e416040880188613a73565b15611f5f578481600081518110611eb957fe5b6001600160a01b03928316602091820292909201810191909152604051638a657e6760e01b815291891691638a657e6791893591611f03918b013590869030908b90600401613a02565b6000604051808303818588803b158015611f1c57600080fd5b505af1158015611f30573d6000803e3d6000fd5b50505050506040513d6000823e601f3d908101601f19168201604052611f5991908101906130fd565b506120d2565b611f8a611f6f6040880188613a73565b6001611f7e60408b018b613a73565b905003818110611e4c57fe5b15612041578481600183510381518110611fa057fe5b6001600160a01b03928316602091820292909201810191909152604051633d2120b560e11b815291891691637a42416a91611feb91908a0135908a3590869030908b90600401613a37565b600060405180830381600087803b15801561200557600080fd5b505af1158015612019573d6000803e3d6000fd5b505050506040513d6000823e601f3d908101601f19168201604052611f5991908101906130fd565b604051634401edf760e11b81526001600160a01b03881690638803dbee9061207a9060208a0135908a3590869030908b90600401613a37565b600060405180830381600087803b15801561209457600080fd5b505af11580156120a8573d6000803e3d6000fd5b505050506040513d6000823e601f3d908101601f191682016040526120d091908101906130fd565b505b50505050505050565b600080806120ec6020850185613014565b915050602083013560006120ff836115d8565b1561220e5761211661014086016101208701613014565b6001600160a01b03166319d515ec7f00000000000000000000000000000000000000000000000000000000000000006040518263ffffffff1660e01b815260040161216191906135b4565b602060405180830381600087803b15801561217b57600080fd5b505af115801561218f573d6000803e3d6000fd5b505050506040513d601f19601f820116820180604052508101906121b39190613030565b9050806001600160a01b0316631249c58b836040518263ffffffff1660e01b81526004016000604051808303818588803b1580156121f057600080fd5b505af1158015612204573d6000803e3d6000fd5b5050505050612320565b61222061014086016101208701613014565b6001600160a01b03166319d515ec846040518263ffffffff1660e01b815260040161224b91906135b4565b602060405180830381600087803b15801561226557600080fd5b505af1158015612279573d6000803e3d6000fd5b505050506040513d601f19601f8201168201806040525081019061229d9190613030565b60405163140e25ad60e31b81529091506001600160a01b0382169063a0712d68906122cc90859060040161374d565b602060405180830381600087803b1580156122e657600080fd5b505af11580156122fa573d6000803e3d6000fd5b505050506040513d601f19601f8201168201806040525081019061231e91906131b1565b505b61232981611836565b9350336001600160a01b03167fdc237c455127799c709a81be1f2628a791d7b1e1e018442fe455c81321b7509a8483858860405161236a949392919061366f565b60405180910390a2505050919050565b604051632967cf8360e21b81526000906001600160a01b037f0000000000000000000000000000000000000000000000000000000000000000169063a59f3e0c906123cd9060208601359060040161374d565b600060405180830381600087803b1580156123e757600080fd5b505af11580156123fb573d6000803e3d6000fd5b505050506124287f0000000000000000000000000000000000000000000000000000000000000000611836565b9050337fdc237c455127799c709a81be1f2628a791d7b1e1e018442fe455c81321b7509a6124596020850185613014565b60405161249091907f000000000000000000000000000000000000000000000000000000000000000090602088013590879061366f565b60405180910390a2919050565b60006001600160a01b037f0000000000000000000000000000000000000000000000000000000000000000166124d66020840184613014565b6001600160a01b0316146126b8577f00000000000000000000000000000000000000000000000000000000000000006001600160a01b031663deac361a6040518163ffffffff1660e01b8152600401602060405180830381600087803b15801561253f57600080fd5b505af1158015612553573d6000803e3d6000fd5b505050506040513d601f19601f8201168201806040525081019061257791906131b1565b156125945760405162461bcd60e51b8152600401610df49061388c565b604051637acb775760e01b81526001600160a01b037f00000000000000000000000000000000000000000000000000000000000000001690637acb7757906125e69060208601359030906004016139eb565b602060405180830381600087803b15801561260057600080fd5b505af1158015612614573d6000803e3d6000fd5b505050506040513d601f19601f820116820180604052508101906126389190613191565b50604051630f41a04d60e11b81526001600160a01b037f00000000000000000000000000000000000000000000000000000000000000001690631e83409a906126859030906004016135b4565b600060405180830381600087803b15801561269f57600080fd5b505af11580156126b3573d6000803e3d6000fd5b505050505b7f00000000000000000000000000000000000000000000000000000000000000006001600160a01b031663ea598cb06127107f0000000000000000000000000000000000000000000000000000000000000000611836565b6040518263ffffffff1660e01b815260040161272c919061374d565b602060405180830381600087803b15801561274657600080fd5b505af115801561275a573d6000803e3d6000fd5b505050506040513d601f19601f8201168201806040525081019061277e91906131b1565b506127a87f0000000000000000000000000000000000000000000000000000000000000000611836565b9050337fdc237c455127799c709a81be1f2628a791d7b1e1e018442fe455c81321b7509a6127d96020850185613014565b60405161249091907f000000000000000000000000000000000000000000000000000000000000000090602088013590879061366f565b60008060008061281f85612884565b905061282b86866118dd565b8751602089015160405194985092965090945033927f525c2896d9d8eeec5fbd61b27630ab914e72153cac2d46f4019cfcaf1060aa2492612874929186908a908a908a90613636565b60405180910390a2509250925092565b600080600083600001518460200151915091506129bb7f00000000000000000000000000000000000000000000000000000000000000006001600160a01b031663c45a01556040518163ffffffff1660e01b815260040160206040518083038186803b1580156128f357600080fd5b505afa158015612907573d6000803e3d6000fd5b505050506040513d601f19601f8201168201806040525081019061292b9190613030565b612934846115d8565b61293e5783612960565b7f00000000000000000000000000000000000000000000000000000000000000005b612969846115d8565b6129735783612995565b7f00000000000000000000000000000000000000000000000000000000000000005b7f0000000000000000000000000000000000000000000000000000000000000000612aac565b949350505050565b604080516001600160a01b038416602482015260448082018490528251808303909101815260649091019091526020810180516001600160e01b031663a9059cbb60e01b179052610685908490612b4a565b60208101805182516001600160a01b03908116909252168152606081018051604083018051909252905260a0810180516080909201805190915252565b604080516001600160a01b0380861660248301528416604482015260648082018490528251808303909101815260849091019091526020810180516001600160e01b03166323b872dd60e01b17905261169c908590612b4a565b6000806000612abb8686612bfb565b604080516bffffffffffffffffffffffff19606094851b811660208084019190915293851b81166034830152825160288184030181526048830184528051908501206001600160f81b031960688401529b90941b9093166069840152607d830199909952609d808301969096528851808303909601865260bd9091019097525050815191909401209392505050565b6000612b9f826040518060400160405280602081526020017f5361666545524332303a206c6f772d6c6576656c2063616c6c206661696c6564815250856001600160a01b0316612cd99092919063ffffffff16565b80519091501561068557808060200190516020811015612bbe57600080fd5b50516106855760405162461bcd60e51b815260040180806020018281038252602a815260200180613c85602a913960400191505060405180910390fd5b600080826001600160a01b0316846001600160a01b03161415612c4f5760405162461bcd60e51b8152600401808060200182810382526025815260200180613c606025913960400191505060405180910390fd5b826001600160a01b0316846001600160a01b031610612c6f578284612c72565b83835b90925090506001600160a01b038216612cd2576040805162461bcd60e51b815260206004820152601e60248201527f556e697377617056324c6962726172793a205a45524f5f414444524553530000604482015290519081900360640190fd5b9250929050565b6060611778848460008585612ced85612dfe565b612d3e576040805162461bcd60e51b815260206004820152601d60248201527f416464726573733a2063616c6c20746f206e6f6e2d636f6e7472616374000000604482015290519081900360640190fd5b600080866001600160a01b031685876040518082805190602001908083835b60208310612d7c5780518252601f199092019160209182019101612d5d565b6001836020036101000a03801982511681845116808217855250505050505090500191505060006040518083038185875af1925050503d8060008114612dde576040519150601f19603f3d011682016040523d82523d6000602084013e612de3565b606091505b5091509150612df3828286612e04565b979650505050505050565b3b151590565b60608315612e1357508161177b565b825115612e235782518084602001fd5b8160405162461bcd60e51b81526004018080602001828103825283818151815260200191508051906020019080838360005b83811015612e6d578181015183820152602001612e55565b50505050905090810190601f168015612e9a5780820380516001836020036101000a031916815260200191505b509250505060405180910390fd5b604080516060810182526000808252602082018190529181019190915290565b604051806101800160405280600c906020820280368337509192915050565b80356115f981613c27565b8035600481106115f957600080fd5b600060e08284031215612f12578081fd5b60405160e081018181106001600160401b0382111715612f2e57fe5b604052905080612f3d83612ee7565b8152612f4b60208401612ee7565b602082015260408301356040820152606083013560608201526080830135608082015260a083013560a082015260c083013560c08201525092915050565b600060a08284031215612f9a578081fd5b50919050565b600060608284031215612f9a578081fd5b600060408284031215612fc2578081fd5b604051604081018181106001600160401b0382111715612fde57fe5b6040529050808235612fef81613c27565b8152602092830135920191909152919050565b60006101608284031215612f9a578081fd5b600060208284031215613025578081fd5b813561177b81613c27565b600060208284031215613041578081fd5b815161177b81613c27565b600080600060608486031215613060578182fd5b835161306b81613c27565b602085015190935061307c81613c27565b80925050604084015190509250925092565b600080602083850312156130a0578182fd5b82356001600160401b03808211156130b6578384fd5b818501915085601f8301126130c9578384fd5b8135818111156130d7578485fd5b8660206040830285010111156130eb578485fd5b60209290920196919550909350505050565b6000602080838503121561310f578182fd5b82516001600160401b03811115613124578283fd5b8301601f81018513613134578283fd5b805161314761314282613b41565b613b1e565b8181528381019083850185840285018601891015613163578687fd5b8694505b83851015613185578051835260019490940193918501918501613167565b50979650505050505050565b6000602082840312156131a2578081fd5b8151801515811461177b578182fd5b6000602082840312156131c2578081fd5b5051919050565b60008060006101a084860312156131de578081fd5b6131e784612ef2565b925060208401356001600160401b03811115613201578182fd5b61320d86828701612fa0565b92505061321d8560408601613002565b90509250925092565b600080600080600080610200878903121561323f578384fd5b61324887612ef2565b955060208701356001600160401b03811115613262578485fd5b61326e89828a01612fa0565b95505061327e8860408901613002565b93506101a087013592506101c087013561329781613c27565b809250506101e087013590509295509295509295565b6000806000806000806000610220888a0312156132c8578485fd5b6132d188612ef2565b965060208801356001600160401b038111156132eb578586fd5b6132f78a828b01612fa0565b9650506133078960408a01613002565b94506101a088013593506101c088013561332081613c27565b92506101e0880135915061020088013561333981613c27565b8091505092959891949750929550565b600080600080610240858703121561335f578182fd5b61336885612ef2565b935060208501356001600160401b03811115613382578283fd5b61338e87828801612fa0565b93505061339e8660408701613002565b91506133ae866101a08701612f89565b905092959194509250565b60008060008060006102e086880312156133d1578283fd5b6133da86612ef2565b945060208601356001600160401b038111156133f4578384fd5b61340088828901612fa0565b9450506134108760408801613002565b9250613420876101a08801612f89565b9150613430876102408801612f89565b90509295509295909350565b600060e0828403121561344d578081fd5b61177b8383612f01565b600060208284031215613468578081fd5b81356001600160401b0381111561347d578182fd5b6129bb84828501612fa0565b6000610160828403121561349b578081fd5b604051608081018181106001600160401b03821117156134b757fe5b6040526134c48484612fb1565b81526134d38460408501612f01565b60208201526101208301356134e781613c27565b60408201526101409290920135606083015250919050565b600060408284031215613510578081fd5b61177b8383612fb1565b60008060006060848603121561352e578081fd5b8351925060208401519150604084015190509250925092565b6000815180845260208085019450808401835b8381101561357f5781516001600160a01b03168752958201959082019060010161355a565b509495945050505050565b80516001600160a01b03908116835260208083015190911690830152604090810151910152565b90565b6001600160a01b0391909116815260200190565b6001600160a01b03958616815293851660208501529190931660408301526060820192909252608081019190915260a00190565b6001600160a01b03929092168252602082015260400190565b6001600160a01b039390931683526020830191909152604082015260600190565b6001600160a01b03968716815294861660208601529290941660408401526060830152608082019290925260a081019190915260c00190565b6001600160a01b0394851681529290931660208301526040820152606081019190915260800190565b6001600160a01b03958616815293909416602084015260408301919091526060820152608081019190915260a00190565b6001600160a01b039889168152968816602088015260408701959095526060860193909352608085019190915260a084015290921660c082015260e08101919091526101000190565b6001600160a01b039687168152602081019590955260408501939093526060840191909152909216608082015260a081019190915260c00190565b90815260200190565b9283526001600160a01b03918216602084015216604082015260600190565b9586526001600160a01b03948516602087015292909316604085015215156060840152608083019190915260a082015260c00190565b9586526001600160a01b0394851660208701529290931660408501526060840152608083019190915260a082015260c00190565b9687526001600160a01b0395861660208801529390941660408601526060850191909152608084015260a083019190915260c082015260e00190565b9485526001600160a01b0393841660208601526040850192909252606084015216608082015260a00190565b9283526020830191909152604082015260600190565b6020808252601590820152741513d2d15394d7d31253525517d15610d151511151605a1b604082015260600190565b6020808252601690820152755741524d55505f504552494f445f4e4f545f5a45524f60501b604082015260600190565b6020808252601190820152700929cac82989288bea6ae82a0bea082a89607b1b604082015260600190565b6020808252600f908201526e1514905394d1915497d19052531151608a1b604082015260600190565b60208082526017908201527f494e53554646494349454e545f4554485f414d4f554e54000000000000000000604082015260600190565b60208082526012908201527116915493d7d3505617d25397d05353d5539560721b604082015260600190565b6060810161156c828461358a565b6080810161398f828561358a565b8260608301529392505050565b60a081016139aa828661358a565b606082019390935260800152919050565b60e081016139c9828861358a565b8560608301528460808301528360a08301528260c08301529695505050505050565b9182526001600160a01b0316602082015260400190565b600085825260806020830152613a1b6080830186613547565b6001600160a01b03949094166040830152506060015292915050565b600086825285602083015260a06040830152613a5660a0830186613547565b6001600160a01b0394909416606083015250608001529392505050565b6000808335601e19843603018112613a89578283fd5b8301803591506001600160401b03821115613aa2578283fd5b6020908101925081023603821315612cd257600080fd5b6000808335601e19843603018112613acf578283fd5b8301803591506001600160401b03821115613ae8578283fd5b6020019150604081023603821315612cd257600080fd5b60008235605e19833603018112613b14578182fd5b9190910192915050565b6040518181016001600160401b0381118282101715613b3957fe5b604052919050565b60006001600160401b03821115613b5457fe5b5060209081020190565b600060608236031215613b6f578081fd5b604051606081016001600160401b038282108183111715613b8c57fe5b604091825284358352602080860135818501529185013581811115613baf578485fd5b8501905036601f820112613bc1578384fd5b8035613bcf61314282613b41565b8181528381019083850136868502860187011115613beb578788fd5b8794505b83851015613c16578035613c0281613c27565b835260019490940193918501918501613bef565b506040860152509295945050505050565b6001600160a01b0381168114613c3c57600080fd5b5056fe5265656e7472616e637947756172643a207265656e7472616e742063616c6c00556e697377617056324c6962726172793a204944454e544943414c5f4144445245535345535361666545524332303a204552433230206f7065726174696f6e20646964206e6f742073756363656564a2646970667358221220c257afc128a760638a6c5c8c0f243eb6b646115e177de7a752124027a4f1f0b864736f6c63430007060033",
    "linkReferences": {},
    "deployedLinkReferences": {}
}