{
    "_format": "hh-sol-artifact-1",
    "contractName": "PendleRedeemProxyMulti",
    "sourceName": "contracts/misc/PendleRedeemProxyMulti.sol",
    "abi": [
        {
            "inputs": [
                {
                    "internalType": "contract IPendleRouter",
                    "name": "_router",
                    "type": "address"
                },
                {
                    "internalType": "contract IPendleRetroactiveDistribution",
                    "name": "_tokenDistContract",
                    "type": "address"
                }
            ],
            "stateMutability": "nonpayable",
            "type": "constructor"
        },
        {
            "inputs": [
                {
                    "components": [
                        {
                            "internalType": "address[]",
                            "name": "yts",
                            "type": "address[]"
                        },
                        {
                            "internalType": "address[]",
                            "name": "ots",
                            "type": "address[]"
                        },
                        {
                            "internalType": "address[]",
                            "name": "markets",
                            "type": "address[]"
                        },
                        {
                            "components": [
                                {
                                    "internalType": "address",
                                    "name": "addr",
                                    "type": "address"
                                },
                                {
                                    "internalType": "uint256",
                                    "name": "expiry",
                                    "type": "uint256"
                                },
                                {
                                    "internalType": "enum LmRedeemMode",
                                    "name": "mode",
                                    "type": "uint8"
                                }
                            ],
                            "internalType": "struct LmRedeemRequest[]",
                            "name": "lmV1",
                            "type": "tuple[]"
                        },
                        {
                            "components": [
                                {
                                    "internalType": "address",
                                    "name": "addr",
                                    "type": "address"
                                },
                                {
                                    "internalType": "uint256",
                                    "name": "expiry",
                                    "type": "uint256"
                                },
                                {
                                    "internalType": "enum LmRedeemMode",
                                    "name": "mode",
                                    "type": "uint8"
                                }
                            ],
                            "internalType": "struct LmRedeemRequest[]",
                            "name": "lmV2",
                            "type": "tuple[]"
                        },
                        {
                            "internalType": "address[]",
                            "name": "tokensDistribution",
                            "type": "address[]"
                        }
                    ],
                    "internalType": "struct Args",
                    "name": "args",
                    "type": "tuple"
                },
                {
                    "internalType": "address",
                    "name": "user",
                    "type": "address"
                }
            ],
            "name": "redeem",
            "outputs": [
                {
                    "internalType": "uint256[]",
                    "name": "ytInterests",
                    "type": "uint256[]"
                },
                {
                    "components": [
                        {
                            "components": [
                                {
                                    "internalType": "address",
                                    "name": "tokenA",
                                    "type": "address"
                                },
                                {
                                    "internalType": "address",
                                    "name": "tokenB",
                                    "type": "address"
                                },
                                {
                                    "internalType": "address",
                                    "name": "tokenC",
                                    "type": "address"
                                }
                            ],
                            "internalType": "struct TrioTokens",
                            "name": "tokens",
                            "type": "tuple"
                        },
                        {
                            "components": [
                                {
                                    "internalType": "uint256",
                                    "name": "uintA",
                                    "type": "uint256"
                                },
                                {
                                    "internalType": "uint256",
                                    "name": "uintB",
                                    "type": "uint256"
                                },
                                {
                                    "internalType": "uint256",
                                    "name": "uintC",
                                    "type": "uint256"
                                }
                            ],
                            "internalType": "struct TrioUints",
                            "name": "uints",
                            "type": "tuple"
                        }
                    ],
                    "internalType": "struct TrioTokenUints[]",
                    "name": "otRewards",
                    "type": "tuple[]"
                },
                {
                    "internalType": "uint256[]",
                    "name": "marketInterests",
                    "type": "uint256[]"
                },
                {
                    "components": [
                        {
                            "components": [
                                {
                                    "components": [
                                        {
                                            "internalType": "address",
                                            "name": "tokenA",
                                            "type": "address"
                                        },
                                        {
                                            "internalType": "address",
                                            "name": "tokenB",
                                            "type": "address"
                                        }
                                    ],
                                    "internalType": "struct PairTokens",
                                    "name": "tokens",
                                    "type": "tuple"
                                },
                                {
                                    "components": [
                                        {
                                            "internalType": "uint256",
                                            "name": "uintA",
                                            "type": "uint256"
                                        },
                                        {
                                            "internalType": "uint256",
                                            "name": "uintB",
                                            "type": "uint256"
                                        }
                                    ],
                                    "internalType": "struct PairUints",
                                    "name": "uints",
                                    "type": "tuple"
                                }
                            ],
                            "internalType": "struct PairTokenUints",
                            "name": "rewards",
                            "type": "tuple"
                        },
                        {
                            "components": [
                                {
                                    "components": [
                                        {
                                            "internalType": "address",
                                            "name": "tokenA",
                                            "type": "address"
                                        },
                                        {
                                            "internalType": "address",
                                            "name": "tokenB",
                                            "type": "address"
                                        }
                                    ],
                                    "internalType": "struct PairTokens",
                                    "name": "tokens",
                                    "type": "tuple"
                                },
                                {
                                    "components": [
                                        {
                                            "internalType": "uint256",
                                            "name": "uintA",
                                            "type": "uint256"
                                        },
                                        {
                                            "internalType": "uint256",
                                            "name": "uintB",
                                            "type": "uint256"
                                        }
                                    ],
                                    "internalType": "struct PairUints",
                                    "name": "uints",
                                    "type": "tuple"
                                }
                            ],
                            "internalType": "struct PairTokenUints",
                            "name": "interests",
                            "type": "tuple"
                        }
                    ],
                    "internalType": "struct LmRedeemResult[]",
                    "name": "lmV1Returns",
                    "type": "tuple[]"
                },
                {
                    "components": [
                        {
                            "components": [
                                {
                                    "components": [
                                        {
                                            "internalType": "address",
                                            "name": "tokenA",
                                            "type": "address"
                                        },
                                        {
                                            "internalType": "address",
                                            "name": "tokenB",
                                            "type": "address"
                                        }
                                    ],
                                    "internalType": "struct PairTokens",
                                    "name": "tokens",
                                    "type": "tuple"
                                },
                                {
                                    "components": [
                                        {
                                            "internalType": "uint256",
                                            "name": "uintA",
                                            "type": "uint256"
                                        },
                                        {
                                            "internalType": "uint256",
                                            "name": "uintB",
                                            "type": "uint256"
                                        }
                                    ],
                                    "internalType": "struct PairUints",
                                    "name": "uints",
                                    "type": "tuple"
                                }
                            ],
                            "internalType": "struct PairTokenUints",
                            "name": "rewards",
                            "type": "tuple"
                        },
                        {
                            "components": [
                                {
                                    "components": [
                                        {
                                            "internalType": "address",
                                            "name": "tokenA",
                                            "type": "address"
                                        },
                                        {
                                            "internalType": "address",
                                            "name": "tokenB",
                                            "type": "address"
                                        }
                                    ],
                                    "internalType": "struct PairTokens",
                                    "name": "tokens",
                                    "type": "tuple"
                                },
                                {
                                    "components": [
                                        {
                                            "internalType": "uint256",
                                            "name": "uintA",
                                            "type": "uint256"
                                        },
                                        {
                                            "internalType": "uint256",
                                            "name": "uintB",
                                            "type": "uint256"
                                        }
                                    ],
                                    "internalType": "struct PairUints",
                                    "name": "uints",
                                    "type": "tuple"
                                }
                            ],
                            "internalType": "struct PairTokenUints",
                            "name": "interests",
                            "type": "tuple"
                        }
                    ],
                    "internalType": "struct LmRedeemResult[]",
                    "name": "lmV2Returns",
                    "type": "tuple[]"
                },
                {
                    "internalType": "uint256[]",
                    "name": "tokenDistReturns",
                    "type": "uint256[]"
                }
            ],
            "stateMutability": "nonpayable",
            "type": "function"
        },
        {
            "inputs": [
                {
                    "components": [
                        {
                            "internalType": "address",
                            "name": "addr",
                            "type": "address"
                        },
                        {
                            "internalType": "uint256",
                            "name": "expiry",
                            "type": "uint256"
                        },
                        {
                            "internalType": "enum LmRedeemMode",
                            "name": "mode",
                            "type": "uint8"
                        }
                    ],
                    "internalType": "struct LmRedeemRequest[]",
                    "name": "lm",
                    "type": "tuple[]"
                },
                {
                    "internalType": "address",
                    "name": "user",
                    "type": "address"
                }
            ],
            "name": "redeemLmV1",
            "outputs": [
                {
                    "components": [
                        {
                            "components": [
                                {
                                    "components": [
                                        {
                                            "internalType": "address",
                                            "name": "tokenA",
                                            "type": "address"
                                        },
                                        {
                                            "internalType": "address",
                                            "name": "tokenB",
                                            "type": "address"
                                        }
                                    ],
                                    "internalType": "struct PairTokens",
                                    "name": "tokens",
                                    "type": "tuple"
                                },
                                {
                                    "components": [
                                        {
                                            "internalType": "uint256",
                                            "name": "uintA",
                                            "type": "uint256"
                                        },
                                        {
                                            "internalType": "uint256",
                                            "name": "uintB",
                                            "type": "uint256"
                                        }
                                    ],
                                    "internalType": "struct PairUints",
                                    "name": "uints",
                                    "type": "tuple"
                                }
                            ],
                            "internalType": "struct PairTokenUints",
                            "name": "rewards",
                            "type": "tuple"
                        },
                        {
                            "components": [
                                {
                                    "components": [
                                        {
                                            "internalType": "address",
                                            "name": "tokenA",
                                            "type": "address"
                                        },
                                        {
                                            "internalType": "address",
                                            "name": "tokenB",
                                            "type": "address"
                                        }
                                    ],
                                    "internalType": "struct PairTokens",
                                    "name": "tokens",
                                    "type": "tuple"
                                },
                                {
                                    "components": [
                                        {
                                            "internalType": "uint256",
                                            "name": "uintA",
                                            "type": "uint256"
                                        },
                                        {
                                            "internalType": "uint256",
                                            "name": "uintB",
                                            "type": "uint256"
                                        }
                                    ],
                                    "internalType": "struct PairUints",
                                    "name": "uints",
                                    "type": "tuple"
                                }
                            ],
                            "internalType": "struct PairTokenUints",
                            "name": "interests",
                            "type": "tuple"
                        }
                    ],
                    "internalType": "struct LmRedeemResult[]",
                    "name": "results",
                    "type": "tuple[]"
                }
            ],
            "stateMutability": "nonpayable",
            "type": "function"
        },
        {
            "inputs": [
                {
                    "components": [
                        {
                            "internalType": "address",
                            "name": "addr",
                            "type": "address"
                        },
                        {
                            "internalType": "uint256",
                            "name": "expiry",
                            "type": "uint256"
                        },
                        {
                            "internalType": "enum LmRedeemMode",
                            "name": "mode",
                            "type": "uint8"
                        }
                    ],
                    "internalType": "struct LmRedeemRequest[]",
                    "name": "lm",
                    "type": "tuple[]"
                },
                {
                    "internalType": "address",
                    "name": "user",
                    "type": "address"
                }
            ],
            "name": "redeemLmV2",
            "outputs": [
                {
                    "components": [
                        {
                            "components": [
                                {
                                    "components": [
                                        {
                                            "internalType": "address",
                                            "name": "tokenA",
                                            "type": "address"
                                        },
                                        {
                                            "internalType": "address",
                                            "name": "tokenB",
                                            "type": "address"
                                        }
                                    ],
                                    "internalType": "struct PairTokens",
                                    "name": "tokens",
                                    "type": "tuple"
                                },
                                {
                                    "components": [
                                        {
                                            "internalType": "uint256",
                                            "name": "uintA",
                                            "type": "uint256"
                                        },
                                        {
                                            "internalType": "uint256",
                                            "name": "uintB",
                                            "type": "uint256"
                                        }
                                    ],
                                    "internalType": "struct PairUints",
                                    "name": "uints",
                                    "type": "tuple"
                                }
                            ],
                            "internalType": "struct PairTokenUints",
                            "name": "rewards",
                            "type": "tuple"
                        },
                        {
                            "components": [
                                {
                                    "components": [
                                        {
                                            "internalType": "address",
                                            "name": "tokenA",
                                            "type": "address"
                                        },
                                        {
                                            "internalType": "address",
                                            "name": "tokenB",
                                            "type": "address"
                                        }
                                    ],
                                    "internalType": "struct PairTokens",
                                    "name": "tokens",
                                    "type": "tuple"
                                },
                                {
                                    "components": [
                                        {
                                            "internalType": "uint256",
                                            "name": "uintA",
                                            "type": "uint256"
                                        },
                                        {
                                            "internalType": "uint256",
                                            "name": "uintB",
                                            "type": "uint256"
                                        }
                                    ],
                                    "internalType": "struct PairUints",
                                    "name": "uints",
                                    "type": "tuple"
                                }
                            ],
                            "internalType": "struct PairTokenUints",
                            "name": "interests",
                            "type": "tuple"
                        }
                    ],
                    "internalType": "struct LmRedeemResult[]",
                    "name": "results",
                    "type": "tuple[]"
                }
            ],
            "stateMutability": "nonpayable",
            "type": "function"
        },
        {
            "inputs": [
                {
                    "internalType": "address[]",
                    "name": "markets",
                    "type": "address[]"
                },
                {
                    "internalType": "address",
                    "name": "user",
                    "type": "address"
                }
            ],
            "name": "redeemMarkets",
            "outputs": [
                {
                    "internalType": "uint256[]",
                    "name": "marketInterests",
                    "type": "uint256[]"
                }
            ],
            "stateMutability": "nonpayable",
            "type": "function"
        },
        {
            "inputs": [
                {
                    "internalType": "address[]",
                    "name": "ots",
                    "type": "address[]"
                },
                {
                    "internalType": "address",
                    "name": "user",
                    "type": "address"
                }
            ],
            "name": "redeemOts",
            "outputs": [
                {
                    "components": [
                        {
                            "components": [
                                {
                                    "internalType": "address",
                                    "name": "tokenA",
                                    "type": "address"
                                },
                                {
                                    "internalType": "address",
                                    "name": "tokenB",
                                    "type": "address"
                                },
                                {
                                    "internalType": "address",
                                    "name": "tokenC",
                                    "type": "address"
                                }
                            ],
                            "internalType": "struct TrioTokens",
                            "name": "tokens",
                            "type": "tuple"
                        },
                        {
                            "components": [
                                {
                                    "internalType": "uint256",
                                    "name": "uintA",
                                    "type": "uint256"
                                },
                                {
                                    "internalType": "uint256",
                                    "name": "uintB",
                                    "type": "uint256"
                                },
                                {
                                    "internalType": "uint256",
                                    "name": "uintC",
                                    "type": "uint256"
                                }
                            ],
                            "internalType": "struct TrioUints",
                            "name": "uints",
                            "type": "tuple"
                        }
                    ],
                    "internalType": "struct TrioTokenUints[]",
                    "name": "otRewards",
                    "type": "tuple[]"
                }
            ],
            "stateMutability": "nonpayable",
            "type": "function"
        },
        {
            "inputs": [
                {
                    "internalType": "address[]",
                    "name": "tokens",
                    "type": "address[]"
                },
                {
                    "internalType": "address",
                    "name": "user",
                    "type": "address"
                }
            ],
            "name": "redeemTokenDist",
            "outputs": [
                {
                    "internalType": "uint256[]",
                    "name": "results",
                    "type": "uint256[]"
                }
            ],
            "stateMutability": "nonpayable",
            "type": "function"
        },
        {
            "inputs": [
                {
                    "internalType": "address[]",
                    "name": "yts",
                    "type": "address[]"
                },
                {
                    "internalType": "address",
                    "name": "user",
                    "type": "address"
                }
            ],
            "name": "redeemYts",
            "outputs": [
                {
                    "internalType": "uint256[]",
                    "name": "ytInterests",
                    "type": "uint256[]"
                }
            ],
            "stateMutability": "nonpayable",
            "type": "function"
        },
        {
            "inputs": [],
            "name": "router",
            "outputs": [
                {
                    "internalType": "contract IPendleRouter",
                    "name": "",
                    "type": "address"
                }
            ],
            "stateMutability": "view",
            "type": "function"
        },
        {
            "inputs": [],
            "name": "tokenDistContract",
            "outputs": [
                {
                    "internalType": "contract IPendleRetroactiveDistribution",
                    "name": "",
                    "type": "address"
                }
            ],
            "stateMutability": "view",
            "type": "function"
        }
    ],
    "bytecode": "0x60c06040523480156200001157600080fd5b5060405162001b7138038062001b71833981016040819052620000349162000053565b6001600160601b0319606092831b8116608052911b1660a052620000aa565b6000806040838503121562000066578182fd5b8251620000738162000091565b6020840151909250620000868162000091565b809150509250929050565b6001600160a01b0381168114620000a757600080fd5b50565b60805160601c60a05160601c611a8e620000e3600039806108d35280610a0c5250806104665280610c8a5280610d405250611a8e6000f3fe608060405234801561001057600080fd5b50600436106100935760003560e01c8063d352dfd611610066578063d352dfd614610114578063d4a1826914610127578063de103a5b1461014c578063eb16262a14610161578063f887ea401461017457610093565b80634431fdce146100985780636d5ee809146100c157806377fd6294146100e1578063c188e68f14610101575b600080fd5b6100ab6100a6366004611351565b61017c565b6040516100b891906118a4565b60405180910390f35b6100d46100cf366004611351565b610413565b6040516100b891906118b7565b6100f46100ef3660046113d0565b61054c565b6040516100b89190611891565b6100f461010f3660046113d0565b610700565b6100d4610122366004611351565b6108b4565b61013a610135366004611506565b61096c565b6040516100b8969594939291906118ca565b610154610a0a565b6040516100b891906117dd565b6100d461016f366004611351565b610a2e565b610154610d3e565b6060826001600160401b038111801561019457600080fd5b506040519080825280602002602001820160405280156101ce57816020015b6101bb611246565b8152602001906001900390816101b35790505b50905060005b8381101561040b5760008585838181106101ea57fe5b90506020020160208101906101ff9190611319565b90506000816001600160a01b0316636c6f42396040518163ffffffff1660e01b815260040160206040518083038186803b15801561023c57600080fd5b505afa158015610250573d6000803e3d6000fd5b505050506040513d601f19601f820116820180604052508101906102749190611335565b90506000816001600160a01b0316630f4ef8a66040518163ffffffff1660e01b815260040160206040518083038186803b1580156102b157600080fd5b505afa1580156102c5573d6000803e3d6000fd5b505050506040513d601f19601f820116820180604052508101906102e99190611335565b90506000836001600160a01b0316637158da7c6040518163ffffffff1660e01b815260040160206040518083038186803b15801561032657600080fd5b505afa15801561033a573d6000803e3d6000fd5b505050506040513d601f19601f8201168201806040525081019061035e9190611335565b90506000846001600160a01b031663e184c9be6040518163ffffffff1660e01b815260040160206040518083038186803b15801561039b57600080fd5b505afa1580156103af573d6000803e3d6000fd5b505050506040513d601f19601f820116820180604052508101906103d391906114cf565b90506103e2848484848c610d62565b8787815181106103ee57fe5b6020026020010181905250505050505080806001019150506101d4565b509392505050565b606082806001600160401b038111801561042c57600080fd5b50604051908082528060200260200182016040528015610456578160200160208202803683370190505b50915060005b81811015610543577f00000000000000000000000000000000000000000000000000000000000000006001600160a01b03166356c132cf87878481811061049f57fe5b90506020020160208101906104b49190611319565b866040518363ffffffff1660e01b81526004016104d29291906117f1565b602060405180830381600087803b1580156104ec57600080fd5b505af1158015610500573d6000803e3d6000fd5b505050506040513d601f19601f8201168201806040525081019061052491906114cf565b83828151811061053057fe5b602090810291909101015260010161045c565b50509392505050565b606082806001600160401b038111801561056557600080fd5b5060405190808252806020026020018201604052801561059f57816020015b61058c61126b565b8152602001906001900390816105845790505b50915060005b818110156105435760008686838181106105bb57fe5b90506060020160400160208101906105d391906114e7565b60028111156105de57fe5b1480610618575060028686838181106105f357fe5b905060600201604001602081019061060b91906114e7565b600281111561061657fe5b145b156106545761063886868381811061062c57fe5b90506060020185610e7a565b83828151811061064457fe5b6020026020010151602001819052505b600186868381811061066257fe5b905060600201604001602081019061067a91906114e7565b600281111561068557fe5b14806106bf5750600286868381811061069a57fe5b90506060020160400160208101906106b291906114e7565b60028111156106bd57fe5b145b156106f8576106df8686838181106106d357fe5b90506060020185610faa565b8382815181106106eb57fe5b6020908102919091010151525b6001016105a5565b606082806001600160401b038111801561071957600080fd5b5060405190808252806020026020018201604052801561075357816020015b61074061126b565b8152602001906001900390816107385790505b50915060005b8181101561054357600086868381811061076f57fe5b905060600201604001602081019061078791906114e7565b600281111561079257fe5b14806107cc575060028686838181106107a757fe5b90506060020160400160208101906107bf91906114e7565b60028111156107ca57fe5b145b15610808576107ec8686838181106107e057fe5b905060600201856110ca565b8382815181106107f857fe5b6020026020010151602001819052505b600186868381811061081657fe5b905060600201604001602081019061082e91906114e7565b600281111561083957fe5b14806108735750600286868381811061084e57fe5b905060600201604001602081019061086691906114e7565b600281111561087157fe5b145b156108ac5761089386868381811061088757fe5b90506060020185611188565b83828151811061089f57fe5b6020908102919091010151525b600101610759565b6060821561096557604051637c3a6c7b60e11b81526001600160a01b037f0000000000000000000000000000000000000000000000000000000000000000169063f874d8f69061090c9087908790879060040161182e565b600060405180830381600087803b15801561092657600080fd5b505af115801561093a573d6000803e3d6000fd5b505050506040513d6000823e601f3d908101601f19168201604052610962919081019061142f565b90505b9392505050565b60608080808080610986610980898061198a565b89610a2e565b955061099e61099860208a018a61198a565b8961017c565b94506109b66109b060408a018a61198a565b89610413565b93506109ce6109c860608a018a6119d7565b8961054c565b92506109e66109e060808a018a6119d7565b89610700565b91506109fe6109f860a08a018a61198a565b896108b4565b90509295509295509295565b7f000000000000000000000000000000000000000000000000000000000000000081565b6060826001600160401b0381118015610a4657600080fd5b50604051908082528060200260200182016040528015610a70578160200160208202803683370190505b50905060005b8381101561040b576000858583818110610a8c57fe5b9050602002016020810190610aa19190611319565b90506000816001600160a01b0316636c6f42396040518163ffffffff1660e01b815260040160206040518083038186803b158015610ade57600080fd5b505afa158015610af2573d6000803e3d6000fd5b505050506040513d601f19601f82011682018060405250810190610b169190611335565b6001600160a01b031663beb9a9736040518163ffffffff1660e01b815260040160206040518083038186803b158015610b4e57600080fd5b505afa158015610b62573d6000803e3d6000fd5b505050506040513d601f19601f82011682018060405250810190610b8691906114cf565b90506000826001600160a01b0316637158da7c6040518163ffffffff1660e01b815260040160206040518083038186803b158015610bc357600080fd5b505afa158015610bd7573d6000803e3d6000fd5b505050506040513d601f19601f82011682018060405250810190610bfb9190611335565b90506000836001600160a01b031663e184c9be6040518163ffffffff1660e01b815260040160206040518083038186803b158015610c3857600080fd5b505afa158015610c4c573d6000803e3d6000fd5b505050506040513d601f19601f82011682018060405250810190610c7091906114cf565b6040516304946b9f60e21b81529091506001600160a01b037f00000000000000000000000000000000000000000000000000000000000000001690631251ae7c90610cc5908690869086908d9060040161194c565b602060405180830381600087803b158015610cdf57600080fd5b505af1158015610cf3573d6000803e3d6000fd5b505050506040513d601f19601f82011682018060405250810190610d1791906114cf565b868681518110610d2357fe5b6020908102919091010152505060019092019150610a769050565b7f000000000000000000000000000000000000000000000000000000000000000081565b610d6a611246565b604051636d18d09960e11b81526001600160a01b0386169063da31a13290610d969087906004016117dd565b606060405180830381600087803b158015610db057600080fd5b505af1158015610dc4573d6000803e3d6000fd5b505050506040513d601f19601f82011682018060405250810190610de891906115f7565b8152604051632ab77f9b60e11b81526001600160a01b0386169063556eff3690610e1a9087908790879060040161180b565b606060405180830381600087803b158015610e3457600080fd5b505af1158015610e48573d6000803e3d6000fd5b505050506040513d601f19601f82011682018060405250810190610e6c9190611661565b602082015295945050505050565b610e82611287565b610e8f6020840184611319565b6001600160a01b031663ddf0fa836040518163ffffffff1660e01b815260040160206040518083038186803b158015610ec757600080fd5b505afa158015610edb573d6000803e3d6000fd5b505050506040513d601f19601f82011682018060405250810190610eff9190611335565b81516001600160a01b039091169052610f1b6020840184611319565b6001600160a01b0316632cbb18708460200135846040518363ffffffff1660e01b8152600401610f4c929190611973565b602060405180830381600087803b158015610f6657600080fd5b505af1158015610f7a573d6000803e3d6000fd5b505050506040513d601f19601f82011682018060405250810190610f9e91906114cf565b60208201515292915050565b610fb2611287565b610fbf6020840184611319565b6001600160a01b031663248169fe6040518163ffffffff1660e01b8152600401604080518083038186803b158015610ff657600080fd5b505afa15801561100a573d6000803e3d6000fd5b505050506040513d601f19601f8201168201806040525081019061102e9190611559565b815261103d6020840184611319565b6001600160a01b031663c6323c268460200135846040518363ffffffff1660e01b815260040161106e929190611973565b6040805180830381600087803b15801561108757600080fd5b505af115801561109b573d6000803e3d6000fd5b505050506040513d601f19601f820116820180604052508101906110bf91906115b0565b602082015292915050565b6110d2611287565b6110df6020840184611319565b6001600160a01b031663b3cccfe36040518163ffffffff1660e01b8152600401604080518083038186803b15801561111657600080fd5b505afa15801561112a573d6000803e3d6000fd5b505050506040513d601f19601f8201168201806040525081019061114e9190611559565b815261115d6020840184611319565b6001600160a01b0316636304a6bc836040518263ffffffff1660e01b815260040161106e91906117dd565b611190611287565b61119d6020840184611319565b6001600160a01b031663248169fe6040518163ffffffff1660e01b8152600401604080518083038186803b1580156111d457600080fd5b505afa1580156111e8573d6000803e3d6000fd5b505050506040513d601f19601f8201168201806040525081019061120c9190611559565b815261121b6020840184611319565b6001600160a01b0316639262187b836040518263ffffffff1660e01b815260040161106e91906117dd565b60405180604001604052806112596112a7565b81526020016112666112c7565b905290565b604051806040016040528061127e611287565b81526020016112665b604051806040016040528061129a6112e8565b81526020016112666112ff565b604080516060810182526000808252602082018190529181019190915290565b60405180606001604052806000815260200160008152602001600081525090565b604080518082019091526000808252602082015290565b604051806040016040528060008152602001600081525090565b60006020828403121561132a578081fd5b813561096581611a40565b600060208284031215611346578081fd5b815161096581611a40565b600080600060408486031215611365578182fd5b83356001600160401b038082111561137b578384fd5b818601915086601f83011261138e578384fd5b81358181111561139c578485fd5b87602080830285010111156113af578485fd5b602092830195509350508401356113c581611a40565b809150509250925092565b6000806000604084860312156113e4578283fd5b83356001600160401b03808211156113fa578485fd5b818601915086601f83011261140d578485fd5b81358181111561141b578586fd5b8760206060830285010111156113af578586fd5b60006020808385031215611441578182fd5b82516001600160401b0380821115611457578384fd5b818501915085601f83011261146a578384fd5b81518181111561147657fe5b8381029150611486848301611a1d565b8181528481019084860184860187018a10156114a0578788fd5b8795505b838610156114c25780518352600195909501949186019186016114a4565b5098975050505050505050565b6000602082840312156114e0578081fd5b5051919050565b6000602082840312156114f8578081fd5b813560038110610965578182fd5b60008060408385031215611518578182fd5b82356001600160401b0381111561152d578283fd5b830160c0818603121561153e578283fd5b9150602083013561154e81611a40565b809150509250929050565b60006040828403121561156a578081fd5b604051604081018181106001600160401b038211171561158657fe5b604052825161159481611a40565b815260208301516115a481611a40565b60208201529392505050565b6000604082840312156115c1578081fd5b604051604081018181106001600160401b03821117156115dd57fe5b604052825181526020928301519281019290925250919050565b600060608284031215611608578081fd5b604051606081018181106001600160401b038211171561162457fe5b604052825161163281611a40565b8152602083015161164281611a40565b6020820152604083015161165581611a40565b60408201529392505050565b600060608284031215611672578081fd5b604051606081018181106001600160401b038211171561168e57fe5b80604052508251815260208301516020820152604083015160408201528091505092915050565b6000815180845260208085019450808401835b838110156117025781516116dd8882516117ac565b8301516116ed60808901826117ac565b506101009690960195908201906001016116c8565b509495945050505050565b6000815180845260208085019450808401835b83811015611702578151805180516001600160a01b039081168a52858201518116868b015260409182015116818a015290840151805160608a01528085015160808a0152015160a088015260c09096019590820190600101611720565b6000815180845260208085019450808401835b8381101561170257815187529582019590820190600101611790565b805180516001600160a01b039081168452602091820151168184015290810151805160408401520151606090910152565b6001600160a01b0391909116815260200190565b6001600160a01b0392831681529116602082015260400190565b6001600160a01b0393841681526020810192909252909116604082015260600190565b6040808252810183905260008460608301825b8681101561187157823561185481611a40565b6001600160a01b0316825260209283019290910190600101611841565b506001600160a01b03949094166020939093019290925250909392505050565b60006020825261096560208301846116b5565b600060208252610965602083018461170d565b600060208252610965602083018461177d565b600060c082526118dd60c083018961177d565b82810360208401526118ef818961170d565b90508281036040840152611903818861177d565b9050828103606084015261191781876116b5565b9050828103608084015261192b81866116b5565b905082810360a084015261193f818561177d565b9998505050505050505050565b9384526001600160a01b039283166020850152604084019190915216606082015260800190565b9182526001600160a01b0316602082015260400190565b6000808335601e198436030181126119a0578283fd5b8301803591506001600160401b038211156119b9578283fd5b60209081019250810236038213156119d057600080fd5b9250929050565b6000808335601e198436030181126119ed578182fd5b8301803591506001600160401b03821115611a06578283fd5b60200191506060810236038213156119d057600080fd5b6040518181016001600160401b0381118282101715611a3857fe5b604052919050565b6001600160a01b0381168114611a5557600080fd5b5056fea2646970667358221220c2f4c330c58457428edf9045822a424fb9272242aae99792acb8ccc5ab55165864736f6c63430007060033",
    "linkReferences": {},
    "deployedLinkReferences": {}
}