{
    "_format": "hh-sol-artifact-1",
    "contractName": "PendleGenericLiquidityMiningMulti",
    "sourceName": "contracts/core/Generic/PendleGenericLiquidityMiningMulti.sol",
    "abi": [
        {
            "inputs": [
                {
                    "components": [
                        {
                            "internalType": "address",
                            "name": "governanceManager",
                            "type": "address"
                        },
                        {
                            "internalType": "address",
                            "name": "pausingManager",
                            "type": "address"
                        },
                        {
                            "internalType": "address",
                            "name": "whitelist",
                            "type": "address"
                        },
                        {
                            "components": [
                                {
                                    "internalType": "address",
                                    "name": "tokenA",
                                    "type": "address"
                                },
                                {
                                    "internalType": "address",
                                    "name": "tokenB",
                                    "type": "address"
                                }
                            ],
                            "internalType": "struct PairTokens",
                            "name": "rewardTokens",
                            "type": "tuple"
                        },
                        {
                            "internalType": "address",
                            "name": "router",
                            "type": "address"
                        },
                        {
                            "internalType": "bytes32",
                            "name": "marketFactoryId",
                            "type": "bytes32"
                        },
                        {
                            "internalType": "bytes32",
                            "name": "forgeId",
                            "type": "bytes32"
                        },
                        {
                            "internalType": "address",
                            "name": "underlyingAsset",
                            "type": "address"
                        },
                        {
                            "internalType": "address",
                            "name": "baseToken",
                            "type": "address"
                        },
                        {
                            "internalType": "uint256",
                            "name": "startTime",
                            "type": "uint256"
                        },
                        {
                            "internalType": "uint256",
                            "name": "epochDuration",
                            "type": "uint256"
                        },
                        {
                            "internalType": "uint256",
                            "name": "vestingEpochs",
                            "type": "uint256"
                        }
                    ],
                    "internalType": "struct PendleLiquidityMiningBaseMulti.ConstructorArgs",
                    "name": "args",
                    "type": "tuple"
                }
            ],
            "stateMutability": "nonpayable",
            "type": "constructor"
        },
        {
            "anonymous": false,
            "inputs": [
                {
                    "indexed": false,
                    "internalType": "uint256[]",
                    "name": "_expiries",
                    "type": "uint256[]"
                },
                {
                    "indexed": false,
                    "internalType": "uint256[]",
                    "name": "_allocationNumerators",
                    "type": "uint256[]"
                }
            ],
            "name": "AllocationSettingSet",
            "type": "event"
        },
        {
            "anonymous": false,
            "inputs": [
                {
                    "indexed": false,
                    "internalType": "uint256",
                    "name": "amount",
                    "type": "uint256"
                },
                {
                    "indexed": false,
                    "internalType": "address",
                    "name": "sendTo",
                    "type": "address"
                }
            ],
            "name": "EtherWithdraw",
            "type": "event"
        },
        {
            "anonymous": false,
            "inputs": [
                {
                    "components": [
                        {
                            "internalType": "uint256",
                            "name": "uintA",
                            "type": "uint256"
                        },
                        {
                            "internalType": "uint256",
                            "name": "uintB",
                            "type": "uint256"
                        }
                    ],
                    "indexed": false,
                    "internalType": "struct PairUints[]",
                    "name": "_rewards",
                    "type": "tuple[]"
                },
                {
                    "indexed": false,
                    "internalType": "uint256",
                    "name": "numberOfEpochs",
                    "type": "uint256"
                }
            ],
            "name": "Funded",
            "type": "event"
        },
        {
            "anonymous": false,
            "inputs": [
                {
                    "indexed": false,
                    "internalType": "uint256",
                    "name": "expiry",
                    "type": "uint256"
                },
                {
                    "indexed": false,
                    "internalType": "address",
                    "name": "user",
                    "type": "address"
                },
                {
                    "components": [
                        {
                            "internalType": "uint256",
                            "name": "uintA",
                            "type": "uint256"
                        },
                        {
                            "internalType": "uint256",
                            "name": "uintB",
                            "type": "uint256"
                        }
                    ],
                    "indexed": false,
                    "internalType": "struct PairUints",
                    "name": "amount",
                    "type": "tuple"
                }
            ],
            "name": "PendleRewardsSettled",
            "type": "event"
        },
        {
            "anonymous": false,
            "inputs": [
                {
                    "indexed": false,
                    "internalType": "uint256",
                    "name": "expiry",
                    "type": "uint256"
                },
                {
                    "indexed": false,
                    "internalType": "address",
                    "name": "user",
                    "type": "address"
                },
                {
                    "indexed": false,
                    "internalType": "uint256",
                    "name": "interests",
                    "type": "uint256"
                }
            ],
            "name": "RedeemLpInterests",
            "type": "event"
        },
        {
            "anonymous": false,
            "inputs": [
                {
                    "indexed": false,
                    "internalType": "uint256[]",
                    "name": "_epochIds",
                    "type": "uint256[]"
                },
                {
                    "components": [
                        {
                            "internalType": "uint256",
                            "name": "uintA",
                            "type": "uint256"
                        },
                        {
                            "internalType": "uint256",
                            "name": "uintB",
                            "type": "uint256"
                        }
                    ],
                    "indexed": false,
                    "internalType": "struct PairUints[]",
                    "name": "_rewards",
                    "type": "tuple[]"
                }
            ],
            "name": "RewardsToppedUp",
            "type": "event"
        },
        {
            "anonymous": false,
            "inputs": [
                {
                    "indexed": false,
                    "internalType": "uint256",
                    "name": "expiry",
                    "type": "uint256"
                },
                {
                    "indexed": false,
                    "internalType": "address",
                    "name": "user",
                    "type": "address"
                },
                {
                    "indexed": false,
                    "internalType": "uint256",
                    "name": "amount",
                    "type": "uint256"
                }
            ],
            "name": "Staked",
            "type": "event"
        },
        {
            "anonymous": false,
            "inputs": [
                {
                    "indexed": false,
                    "internalType": "contract IERC20",
                    "name": "token",
                    "type": "address"
                },
                {
                    "indexed": false,
                    "internalType": "uint256",
                    "name": "amount",
                    "type": "uint256"
                },
                {
                    "indexed": false,
                    "internalType": "address",
                    "name": "sendTo",
                    "type": "address"
                }
            ],
            "name": "TokenWithdraw",
            "type": "event"
        },
        {
            "anonymous": false,
            "inputs": [
                {
                    "indexed": false,
                    "internalType": "uint256",
                    "name": "expiry",
                    "type": "uint256"
                },
                {
                    "indexed": false,
                    "internalType": "address",
                    "name": "user",
                    "type": "address"
                },
                {
                    "indexed": false,
                    "internalType": "uint256",
                    "name": "amount",
                    "type": "uint256"
                }
            ],
            "name": "Withdrawn",
            "type": "event"
        },
        {
            "inputs": [
                {
                    "internalType": "uint256",
                    "name": "",
                    "type": "uint256"
                }
            ],
            "name": "allExpiries",
            "outputs": [
                {
                    "internalType": "uint256",
                    "name": "",
                    "type": "uint256"
                }
            ],
            "stateMutability": "view",
            "type": "function"
        },
        {
            "inputs": [
                {
                    "internalType": "uint256",
                    "name": "",
                    "type": "uint256"
                },
                {
                    "internalType": "uint256",
                    "name": "",
                    "type": "uint256"
                }
            ],
            "name": "allocationSettings",
            "outputs": [
                {
                    "internalType": "uint256",
                    "name": "",
                    "type": "uint256"
                }
            ],
            "stateMutability": "view",
            "type": "function"
        },
        {
            "inputs": [],
            "name": "baseToken",
            "outputs": [
                {
                    "internalType": "address",
                    "name": "",
                    "type": "address"
                }
            ],
            "stateMutability": "view",
            "type": "function"
        },
        {
            "inputs": [],
            "name": "data",
            "outputs": [
                {
                    "internalType": "contract IPendleData",
                    "name": "",
                    "type": "address"
                }
            ],
            "stateMutability": "view",
            "type": "function"
        },
        {
            "inputs": [],
            "name": "epochDuration",
            "outputs": [
                {
                    "internalType": "uint256",
                    "name": "",
                    "type": "uint256"
                }
            ],
            "stateMutability": "view",
            "type": "function"
        },
        {
            "inputs": [],
            "name": "forge",
            "outputs": [
                {
                    "internalType": "address",
                    "name": "",
                    "type": "address"
                }
            ],
            "stateMutability": "view",
            "type": "function"
        },
        {
            "inputs": [],
            "name": "forgeId",
            "outputs": [
                {
                    "internalType": "bytes32",
                    "name": "",
                    "type": "bytes32"
                }
            ],
            "stateMutability": "view",
            "type": "function"
        },
        {
            "inputs": [
                {
                    "components": [
                        {
                            "internalType": "uint256",
                            "name": "uintA",
                            "type": "uint256"
                        },
                        {
                            "internalType": "uint256",
                            "name": "uintB",
                            "type": "uint256"
                        }
                    ],
                    "internalType": "struct PairUints[]",
                    "name": "_rewards",
                    "type": "tuple[]"
                }
            ],
            "name": "fund",
            "outputs": [],
            "stateMutability": "nonpayable",
            "type": "function"
        },
        {
            "inputs": [],
            "name": "funded",
            "outputs": [
                {
                    "internalType": "bool",
                    "name": "",
                    "type": "bool"
                }
            ],
            "stateMutability": "view",
            "type": "function"
        },
        {
            "inputs": [
                {
                    "internalType": "uint256",
                    "name": "expiry",
                    "type": "uint256"
                },
                {
                    "internalType": "address",
                    "name": "user",
                    "type": "address"
                }
            ],
            "name": "getBalances",
            "outputs": [
                {
                    "internalType": "uint256",
                    "name": "",
                    "type": "uint256"
                }
            ],
            "stateMutability": "view",
            "type": "function"
        },
        {
            "inputs": [],
            "name": "getCurrentEpochId",
            "outputs": [
                {
                    "internalType": "uint256",
                    "name": "",
                    "type": "uint256"
                }
            ],
            "stateMutability": "view",
            "type": "function"
        },
        {
            "inputs": [],
            "name": "governanceManager",
            "outputs": [
                {
                    "internalType": "contract PendleGovernanceManager",
                    "name": "",
                    "type": "address"
                }
            ],
            "stateMutability": "view",
            "type": "function"
        },
        {
            "inputs": [],
            "name": "latestSetting",
            "outputs": [
                {
                    "internalType": "uint256",
                    "name": "id",
                    "type": "uint256"
                },
                {
                    "internalType": "uint256",
                    "name": "firstEpochToApply",
                    "type": "uint256"
                }
            ],
            "stateMutability": "view",
            "type": "function"
        },
        {
            "inputs": [
                {
                    "internalType": "uint256",
                    "name": "expiry",
                    "type": "uint256"
                }
            ],
            "name": "lpHolderForExpiry",
            "outputs": [
                {
                    "internalType": "address",
                    "name": "",
                    "type": "address"
                }
            ],
            "stateMutability": "view",
            "type": "function"
        },
        {
            "inputs": [],
            "name": "marketFactoryId",
            "outputs": [
                {
                    "internalType": "bytes32",
                    "name": "",
                    "type": "bytes32"
                }
            ],
            "stateMutability": "view",
            "type": "function"
        },
        {
            "inputs": [],
            "name": "numberOfEpochs",
            "outputs": [
                {
                    "internalType": "uint256",
                    "name": "",
                    "type": "uint256"
                }
            ],
            "stateMutability": "view",
            "type": "function"
        },
        {
            "inputs": [],
            "name": "readAllExpiriesLength",
            "outputs": [
                {
                    "internalType": "uint256",
                    "name": "length",
                    "type": "uint256"
                }
            ],
            "stateMutability": "view",
            "type": "function"
        },
        {
            "inputs": [
                {
                    "internalType": "uint256",
                    "name": "epochId",
                    "type": "uint256"
                },
                {
                    "internalType": "address",
                    "name": "user",
                    "type": "address"
                }
            ],
            "name": "readAvailableRewardsForUser",
            "outputs": [
                {
                    "components": [
                        {
                            "internalType": "uint256",
                            "name": "uintA",
                            "type": "uint256"
                        },
                        {
                            "internalType": "uint256",
                            "name": "uintB",
                            "type": "uint256"
                        }
                    ],
                    "internalType": "struct PairUints",
                    "name": "availableRewardsForUser",
                    "type": "tuple"
                }
            ],
            "stateMutability": "view",
            "type": "function"
        },
        {
            "inputs": [
                {
                    "internalType": "uint256",
                    "name": "epochId",
                    "type": "uint256"
                }
            ],
            "name": "readEpochData",
            "outputs": [
                {
                    "internalType": "uint256",
                    "name": "settingId",
                    "type": "uint256"
                },
                {
                    "components": [
                        {
                            "internalType": "uint256",
                            "name": "uintA",
                            "type": "uint256"
                        },
                        {
                            "internalType": "uint256",
                            "name": "uintB",
                            "type": "uint256"
                        }
                    ],
                    "internalType": "struct PairUints",
                    "name": "totalRewards",
                    "type": "tuple"
                }
            ],
            "stateMutability": "view",
            "type": "function"
        },
        {
            "inputs": [
                {
                    "internalType": "uint256",
                    "name": "expiry",
                    "type": "uint256"
                }
            ],
            "name": "readExpiryData",
            "outputs": [
                {
                    "internalType": "uint256",
                    "name": "totalStakeLP",
                    "type": "uint256"
                },
                {
                    "internalType": "uint256",
                    "name": "lastNYield",
                    "type": "uint256"
                },
                {
                    "internalType": "uint256",
                    "name": "paramL",
                    "type": "uint256"
                },
                {
                    "internalType": "address",
                    "name": "lpHolder",
                    "type": "address"
                }
            ],
            "stateMutability": "view",
            "type": "function"
        },
        {
            "inputs": [
                {
                    "internalType": "uint256",
                    "name": "epochId",
                    "type": "uint256"
                },
                {
                    "internalType": "uint256",
                    "name": "expiry",
                    "type": "uint256"
                }
            ],
            "name": "readExpirySpecificEpochData",
            "outputs": [
                {
                    "internalType": "uint256",
                    "name": "stakeUnits",
                    "type": "uint256"
                },
                {
                    "internalType": "uint256",
                    "name": "lastUpdatedForExpiry",
                    "type": "uint256"
                }
            ],
            "stateMutability": "view",
            "type": "function"
        },
        {
            "inputs": [],
            "name": "readRewardTokens",
            "outputs": [
                {
                    "components": [
                        {
                            "internalType": "address",
                            "name": "tokenA",
                            "type": "address"
                        },
                        {
                            "internalType": "address",
                            "name": "tokenB",
                            "type": "address"
                        }
                    ],
                    "internalType": "struct PairTokens",
                    "name": "tokens",
                    "type": "tuple"
                }
            ],
            "stateMutability": "view",
            "type": "function"
        },
        {
            "inputs": [
                {
                    "internalType": "uint256",
                    "name": "epochId",
                    "type": "uint256"
                },
                {
                    "internalType": "address",
                    "name": "user",
                    "type": "address"
                },
                {
                    "internalType": "uint256",
                    "name": "expiry",
                    "type": "uint256"
                }
            ],
            "name": "readStakeUnitsForUser",
            "outputs": [
                {
                    "internalType": "uint256",
                    "name": "stakeUnitsForUser",
                    "type": "uint256"
                }
            ],
            "stateMutability": "view",
            "type": "function"
        },
        {
            "inputs": [
                {
                    "internalType": "address",
                    "name": "_user",
                    "type": "address"
                }
            ],
            "name": "readUserExpiries",
            "outputs": [
                {
                    "internalType": "uint256[]",
                    "name": "_expiries",
                    "type": "uint256[]"
                }
            ],
            "stateMutability": "view",
            "type": "function"
        },
        {
            "inputs": [
                {
                    "internalType": "uint256",
                    "name": "expiry",
                    "type": "uint256"
                },
                {
                    "internalType": "address",
                    "name": "user",
                    "type": "address"
                }
            ],
            "name": "readUserSpecificExpiryData",
            "outputs": [
                {
                    "internalType": "uint256",
                    "name": "lastTimeUserStakeUpdated",
                    "type": "uint256"
                },
                {
                    "internalType": "uint256",
                    "name": "lastEpochClaimed",
                    "type": "uint256"
                },
                {
                    "internalType": "uint256",
                    "name": "balances",
                    "type": "uint256"
                },
                {
                    "internalType": "uint256",
                    "name": "lastParamL",
                    "type": "uint256"
                },
                {
                    "internalType": "uint256",
                    "name": "dueInterests",
                    "type": "uint256"
                }
            ],
            "stateMutability": "view",
            "type": "function"
        },
        {
            "inputs": [
                {
                    "internalType": "uint256",
                    "name": "expiry",
                    "type": "uint256"
                },
                {
                    "internalType": "address",
                    "name": "user",
                    "type": "address"
                }
            ],
            "name": "redeemLpInterests",
            "outputs": [
                {
                    "internalType": "uint256",
                    "name": "interests",
                    "type": "uint256"
                }
            ],
            "stateMutability": "nonpayable",
            "type": "function"
        },
        {
            "inputs": [
                {
                    "internalType": "uint256",
                    "name": "expiry",
                    "type": "uint256"
                },
                {
                    "internalType": "address",
                    "name": "user",
                    "type": "address"
                }
            ],
            "name": "redeemRewards",
            "outputs": [
                {
                    "components": [
                        {
                            "internalType": "uint256",
                            "name": "uintA",
                            "type": "uint256"
                        },
                        {
                            "internalType": "uint256",
                            "name": "uintB",
                            "type": "uint256"
                        }
                    ],
                    "internalType": "struct PairUints",
                    "name": "rewards",
                    "type": "tuple"
                }
            ],
            "stateMutability": "nonpayable",
            "type": "function"
        },
        {
            "inputs": [],
            "name": "rewardTokens",
            "outputs": [
                {
                    "internalType": "address",
                    "name": "tokenA",
                    "type": "address"
                },
                {
                    "internalType": "address",
                    "name": "tokenB",
                    "type": "address"
                }
            ],
            "stateMutability": "view",
            "type": "function"
        },
        {
            "inputs": [],
            "name": "router",
            "outputs": [
                {
                    "internalType": "contract IPendleRouter",
                    "name": "",
                    "type": "address"
                }
            ],
            "stateMutability": "view",
            "type": "function"
        },
        {
            "inputs": [
                {
                    "internalType": "uint256[]",
                    "name": "_expiries",
                    "type": "uint256[]"
                },
                {
                    "internalType": "uint256[]",
                    "name": "_allocationNumerators",
                    "type": "uint256[]"
                }
            ],
            "name": "setAllocationSetting",
            "outputs": [],
            "stateMutability": "nonpayable",
            "type": "function"
        },
        {
            "inputs": [
                {
                    "internalType": "uint256[]",
                    "name": "expiries",
                    "type": "uint256[]"
                },
                {
                    "internalType": "address",
                    "name": "spender",
                    "type": "address"
                }
            ],
            "name": "setUpEmergencyMode",
            "outputs": [],
            "stateMutability": "nonpayable",
            "type": "function"
        },
        {
            "inputs": [
                {
                    "internalType": "address",
                    "name": "forAddr",
                    "type": "address"
                },
                {
                    "internalType": "uint256",
                    "name": "expiry",
                    "type": "uint256"
                },
                {
                    "internalType": "uint256",
                    "name": "amount",
                    "type": "uint256"
                }
            ],
            "name": "stakeFor",
            "outputs": [
                {
                    "internalType": "address",
                    "name": "newLpHoldingContractAddress",
                    "type": "address"
                }
            ],
            "stateMutability": "nonpayable",
            "type": "function"
        },
        {
            "inputs": [
                {
                    "internalType": "uint256",
                    "name": "expiry",
                    "type": "uint256"
                },
                {
                    "internalType": "uint256",
                    "name": "amount",
                    "type": "uint256"
                },
                {
                    "internalType": "uint256",
                    "name": "deadline",
                    "type": "uint256"
                },
                {
                    "internalType": "uint8",
                    "name": "v",
                    "type": "uint8"
                },
                {
                    "internalType": "bytes32",
                    "name": "r",
                    "type": "bytes32"
                },
                {
                    "internalType": "bytes32",
                    "name": "s",
                    "type": "bytes32"
                }
            ],
            "name": "stakeWithPermit",
            "outputs": [
                {
                    "internalType": "address",
                    "name": "newLpHoldingContractAddress",
                    "type": "address"
                }
            ],
            "stateMutability": "nonpayable",
            "type": "function"
        },
        {
            "inputs": [],
            "name": "startTime",
            "outputs": [
                {
                    "internalType": "uint256",
                    "name": "",
                    "type": "uint256"
                }
            ],
            "stateMutability": "view",
            "type": "function"
        },
        {
            "inputs": [
                {
                    "internalType": "uint256[]",
                    "name": "_epochIds",
                    "type": "uint256[]"
                },
                {
                    "components": [
                        {
                            "internalType": "uint256",
                            "name": "uintA",
                            "type": "uint256"
                        },
                        {
                            "internalType": "uint256",
                            "name": "uintB",
                            "type": "uint256"
                        }
                    ],
                    "internalType": "struct PairUints[]",
                    "name": "_rewards",
                    "type": "tuple[]"
                }
            ],
            "name": "topUpRewards",
            "outputs": [],
            "stateMutability": "nonpayable",
            "type": "function"
        },
        {
            "inputs": [
                {
                    "internalType": "uint256",
                    "name": "epochId",
                    "type": "uint256"
                }
            ],
            "name": "totalRewardsForEpoch",
            "outputs": [
                {
                    "components": [
                        {
                            "internalType": "uint256",
                            "name": "uintA",
                            "type": "uint256"
                        },
                        {
                            "internalType": "uint256",
                            "name": "uintB",
                            "type": "uint256"
                        }
                    ],
                    "internalType": "struct PairUints",
                    "name": "rewards",
                    "type": "tuple"
                }
            ],
            "stateMutability": "view",
            "type": "function"
        },
        {
            "inputs": [],
            "name": "underlyingAsset",
            "outputs": [
                {
                    "internalType": "address",
                    "name": "",
                    "type": "address"
                }
            ],
            "stateMutability": "view",
            "type": "function"
        },
        {
            "inputs": [],
            "name": "underlyingYieldToken",
            "outputs": [
                {
                    "internalType": "address",
                    "name": "",
                    "type": "address"
                }
            ],
            "stateMutability": "view",
            "type": "function"
        },
        {
            "inputs": [],
            "name": "vestingEpochs",
            "outputs": [
                {
                    "internalType": "uint256",
                    "name": "",
                    "type": "uint256"
                }
            ],
            "stateMutability": "view",
            "type": "function"
        },
        {
            "inputs": [],
            "name": "whitelist",
            "outputs": [
                {
                    "internalType": "contract IPendleWhitelist",
                    "name": "",
                    "type": "address"
                }
            ],
            "stateMutability": "view",
            "type": "function"
        },
        {
            "inputs": [
                {
                    "internalType": "uint256",
                    "name": "amount",
                    "type": "uint256"
                },
                {
                    "internalType": "address payable",
                    "name": "sendTo",
                    "type": "address"
                }
            ],
            "name": "withdrawEther",
            "outputs": [],
            "stateMutability": "nonpayable",
            "type": "function"
        },
        {
            "inputs": [
                {
                    "internalType": "address",
                    "name": "to",
                    "type": "address"
                },
                {
                    "internalType": "uint256",
                    "name": "expiry",
                    "type": "uint256"
                },
                {
                    "internalType": "uint256",
                    "name": "amount",
                    "type": "uint256"
                }
            ],
            "name": "withdrawTo",
            "outputs": [],
            "stateMutability": "nonpayable",
            "type": "function"
        },
        {
            "inputs": [
                {
                    "internalType": "contract IERC20",
                    "name": "token",
                    "type": "address"
                },
                {
                    "internalType": "uint256",
                    "name": "amount",
                    "type": "uint256"
                },
                {
                    "internalType": "address",
                    "name": "sendTo",
                    "type": "address"
                }
            ],
            "name": "withdrawToken",
            "outputs": [],
            "stateMutability": "nonpayable",
            "type": "function"
        }
    ],
    "bytecode": "0x6102406040523480156200001257600080fd5b506040516200678038038062006780833981016040819052620000359162000728565b805181906001600160a01b03811662000084576040805162461bcd60e51b815260206004820152600c60248201526b5a45524f5f4144445245535360a01b604482015290519081900360640190fd5b60008054336001600160a01b031990911617905560601b6001600160601b031916608052600180556101208101514210620000dc5760405162461bcd60e51b8152600401620000d390620008cc565b60405180910390fd5b60008160e001516001600160a01b03166318160ddd6040518163ffffffff1660e01b815260040160206040518083038186803b1580156200011c57600080fd5b505afa15801562000131573d6000803e3d6000fd5b505050506040513d601f19601f820116820180604052508101906200015791906200080e565b11620001775760405162461bcd60e51b8152600401620000d39062000844565b60008161010001516001600160a01b03166318160ddd6040518163ffffffff1660e01b815260040160206040518083038186803b158015620001b857600080fd5b505afa158015620001cd573d6000803e3d6000fd5b505050506040513d601f19601f82011682018060405250810190620001f391906200080e565b11620002135760405162461bcd60e51b8152600401620000d39062000844565b6000816101600151116200023b5760405162461bcd60e51b8152600401620000d390620008f5565b6200025581606001516200063c60201b6200201b1760201c565b6060818101518051600280546001600160a01b03199081166001600160a01b039384161790915560209283015160038054909216908316179055608084018051841b6001600160601b031990811660c05260408087015190951b1660a0525183516339ea509d60e11b8152935160009491909216926373d4a13a92600480840193829003018186803b158015620002eb57600080fd5b505afa15801562000300573d6000803e3d6000fd5b505050506040513d601f19601f8201168201806040525081019062000326919062000702565b6001600160601b0319606082901b1660e05260a083015160405163c6069e4560e01b81529192506000916001600160a01b0384169163c6069e45916200037091906004016200083b565b60206040518083038186803b1580156200038957600080fd5b505afa1580156200039e573d6000803e3d6000fd5b505050506040513d601f19601f82011682018060405250810190620003c4919062000702565b6001600160a01b03161415620003ee5760405162461bcd60e51b8152600401620000d39062000895565b60c082015160405163288b600960e21b81526000916001600160a01b0384169163a22d80249162000422916004016200083b565b60206040518083038186803b1580156200043b57600080fd5b505afa15801562000450573d6000803e3d6000fd5b505050506040513d601f19601f8201168201806040525081019062000476919062000702565b6001600160a01b03161415620004a05760405162461bcd60e51b8152600401620000d3906200086b565b60c082015160405163288b600960e21b81526000916001600160a01b0384169163a22d802491620004d4916004016200083b565b60206040518083038186803b158015620004ed57600080fd5b505afa15801562000502573d6000803e3d6000fd5b505050506040513d601f19601f8201168201806040525081019062000528919062000702565b6001600160601b0319606082901b166101205260e0840151604051630675457b60e21b81529192506001600160a01b038316916319d515ec916200056f9160040162000827565b602060405180830381600087803b1580156200058a57600080fd5b505af11580156200059f573d6000803e3d6000fd5b505050506040513d601f19601f82011682018060405250810190620005c5919062000702565b6001600160601b0319606091821b81166101a0526020850151821b811661016090815260a086015161014090815260c087015161010090815260e0880151851b84166101805287015190931b9091166101c0526101208501516101e052908401516102005290920151610220525062000991915050565b80516001600160a01b0316156200068a5780602001516001600160a01b031681600001516001600160a01b031614156200068a5760405162461bcd60e51b8152600401620000d3906200092c565b50565b80516200069a816200097b565b919050565b600060408284031215620006b1578081fd5b604080519081016001600160401b0381118282101715620006ce57fe5b80604052508091508251620006e3816200097b565b81526020830151620006f5816200097b565b6020919091015292915050565b60006020828403121562000714578081fd5b815162000721816200097b565b9392505050565b60006101a082840312156200073b578081fd5b610180620007498162000957565b62000754846200068d565b815262000764602085016200068d565b602082015262000777604085016200068d565b60408201526200078b85606086016200069f565b60608201526200079e60a085016200068d565b608082015260c084015160a082015260e084015160c0820152610100620007c78186016200068d565b60e0830152610120620007dc8187016200068d565b828401526101409150818601518184015250610160808601518284015283860151818401525050809250505092915050565b60006020828403121562000820578081fd5b5051919050565b6001600160a01b0391909116815260200190565b90815260200190565b6020808252600d908201526c0494e56414c49445f455243323609c1b604082015260600190565b60208082526010908201526f1253959053125117d193d491d157d25160821b604082015260600190565b60208082526019908201527f494e56414c49445f4d41524b45545f464143544f52595f494400000000000000604082015260600190565b6020808252600f908201526e29aa20a92a2faa24a6a2afa7ab22a960891b604082015260600190565b60208082526016908201527f494e56414c49445f56455354494e475f45504f43485300000000000000000000604082015260600190565b6020808252601190820152704455504c4943415445445f544f4b454e5360781b604082015260600190565b6040518181016001600160401b03811182821017156200097357fe5b604052919050565b6001600160a01b03811681146200068a57600080fd5b60805160601c60a05160601c60c05160601c60e05160601c610100516101205160601c610140516101605160601c6101805160601c6101a05160601c6101c05160601c6101e0516102005161022051615c8b62000af560003980611ae65280612b03528061332452806139cf525080610c155280612a825280613e575280613eb052508061133852806115335280612a465280612aa85280613e7e525080610edb5280611bdf528061270e525080611f3a52806123a45280613033528061360c525080610e0552806114eb52806126385280613dcb52508061156f52806116225280612115525080610eb95280611b4e52806126ec5250806114c75280613d9d525080610de35280611ba55280612616525080610db55280610e8a528061150f52806125e852806126bd5280613b27525080611fb55280613011525080610ce752806110af52806117f4525080611ebb52806120705280612fed5250615c8b6000f3fe60806040523480156200001157600080fd5b5060043610620002a45760003560e01c80637e7387d81162000171578063c2b18aa011620000d5578063d43389c11162000093578063d43389c114620005a7578063ddf0fa8314620005d1578063e7baa65714620005db578063f3a504f214620005f2578063f887ea40146200060b578063fb859d2b146200061557620002a4565b8063c2b18aa0146200054b578063c55dae631462000565578063c6323c26146200056f578063ce56c4541462000586578063d2e6d1c3146200059d57620002a4565b80639bd3cc7b116200012f5780639bd3cc7b14620004f5578063a29a839f146200050c578063a6ce5c0b1462000516578063b67934611462000520578063bab9e5a7146200052a578063beb9a973146200054157620002a4565b80637e7387d8146200049c578063918a3e5a14620004b357806393e59dc114620004ca57806396eeffaa14620004d45780639a51d2d114620004eb57620002a4565b806334e4bd4911620002195780635fcbc20e11620001d75780635fcbc20e146200044657806368180381146200045d5780636c6f423914620004745780637158da7c146200047e57806373d4a13a146200048857806378e97925146200049257620002a4565b806334e4bd4914620003d15780633ccdbb2814620003f75780634ff0876a146200040e5780635668b02e146200041857806358e9a815146200042f57620002a4565b8063248169fe1162000267578063248169fe14620003475780632a7f952214620003605780632bf77f6914620003775780632cbb187014620003a057806331b6418314620003b757620002a4565b8063127b647914620002a9578063158aa9d714620002d85780631736884114620002fe5780631be03f0f1462000317578063206165361462000330575b600080fd5b620002c0620002ba3660046200443b565b6200063c565b604051620002cf919062004b06565b60405180910390f35b620002ef620002e936600462004133565b62000673565b604051620002cf919062004709565b62000308620006e1565b604051620002cf91906200475a565b6200032e62000328366004620041ef565b620006e7565b005b6200030862000341366004620044d9565b62000900565b620003516200091d565b604051620002cf919062004ae3565b62000308620003713660046200443b565b6200094e565b6200038e620003883660046200443b565b62000970565b604051620002cf949392919062004b5f565b62000308620003b13660046200446d565b620009a4565b620003c162000ad1565b604051620002cf92919062004b51565b620003e8620003e23660046200443b565b62000ada565b604051620002cf9190620045da565b6200032e62000408366004620043b6565b62000afb565b6200030862000c13565b620003e862000429366004620044fb565b62000c37565b620003e862000440366004620041b8565b62000fff565b6200032e62000457366004620041b8565b6200117e565b6200032e6200046e366004620042fe565b620012a0565b620003e8620014c5565b620003e8620014e9565b620003e86200150d565b6200030862001531565b6200032e620004ad36600462004233565b62001555565b620003c1620004c4366004620044d9565b620017c7565b620003e8620017f2565b6200032e620004e53660046200428e565b62001816565b6200030862001ae4565b62000308620005063660046200449f565b62001b08565b6200030862001b3a565b6200030862001b4c565b6200030862001b70565b620003086200053b3660046200446d565b62001b76565b6200030862001ba3565b6200055562001bc7565b604051620002cf9291906200462f565b620003e862001bdd565b620002c0620005803660046200446d565b62001c01565b6200032e620005973660046200446d565b62001d74565b620003e862001eb9565b620005be620005b83660046200446d565b62001edd565b604051620002cf95949392919062004b83565b620003e862001f38565b620002c0620005ec3660046200446d565b62001f5c565b620005fc62001faa565b604051620002cf91906200474f565b620003e862001fb3565b6200062c620006263660046200443b565b62001fd7565b604051620002cf92919062004b3b565b6200064662004051565b506000908152600b6020908152604091829020825180840190935260058101548352600601549082015290565b6001600160a01b0381166000908152600c6020908152604091829020805483518184028101840190945280845260609392830182828015620006d557602002820191906000526020600020905b815481526020019060010190808311620006c0575b50505050509050919050565b60045481565b620006f16200206c565b6001600160a01b0316336001600160a01b03161462000749576040805162461bcd60e51b815260206004820152600f60248201526e4f4e4c595f474f5645524e414e434560881b604482015290519081900360640190fd5b62000753620020fb565b6008546200077e5760405162461bcd60e51b8152600401620007759062004a3c565b60405180910390fd5b6004546200078b62001b3a565b1115620007ac5760405162461bcd60e51b8152600401620007759062004839565b80620007b762004051565b60005b828110156200083f57620007f4858583818110620007d457fe5b905060400201803603810190620007ec9190620043f1565b8390620021c5565b91508484828181106200080357fe5b905060400201600b600083600454016001018152602001908152602001600020600501818162000834919062004ba6565b5050600101620007ba565b506200084b8162002200565b156200086b5760405162461bcd60e51b8152600401620007759062004816565b6005805460ff1916600117905560045462000887908362002217565b600455604080518082019091526002546001600160a01b039081168252600354166020820152620008bb9033308462002279565b7f2a8c58d10abc188dedbf373509adf27a451db729e76176e6aba0dea783889e418484600454604051620008f2939291906200468d565b60405180910390a150505050565b600760209081526000928352604080842090915290825290205481565b620009276200406b565b50604080518082019091526002546001600160a01b03908116825260035416602082015290565b600681815481106200095f57600080fd5b600091825260209091200154905081565b6000908152600a6020526040902060028101546005820154600683015460039093015491939092916001600160a01b031690565b600060026001541415620009ee576040805162461bcd60e51b815260206004820152601f602482015260008051602062005b8f833981519152604482015290519081900360640190fd5b6002600155620009fd620020fb565b6001600160a01b03821662000a265760405162461bcd60e51b8152600401620007759062004862565b6001600160a01b0382166000908152600c6020908152604080832086845260010190915290205460ff1662000a6f5760405162461bcd60e51b8152600401620007759062004a66565b62000a7b83836200230e565b905062000a8a83838362002367565b7f3362ab8af9e6c4617b62eeee9f3f39ee63731109950210a455f51468641519f183838360405162000abf9392919062004782565b60405180910390a16001805592915050565b60085460095482565b6000818152600a60205260409020600301546001600160a01b03165b919050565b62000b056200206c565b6001600160a01b0316336001600160a01b03161462000b5d576040805162461bcd60e51b815260206004820152600f60248201526e4f4e4c595f474f5645524e414e434560881b604482015290519081900360640190fd5b62000b6883620024b8565b62000bae576040805162461bcd60e51b81526020600482015260116024820152701513d2d15397d393d517d0531313d5d151607a1b604482015290519081900360640190fd5b62000bc46001600160a01b0384168284620024f1565b604080516001600160a01b0380861682526020820185905283168183015290517f72cb8a894ddb372ceec3d2a7648d86f17d5a15caae0e986c53109b8a9a9385e69181900360600190a1505050565b7f000000000000000000000000000000000000000000000000000000000000000081565b60055460009060ff1662000c5f5760405162461bcd60e51b8152600401620007759062004a18565b6002600154141562000ca7576040805162461bcd60e51b815260206004820152601f602482015260008051602062005b8f833981519152604482015290519081900360640190fd5b6002600155600062000cb93362002545565b15801562000cc657503233145b9050808062000d725750604051636c9b2a3f60e11b81526001600160a01b037f0000000000000000000000000000000000000000000000000000000000000000169063d936547e9062000d1e903390600401620045da565b60206040518083038186803b15801562000d3757600080fd5b505afa15801562000d4c573d6000803e3d6000fd5b505050506040513d601f19601f8201168201806040525081019062000d72919062004362565b62000d915760405162461bcd60e51b81526004016200077590620048e7565b62000d9b620020fb565b604051631771964d60e21b81526000906001600160a01b037f00000000000000000000000000000000000000000000000000000000000000001690635dc659349062000e30907f0000000000000000000000000000000000000000000000000000000000000000907f0000000000000000000000000000000000000000000000000000000000000000908e9060040162004782565b60206040518083038186803b15801562000e4957600080fd5b505afa15801562000e5e573d6000803e3d6000fd5b505050506040513d601f19601f8201168201806040525081019062000e84919062004152565b905060007f00000000000000000000000000000000000000000000000000000000000000006001600160a01b0316638e7cf7667f0000000000000000000000000000000000000000000000000000000000000000847f00000000000000000000000000000000000000000000000000000000000000006040518463ffffffff1660e01b815260040162000f1a9392919062004763565b60206040518083038186803b15801562000f3357600080fd5b505afa15801562000f48573d6000803e3d6000fd5b505050506040513d601f19601f8201168201806040525081019062000f6e919062004152565b60405163d505accf60e01b81529091506001600160a01b0382169063d505accf9062000fab90339030908e908e908e908e908e90600401620045ee565b600060405180830381600087803b15801562000fc657600080fd5b505af115801562000fdb573d6000803e3d6000fd5b5050505062000fed33338c8c6200254b565b600180559a9950505050505050505050565b60055460009060ff16620010275760405162461bcd60e51b8152600401620007759062004a18565b600260015414156200106f576040805162461bcd60e51b815260206004820152601f602482015260008051602062005b8f833981519152604482015290519081900360640190fd5b60026001556000620010813362002545565b1580156200108e57503233145b905080806200113a5750604051636c9b2a3f60e11b81526001600160a01b037f0000000000000000000000000000000000000000000000000000000000000000169063d936547e90620010e6903390600401620045da565b60206040518083038186803b158015620010ff57600080fd5b505afa15801562001114573d6000803e3d6000fd5b505050506040513d601f19601f820116820180604052508101906200113a919062004362565b620011595760405162461bcd60e51b81526004016200077590620048e7565b62001163620020fb565b62001171853386866200254b565b6001805595945050505050565b60026001541415620011c6576040805162461bcd60e51b815260206004820152601f602482015260008051602062005b8f833981519152604482015290519081900360640190fd5b600260015560055460ff16620011f05760405162461bcd60e51b8152600401620007759062004a18565b620011fa620020fb565b60006200120662001b3a565b9050600081116200122b5760405162461bcd60e51b815260040162000775906200499e565b816200124b5760405162461bcd60e51b815260040162000775906200491e565b6200125933858585620028e6565b7fcf7d23a3cbe4e8b36ff82fd1b05b1b17373dc7804b4ebbd6e2356716ef2023728333846040516200128e9392919062004782565b60405180910390a15050600180555050565b620012aa6200206c565b6001600160a01b0316336001600160a01b03161462001302576040805162461bcd60e51b815260206004820152600f60248201526e4f4e4c595f474f5645524e414e434560881b604482015290519081900360640190fd5b6200130c620020fb565b8281146200132e5760405162461bcd60e51b8152600401620007759062004943565b60085462001378577f00000000000000000000000000000000000000000000000000000000000000004210620013785760405162461bcd60e51b815260040162000775906200496f565b60006200138462001b3a565b6009549091505b818111620013b1576008546000828152600b60205260409020600401556001016200138b565b5060018082016009556008805490910190556000805b858110156200145757848482818110620013dd57fe5b9050602002013560076000600860000154815260200190815260200160002060008989858181106200140b57fe5b905060200201358152602001908152602001600020819055506200144c8585838181106200143557fe5b90506020020135836200221790919063ffffffff16565b9150600101620013c7565b50633b9aca0081146200147e5760405162461bcd60e51b8152600401620007759062004943565b7fa2f2bbdbf0262fdcfb21631f73afb87e5d44d1ae145ab83d9c41b5077017331c86868686604051620014b59493929190620046de565b60405180910390a1505050505050565b7f000000000000000000000000000000000000000000000000000000000000000081565b7f000000000000000000000000000000000000000000000000000000000000000081565b7f000000000000000000000000000000000000000000000000000000000000000081565b7f000000000000000000000000000000000000000000000000000000000000000081565b604051636f11e6c160e01b81526000906001600160a01b037f00000000000000000000000000000000000000000000000000000000000000001690636f11e6c190620015a6903090600401620045da565b6040805180830381600087803b158015620015c057600080fd5b505af1158015620015d5573d6000803e3d6000fd5b505050506040513d601f19601f82011682018060405250810190620015fb91906200437f565b915050806200161e5760405162461bcd60e51b81526004016200077590620047c9565b60007f00000000000000000000000000000000000000000000000000000000000000006001600160a01b031663f87c24cd6040518163ffffffff1660e01b815260040160606040518083038186803b1580156200167a57600080fd5b505afa1580156200168f573d6000803e3d6000fd5b505050506040513d601f19601f82011682018060405250810190620016b5919062004171565b5090915050336001600160a01b03821614620016e55760405162461bcd60e51b81526004016200077590620048b8565b60005b848110156200179057600a60008787848181106200170257fe5b60209081029290920135835250810191909152604090810160002060030154905163d02fba5160e01b81526001600160a01b039091169063d02fba51906200174f908790600401620045da565b600060405180830381600087803b1580156200176a57600080fd5b505af11580156200177f573d6000803e3d6000fd5b505060019092019150620016e89050565b50604080518082019091526002546001600160a01b039081168252600354166020820152620017c09084620029e2565b5050505050565b6000918252600b60209081526040808420928452828252808420546001909301909152909120549091565b7f000000000000000000000000000000000000000000000000000000000000000081565b620018206200206c565b6001600160a01b0316336001600160a01b03161462001878576040805162461bcd60e51b815260206004820152600f60248201526e4f4e4c595f474f5645524e414e434560881b604482015290519081900360640190fd5b60055460ff166200189d5760405162461bcd60e51b8152600401620007759062004a18565b620018a7620020fb565b600854620018c95760405162461bcd60e51b8152600401620007759062004a3c565b828114620018eb5760405162461bcd60e51b81526004016200077590620047a1565b6000620018f762001b3a565b6004549091506200190762004051565b60005b8681101562001a3f578787828181106200192057fe5b9050602002013584108015620019495750828888838181106200193f57fe5b9050602002013511155b620019685760405162461bcd60e51b81526004016200077590620049ee565b62001979868683818110620007d457fe5b9150620019fb8686838181106200198c57fe5b905060400201803603810190620019a49190620043f1565b600b60008b8b86818110620019b557fe5b90506020020135815260200190815260200160002060050160405180604001604052908160008201548152602001600182015481525050620021c590919063ffffffff16565b600b60008a8a8581811062001a0c57fe5b6020908102929092013583525081810192909252604001600020825160058201559101516006909101556001016200190a565b5062001a4b8162002200565b1562001a6b5760405162461bcd60e51b8152600401620007759062004816565b604080518082019091526002546001600160a01b03908116825260035416602082015262001a9c9033308462002279565b7f0bb3e533df8edd2ab3c21173cdac3dffecef1b8ba101783a6e7b2220dc52e8d68787878760405162001ad39493929190620046b3565b60405180910390a150505050505050565b7f000000000000000000000000000000000000000000000000000000000000000081565b6000928352600b602090815260408085206001600160a01b039094168552600390930181528284209184525290205490565b600062001b474262002a42565b905090565b7f000000000000000000000000000000000000000000000000000000000000000081565b60065490565b6000828152600a602090815260408083206001600160a01b03851684526004019091529020545b92915050565b7f000000000000000000000000000000000000000000000000000000000000000081565b6002546003546001600160a01b03918216911682565b7f000000000000000000000000000000000000000000000000000000000000000081565b62001c0b62004051565b60055460ff1662001c305760405162461bcd60e51b8152600401620007759062004a18565b6002600154141562001c78576040805162461bcd60e51b815260206004820152601f602482015260008051602062005b8f833981519152604482015290519081900360640190fd5b600260015562001c87620020fb565b600062001c9362001b3a565b90506000811162001cb85760405162461bcd60e51b815260040162000775906200499e565b6001600160a01b03831662001ce15760405162461bcd60e51b8152600401620007759062004862565b6001600160a01b0383166000908152600c6020908152604080832087845260010190915290205460ff1662001d2a5760405162461bcd60e51b8152600401620007759062004a66565b62001d36848462002adb565b604080518082019091526002546001600160a01b03908116825260035416602082015290925062001d6990848462002caa565b506001805592915050565b62001d7e6200206c565b6001600160a01b0316336001600160a01b03161462001dd6576040805162461bcd60e51b815260206004820152600f60248201526e4f4e4c595f474f5645524e414e434560881b604482015290519081900360640190fd5b6040516000906001600160a01b0383169084908381818185875af1925050503d806000811462001e23576040519150601f19603f3d011682016040523d82523d6000602084013e62001e28565b606091505b505090508062001e71576040805162461bcd60e51b815260206004820152600f60248201526e15d2551211149055d7d19052531151608a1b604482015290519081900360640190fd5b604080518481526001600160a01b038416602082015281517fec47e7ed86c86774d1a72c19f35c639911393fe7c1a34031fdbd260890da90de929181900390910190a1505050565b7f000000000000000000000000000000000000000000000000000000000000000081565b6000918252600a602090815260408084206001600160a01b0393909316845282825280842054600184018352818520546004850184528286205460078601855283872054600890960190945291909420549394909391929190565b7f000000000000000000000000000000000000000000000000000000000000000081565b62001f6662004051565b506000918252600b602090815260408084206001600160a01b0390931684526002909201815291819020815180830190925280548252600101549181019190915290565b60055460ff1681565b7f000000000000000000000000000000000000000000000000000000000000000081565b600062001fe362004051565b50506000908152600b602090815260409182902060048101548351808501909452600582015484526006909101549183019190915291565b80516001600160a01b031615620020695780602001516001600160a01b031681600001516001600160a01b03161415620020695760405162461bcd60e51b8152600401620007759062004ab8565b50565b60007f00000000000000000000000000000000000000000000000000000000000000006001600160a01b0316635aa6e6756040518163ffffffff1660e01b815260040160206040518083038186803b158015620020c857600080fd5b505afa158015620020dd573d6000803e3d6000fd5b505050506040513d6020811015620020f457600080fd5b5051905090565b604051636f11e6c160e01b81526000906001600160a01b037f00000000000000000000000000000000000000000000000000000000000000001690636f11e6c1906200214c903090600401620045da565b6040805180830381600087803b1580156200216657600080fd5b505af11580156200217b573d6000803e3d6000fd5b505050506040513d601f19601f82011682018060405250810190620021a191906200437f565b5090508015620020695760405162461bcd60e51b81526004016200077590620049c3565b620021cf62004051565b81518351620021de9162002217565b815260208083015190840151620021f59162002217565b602082015292915050565b805160009015801562001b9d575050602001511590565b60008282018381101562002272576040805162461bcd60e51b815260206004820152601b60248201527f536166654d6174683a206164646974696f6e206f766572666c6f770000000000604482015290519081900360640190fd5b9392505050565b83516001600160a01b031615801590620022935750805115155b15620022b85780518451620022b8916001600160a01b03909116908590859062002d35565b60208401516001600160a01b031615801590620022d85750602081015115155b156200230857620023088383836020015187602001516001600160a01b031662002d35909392919063ffffffff16565b50505050565b6000828152600a6020526040812062002328848462002d4c565b6001600160a01b03831660009081526008820160205260408120805491905560058201549092506200235b908362002e83565b60059091015592915050565b806200237357620024b3565b6000838152600a6020526040908190206003015490516370a0823160e01b8152620024399183916001600160a01b037f00000000000000000000000000000000000000000000000000000000000000008116926370a0823192620023df929190911690600401620045da565b60206040518083038186803b158015620023f857600080fd5b505afa1580156200240d573d6000803e3d6000fd5b505050506040513d601f19601f8201168201806040525081019062002433919062004454565b62002e9c565b6000848152600a6020526040908190206003015490516303bb7fab60e41b81529192506001600160a01b031690633bb7fab0906200247e908590859060040162004674565b600060405180830381600087803b1580156200249957600080fd5b505af1158015620024ae573d6000803e3d6000fd5b505050505b505050565b604080518082019091526002546001600160a01b039081168252600354166020820152600090620024ea908362002eb4565b1592915050565b604080516001600160a01b038416602482015260448082018490528251808303909101815260649091019091526020810180516001600160e01b031663a9059cbb60e01b179052620024b390849062002efd565b3b151590565b6000828152600a60205260408120816200256462001b3a565b905060008111620025895760405162461bcd60e51b815260040162000775906200499e565b600454811115620025ae5760405162461bcd60e51b8152600401620007759062004888565b83620025ce5760405162461bcd60e51b815260040162000775906200491e565b604051631771964d60e21b81526000906001600160a01b037f00000000000000000000000000000000000000000000000000000000000000001690635dc659349062002663907f0000000000000000000000000000000000000000000000000000000000000000907f0000000000000000000000000000000000000000000000000000000000000000908b9060040162004782565b60206040518083038186803b1580156200267c57600080fd5b505afa15801562002691573d6000803e3d6000fd5b505050506040513d601f19601f82011682018060405250810190620026b7919062004152565b905060007f00000000000000000000000000000000000000000000000000000000000000006001600160a01b0316638e7cf7667f0000000000000000000000000000000000000000000000000000000000000000847f00000000000000000000000000000000000000000000000000000000000000006040518463ffffffff1660e01b81526004016200274d9392919062004763565b60206040518083038186803b1580156200276657600080fd5b505afa1580156200277b573d6000803e3d6000fd5b505050506040513d601f19601f82011682018060405250810190620027a1919062004152565b90506001600160a01b038216620027cc5760405162461bcd60e51b81526004016200077590620047f0565b6001600160a01b038116620027f55760405162461bcd60e51b8152600401620007759062004a8e565b60038401546001600160a01b0316620028175762002814878262002fb4565b94505b6001600160a01b0389166000908152600c602090815260408083208a845260010190915290205460ff166200288e576001600160a01b0389166000908152600c602090815260408083208054600181810183558286528486209091018c90558b8552908101909252909120805460ff191690911790555b6200289d8989838a8a620030c2565b7f18dcd430020e4d4899772fd94a8b40451dc5044dfb70bc46b532eeae431c864f878a88604051620028d29392919062004782565b60405180910390a150505050949350505050565b620028f2828562003174565b620028fe828562002d4c565b6000828152600a602090815260408083206001600160a01b03881684526004810190925290912054620029329083620033fc565b6001600160a01b038616600090815260048301602052604090205560028101546200295e9083620033fc565b60028201556000838152600a60205260409081902060030154905163cd800df760e01b81526001600160a01b039091169063cd800df790620029a7908790869060040162004674565b600060405180830381600087803b158015620029c257600080fd5b505af1158015620029d7573d6000803e3d6000fd5b505050505050505050565b81516001600160a01b03161562002a0d57815162002a0d906001600160a01b03168260001962003454565b60208201516001600160a01b03161562002a3e57602082015162002a3e906001600160a01b03168260001962003454565b5050565b60007f000000000000000000000000000000000000000000000000000000000000000082101562002a765750600062000af6565b62001b9d600162002ad47f000000000000000000000000000000000000000000000000000000000000000062002acd867f0000000000000000000000000000000000000000000000000000000000000000620033fc565b9062003481565b9062002217565b62002ae562004051565b62002af1838362003174565b600062002b2c62002b0162001b3a565b7f00000000000000000000000000000000000000000000000000000000000000006004540162002e9c565b6000858152600a602090815260408083206001600160a01b03881684526001019091529020549091505b81811162002c3c576000818152600b602090815260408083206001600160a01b0388168452600201825291829020825180840190935280548352600101549082015262002ba39062002200565b62002c33576000818152600b602090815260408083206001600160a01b0388168452600201825291829020825180840190935280548352600101549082015262002bef908490620021c5565b60408051808201825260008082526020808301828152868352600b82528483206001600160a01b038b16845260020190915292902090518155905160019091015592505b60010162002b56565b506000848152600a602090815260408083206001600160a01b038716845260010190915290819020829055517f3334d7ee526ce6b4d0d380b5fafa9124aa7ad1b2fee51d10b629040de2f658e99062002c9b9086908690869062004b16565b60405180910390a15092915050565b82516001600160a01b03161580159062002cc45750805115155b1562002ce7578051835162002ce7916001600160a01b03909116908490620034ea565b60208301516001600160a01b03161580159062002d075750602081015115155b15620024b357620024b382826020015185602001516001600160a01b0316620034ea9092919063ffffffff16565b620023086001600160a01b03851684848462003500565b6000828152600a6020526040902060038101546001600160a01b031662002d875760405162461bcd60e51b8152600401620007759062004a66565b62002d92836200355c565b60068101546001600160a01b03831660009081526007830160205260409020548062002ddc57506001600160a01b0383166000908152600790920160205260409091205562002a3e565b6001600160a01b03841660009081526004840160205260408120549062002e048484620033fc565b9050600062002e2268056bc75e2d6310000062002acd8585620036fb565b6001600160a01b038816600090815260088801602052604090205490915062002e4c908262002217565b6001600160a01b03979097166000908152600887016020908152604080832099909955600790970190965250505092909120555050565b60008183101562002e9657600062002272565b50900390565b600081831062002ead578162002272565b5090919050565b60006001600160a01b03821662002ece5750600062001b9d565b82516001600160a01b0383811691161480620022725750506020909101516001600160a01b0391821691161490565b600062002f54826040518060400160405280602081526020017f5361666545524332303a206c6f772d6c6576656c2063616c6c206661696c6564815250856001600160a01b0316620037599092919063ffffffff16565b805190915015620024b35780806020019051602081101562002f7557600080fd5b5051620024b35760405162461bcd60e51b815260040180806020018281038252602a81526020018062005bf6602a913960400191505060405180910390fd5b6006805460018101825560009182527ff652222313e28459528d920b65115c16c04f3efc82aaedc97be59f3f377c0d3f018390556040517f00000000000000000000000000000000000000000000000000000000000000009083907f0000000000000000000000000000000000000000000000000000000000000000907f0000000000000000000000000000000000000000000000000000000000000000906200305e9062004082565b6200306d949392919062004649565b604051809103906000f0801580156200308a573d6000803e3d6000fd5b506000848152600a6020526040902060030180546001600160a01b0319166001600160a01b038316179055905062001b9d8362003772565b620030ce828662003174565b620030da828662002d4c565b6000828152600a602090815260408083206001600160a01b038916845260048101909252909120546200310e908362002217565b6001600160a01b038716600090815260048301602052604090205560028101546200313a908362002217565b60028201556000838152600a60205260409020600301546200316c906001600160a01b03868116918891168562002d35565b505050505050565b6200317f82620037a4565b6000828152600a602090815260408083206001600160a01b03851684529182905290912054620031cb576001600160a01b03821660009081526020919091526040902042905562002a3e565b6000620031d762001b3a565b90506000620031e96004548362002e9c565b6004546001600160a01b03861660009081526020869052604081205492935090841191620032179062002a42565b9050805b838111620033d7576000818152600b602090815260408083208b8452909152902054620032585760028601546200325257620033d7565b620033ce565b6001600160a01b03871660009081526004870160209081526040808320549189905290912054620032c4916200328f91846200389e565b6000838152600b602090815260408083206001600160a01b038d16845260030182528083208d84529091529020549062002217565b6000828152600b602090815260408083206001600160a01b038c16845260030182528083208c8452909152902055838114801562003300575082155b156200330c57620033d7565b60006200331b898984620038f6565b9050600182015b7f000000000000000000000000000000000000000000000000000000000000000083018111620033cb576000818152600b602090815260408083206001600160a01b038d1684526002018252918290208251808401909352805483526001015490820152620033929083620021c5565b6000828152600b602090815260408083206001600160a01b038e1684526002018252909120825181559101516001918201550162003322565b50505b6001016200321b565b5050506001600160a01b03841660009081526020939093525050604090204290555050565b60008282111562002e96576040805162461bcd60e51b815260206004820152601e60248201527f536166654d6174683a207375627472616374696f6e206f766572666c6f770000604482015290519081900360640190fd5b6200346b6001600160a01b03841683600062003a08565b620024b36001600160a01b038416838362003a08565b6000808211620034d8576040805162461bcd60e51b815260206004820152601a60248201527f536166654d6174683a206469766973696f6e206279207a65726f000000000000604482015290519081900360640190fd5b818381620034e257fe5b049392505050565b620024b36001600160a01b0384168383620024f1565b604080516001600160a01b0380861660248301528416604482015260648082018490528251808303909101815260849091019091526020810180516001600160e01b03166323b872dd60e01b1790526200230890859062002efd565b6000818152600a60205260409020620035758262003b23565b62003581575062002069565b8060030160009054906101000a90046001600160a01b03166001600160a01b031663838dd2896040518163ffffffff1660e01b8152600401600060405180830381600087803b158015620035d457600080fd5b505af1158015620035e9573d6000803e3d6000fd5b5050505060038101546040516370a0823160e01b81526000916001600160a01b037f00000000000000000000000000000000000000000000000000000000000000008116926370a082319262003644921690600401620045da565b60206040518083038186803b1580156200365d57600080fd5b505afa15801562003672573d6000803e3d6000fd5b505050506040513d601f19601f8201168201806040525081019062003698919062004454565b9050600080620036a9858462003bcc565b9150915060008460020154600014620036de576002850154620036db9062002acd8468056bc75e2d63100000620036fb565b90505b620036ea838262002217565b600686015550505060059091015550565b6000826200370c5750600062001b9d565b828202828482816200371a57fe5b0414620022725760405162461bcd60e51b815260040180806020018281038252602181526020018062005bd56021913960400191505060405180910390fd5b60606200376a848460008562003c1d565b949350505050565b6000818152600a6020526040902060016006909101556200379262003d83565b6000918252600d602052604090912055565b6000620037b062001b3a565b90506000620037c28260045462002e9c565b90505b8015620024b3576000620037d98262003e4a565b6000838152600b60209081526040808320888452600101909152902054909150808214156200380a575050620024b3565b6000858152600a60205260409020600201546200384f906200382e9083866200389e565b6000858152600b602090815260408083208a84529091529020549062002217565b6000848152600b6020908152604080832089845290915290205562003875428362002e9c565b6000848152600b60209081526040808320898452600101909152902055505060001901620037c5565b60004281620038b885620038b28662003ea4565b62003ee3565b90506000620038cc83620024338762003e4a565b90506000620038dc828462002e83565b9050620038ea8882620036fb565b98975050505050505050565b6200390062004051565b60095460009083101562003926576000838152600b60205260409020600401546200392a565b6008545b6000818152600760209081526040808320898452825280832054878452600b8352818420825180840190935260058101548352600601549282019290925292935090916200398a91633b9aca0091620039839162003ef5565b9062003f20565b6000858152600b602090815260408083208a8452808352818420546001600160a01b038b168552600390910183528184208b855290925290912054919250620039fe917f00000000000000000000000000000000000000000000000000000000000000009162003983918290869062003ef5565b9695505050505050565b80158062003a92575060408051636eb1769f60e11b81523060048201526001600160a01b03848116602483015291519185169163dd62ed3e91604480820192602092909190829003018186803b15801562003a6257600080fd5b505afa15801562003a77573d6000803e3d6000fd5b505050506040513d602081101562003a8e57600080fd5b5051155b62003acf5760405162461bcd60e51b815260040180806020018281038252603681526020018062005c206036913960400191505060405180910390fd5b604080516001600160a01b038416602482015260448082018490528251808303909101815260649091019091526020810180516001600160e01b031663095ea7b360e01b179052620024b390849062002efd565b60007f00000000000000000000000000000000000000000000000000000000000000006001600160a01b03166399c8054f6040518163ffffffff1660e01b815260040160206040518083038186803b15801562003b7f57600080fd5b505afa15801562003b94573d6000803e3d6000fd5b505050506040513d601f19601f8201168201806040525081019062003bba919062004454565b62003bc58362003f4b565b1192915050565b6000828152600a60205260408120600681015460058201549092919062003bf5908590620033fc565b915062003c0162003d83565b6000958652600d60205260409095209490945590939092509050565b60608247101562003c605760405162461bcd60e51b815260040180806020018281038252602681526020018062005baf6026913960400191505060405180910390fd5b62003c6b8562002545565b62003cbd576040805162461bcd60e51b815260206004820152601d60248201527f416464726573733a2063616c6c20746f206e6f6e2d636f6e7472616374000000604482015290519081900360640190fd5b600080866001600160a01b031685876040518082805190602001908083835b6020831062003cfd5780518252601f19909201916020918201910162003cdc565b6001836020036101000a03801982511681845116808217855250505050505090500191505060006040518083038185875af1925050503d806000811462003d61576040519150601f19603f3d011682016040523d82523d6000602084013e62003d66565b606091505b509150915062003d7882828662003f7f565b979650505050505050565b60405163efb7601d60e01b81526000906001600160a01b037f0000000000000000000000000000000000000000000000000000000000000000169063efb7601d9062003df4907f000000000000000000000000000000000000000000000000000000000000000090600401620045da565b602060405180830381600087803b15801562003e0f57600080fd5b505af115801562003e24573d6000803e3d6000fd5b505050506040513d601f19601f8201168201806040525081019062001b47919062004454565b600062001b9d62003e7c837f0000000000000000000000000000000000000000000000000000000000000000620036fb565b7f00000000000000000000000000000000000000000000000000000000000000009062002217565b600062001b9d62003e7c7f000000000000000000000000000000000000000000000000000000000000000062003edc856001620033fc565b90620036fb565b60008183101562002ead578162002272565b62003eff62004051565b825162003f0d9083620036fb565b81526020830151620021f59083620036fb565b62003f2a62004051565b825162003f38908362003481565b81526020830151620021f5908362003481565b6000818152600d6020526040812054650100000000009062003f789062003f7162003d83565b9062004029565b0392915050565b6060831562003f9057508162002272565b82511562003fa15782518084602001fd5b8160405162461bcd60e51b81526004018080602001828103825283818151815260200191508051906020019080838360005b8381101562003fed57818101518382015260200162003fd3565b50505050905090810190601f1680156200401b5780820380516001836020036101000a031916815260200191505b509250505060405180910390fd5b6000620022728262002acd620040468665010000000000620036fb565b600286049062002217565b604051806040016040528060008152602001600081525090565b604080518082019091526000808252602082015290565b610fc08062004bcf83390190565b60008083601f840112620040a2578182fd5b50813567ffffffffffffffff811115620040ba578182fd5b602083019150836020604083028501011115620040d657600080fd5b9250929050565b60008083601f840112620040ef578182fd5b50813567ffffffffffffffff81111562004107578182fd5b6020830191508360208083028501011115620040d657600080fd5b8051801515811462000af657600080fd5b60006020828403121562004145578081fd5b8135620022728162004bb8565b60006020828403121562004164578081fd5b8151620022728162004bb8565b60008060006060848603121562004186578182fd5b8351620041938162004bb8565b6020850151909350620041a68162004bb8565b80925050604084015190509250925092565b600080600060608486031215620041cd578283fd5b8335620041da8162004bb8565b95602085013595506040909401359392505050565b6000806020838503121562004202578182fd5b823567ffffffffffffffff81111562004219578283fd5b620042278582860162004090565b90969095509350505050565b60008060006040848603121562004248578283fd5b833567ffffffffffffffff8111156200425f578384fd5b6200426d86828701620040dd565b9094509250506020840135620042838162004bb8565b809150509250925092565b60008060008060408587031215620042a4578081fd5b843567ffffffffffffffff80821115620042bc578283fd5b620042ca88838901620040dd565b90965094506020870135915080821115620042e3578283fd5b50620042f28782880162004090565b95989497509550505050565b6000806000806040858703121562004314578384fd5b843567ffffffffffffffff808211156200432c578586fd5b6200433a88838901620040dd565b9096509450602087013591508082111562004353578384fd5b50620042f287828801620040dd565b60006020828403121562004374578081fd5b620022728262004122565b6000806040838503121562004392578182fd5b6200439d8362004122565b9150620043ad6020840162004122565b90509250929050565b600080600060608486031215620043cb578283fd5b8335620043d88162004bb8565b9250602084013591506040840135620042838162004bb8565b60006040828403121562004403578081fd5b6040516040810181811067ffffffffffffffff821117156200442157fe5b604052823581526020928301359281019290925250919050565b6000602082840312156200444d578081fd5b5035919050565b60006020828403121562004466578081fd5b5051919050565b6000806040838503121562004480578182fd5b823591506020830135620044948162004bb8565b809150509250929050565b600080600060608486031215620044b4578081fd5b833592506020840135620044c88162004bb8565b929592945050506040919091013590565b60008060408385031215620044ec578182fd5b50508035926020909101359150565b60008060008060008060c0878903121562004514578384fd5b863595506020870135945060408701359350606087013560ff811681146200453a578283fd5b9598949750929560808101359460a0909101359350915050565b60008284526020808501945082825b858110156200458b578135875282820135838801526040968701969091019060010162004563565b509495945050505050565b81835260006001600160fb1b03831115620045af578081fd5b6020830280836020870137939093016020019283525090919050565b80518252602090810151910152565b6001600160a01b0391909116815260200190565b6001600160a01b0397881681529590961660208601526040850193909352606084019190915260ff16608083015260a082015260c081019190915260e00190565b6001600160a01b0392831681529116602082015260400190565b6001600160a01b03948516815292841660208401529083166040830152909116606082015260800190565b6001600160a01b03929092168252602082015260400190565b600060408252620046a360408301858762004554565b9050826020830152949350505050565b600060408252620046c960408301868862004596565b828103602084015262003d7881858762004554565b600060408252620046f460408301868862004596565b828103602084015262003d7881858762004596565b6020808252825182820181905260009190848201906040850190845b81811015620047435783518352928401929184019160010162004725565b50909695505050505050565b901515815260200190565b90815260200190565b9283526001600160a01b03918216602084015216604082015260600190565b9283526001600160a01b03919091166020830152604082015260600190565b6020808252600e908201526d494e56414c49445f41525241595360901b604082015260600190565b6020808252600d908201526c4e4f545f454d455247454e435960981b604082015260600190565b6020808252600c908201526b165517d393d517d193d5539160a21b604082015260600190565b60208082526009908201526816915493d7d195539160ba1b604082015260600190565b6020808252600f908201526e2620a9aa2fa2a827a1a42fa7ab22a960891b604082015260600190565b6020808252600c908201526b5a45524f5f4144445245535360a01b604082015260600190565b60208082526016908201527524a721a2a72a24ab22a9afa822a924a7a22fa7ab22a960511b604082015260600190565b6020808252601590820152742727aa2fa2a6a2a923a2a721acafa420a7222622a960591b604082015260600190565b60208082526018908201527f434f4e54524143545f4e4f545f57484954454c49535445440000000000000000604082015260600190565b6020808252600b908201526a16915493d7d05353d5539560aa1b604082015260600190565b60208082526012908201527124a72b20a624a22fa0a62627a1a0aa24a7a760711b604082015260600190565b6020808252601590820152742620aa22afa324a929aa2fa0a62627a1a0aa24a7a760591b604082015260600190565b6020808252600b908201526a1393d517d4d5105495115160aa1b604082015260600190565b60208082526011908201527013125457d35253925391d7d4105554d151607a1b604082015260600190565b60208082526010908201526f1253959053125117d15413d0d217d25160821b604082015260600190565b6020808252600a90820152691393d517d1955391115160b21b604082015260600190565b60208082526010908201526f4e4f5f414c4c4f435f53455454494e4760801b604082015260600190565b6020808252600e908201526d494e56414c49445f45585049525960901b604082015260600190565b60208082526010908201526f13505492d15517d393d517d193d5539160821b604082015260600190565b6020808252601190820152704455504c4943415445445f544f4b454e5360781b604082015260600190565b81516001600160a01b039081168252602092830151169181019190915260400190565b6040810162001b9d8284620045cb565b8381526001600160a01b0383166020820152608081016200376a6040830184620045cb565b82815260608101620022726020830184620045cb565b918252602082015260400190565b938452602084019290925260408301526001600160a01b0316606082015260800190565b948552602085019390935260408401919091526060830152608082015260a00190565b81358155602082013560018201555050565b6001600160a01b03811681146200206957600080fdfe61012060405234801561001157600080fd5b50604051610fc0380380610fc08339818101604052608081101561003457600080fd5b5080516020820151604083015160609093015191929091836001600160a01b038116610096576040805162461bcd60e51b815260206004820152600c60248201526b5a45524f5f4144445245535360a01b604482015290519081900360640190fd5b60008054336001600160a01b031990911617905560601b6001600160601b0319166080526001600160a01b038316158015906100da57506001600160a01b03821615155b80156100ee57506001600160a01b03811615155b61012e576040805162461bcd60e51b815260206004820152600c60248201526b5a45524f5f4144445245535360a01b604482015290519081900360640190fd5b6001600160601b0319606093841b811660e05291831b82166101005233831b60a05290911b1660c0525060805160601c60a05160601c60c05160601c60e05160601c6101005160601c610de36101dd600039806103ea52508061041952806104b452806105585280610776528061090e525080610238528061074052806107c852806108d15250806101c1528061037e52806104e152806106c95250806107a452806108455250610de36000f3fe608060405234801561001057600080fd5b50600436106100935760003560e01c8063cd800df711610066578063cd800df714610128578063ce56c45414610154578063d02fba5114610180578063d2e6d1c3146101a6578063ddf0fa83146101ae57610093565b80633bb7fab0146100985780633ccdbb28146100c6578063838dd289146100fc57806399d9a71f14610104575b600080fd5b6100c4600480360360408110156100ae57600080fd5b506001600160a01b0381351690602001356101b6565b005b6100c4600480360360608110156100dc57600080fd5b506001600160a01b03813581169160208101359160409091013516610263565b6100c4610373565b61010c6104b2565b604080516001600160a01b039092168252519081900360200190f35b6100c46004803603604081101561013e57600080fd5b506001600160a01b0381351690602001356104d6565b6100c46004803603604081101561016a57600080fd5b50803590602001356001600160a01b031661057f565b6100c46004803603602081101561019657600080fd5b50356001600160a01b03166106be565b61010c6107a2565b61010c6107c6565b336001600160a01b037f0000000000000000000000000000000000000000000000000000000000000000161461022b576040805162461bcd60e51b81526020600482015260156024820152744f4e4c595f4c49515549444954595f4d494e494e4760581b604482015290519081900360640190fd5b61025f6001600160a01b037f00000000000000000000000000000000000000000000000000000000000000001683836107ea565b5050565b61026b610841565b6001600160a01b0316336001600160a01b0316146102c2576040805162461bcd60e51b815260206004820152600f60248201526e4f4e4c595f474f5645524e414e434560881b604482015290519081900360640190fd5b6102cb836108cd565b610310576040805162461bcd60e51b81526020600482015260116024820152701513d2d15397d393d517d0531313d5d151607a1b604482015290519081900360640190fd5b6103246001600160a01b03841682846107ea565b604080516001600160a01b0380861682526020820185905283168183015290517f72cb8a894ddb372ceec3d2a7648d86f17d5a15caae0e986c53109b8a9a9385e69181900360600190a1505050565b336001600160a01b037f000000000000000000000000000000000000000000000000000000000000000016146103e8576040805162461bcd60e51b81526020600482015260156024820152744f4e4c595f4c49515549444954595f4d494e494e4760581b604482015290519081900360640190fd5b7f00000000000000000000000000000000000000000000000000000000000000006001600160a01b03166356c132cf7f0000000000000000000000000000000000000000000000000000000000000000306040518363ffffffff1660e01b815260040180836001600160a01b03168152602001826001600160a01b0316815260200192505050602060405180830381600087803b15801561048857600080fd5b505af115801561049c573d6000803e3d6000fd5b505050506040513d602081101561025f57600080fd5b7f000000000000000000000000000000000000000000000000000000000000000081565b336001600160a01b037f0000000000000000000000000000000000000000000000000000000000000000161461054b576040805162461bcd60e51b81526020600482015260156024820152744f4e4c595f4c49515549444954595f4d494e494e4760581b604482015290519081900360640190fd5b61025f6001600160a01b037f00000000000000000000000000000000000000000000000000000000000000001683836107ea565b610587610841565b6001600160a01b0316336001600160a01b0316146105de576040805162461bcd60e51b815260206004820152600f60248201526e4f4e4c595f474f5645524e414e434560881b604482015290519081900360640190fd5b6040516000906001600160a01b0383169084908381818185875af1925050503d8060008114610629576040519150601f19603f3d011682016040523d82523d6000602084013e61062e565b606091505b5050905080610676576040805162461bcd60e51b815260206004820152600f60248201526e15d2551211149055d7d19052531151608a1b604482015290519081900360640190fd5b604080518481526001600160a01b038416602082015281517fec47e7ed86c86774d1a72c19f35c639911393fe7c1a34031fdbd260890da90de929181900390910190a1505050565b336001600160a01b037f00000000000000000000000000000000000000000000000000000000000000001614610733576040805162461bcd60e51b81526020600482015260156024820152744f4e4c595f4c49515549444954595f4d494e494e4760581b604482015290519081900360640190fd5b6107696001600160a01b037f00000000000000000000000000000000000000000000000000000000000000001682600019610949565b61079f6001600160a01b037f00000000000000000000000000000000000000000000000000000000000000001682600019610949565b50565b7f000000000000000000000000000000000000000000000000000000000000000081565b7f000000000000000000000000000000000000000000000000000000000000000081565b604080516001600160a01b038416602482015260448082018490528251808303909101815260649091019091526020810180516001600160e01b031663a9059cbb60e01b17905261083c908490610a58565b505050565b60007f00000000000000000000000000000000000000000000000000000000000000006001600160a01b0316635aa6e6756040518163ffffffff1660e01b815260040160206040518083038186803b15801561089c57600080fd5b505afa1580156108b0573d6000803e3d6000fd5b505050506040513d60208110156108c657600080fd5b5051905090565b60007f00000000000000000000000000000000000000000000000000000000000000006001600160a01b0316826001600160a01b03161415801561094357507f00000000000000000000000000000000000000000000000000000000000000006001600160a01b0316826001600160a01b031614155b92915050565b8015806109cf575060408051636eb1769f60e11b81523060048201526001600160a01b03848116602483015291519185169163dd62ed3e91604480820192602092909190829003018186803b1580156109a157600080fd5b505afa1580156109b5573d6000803e3d6000fd5b505050506040513d60208110156109cb57600080fd5b5051155b610a0a5760405162461bcd60e51b8152600401808060200182810382526036815260200180610d786036913960400191505060405180910390fd5b604080516001600160a01b038416602482015260448082018490528251808303909101815260649091019091526020810180516001600160e01b031663095ea7b360e01b17905261083c9084905b6000610aad826040518060400160405280602081526020017f5361666545524332303a206c6f772d6c6576656c2063616c6c206661696c6564815250856001600160a01b0316610b099092919063ffffffff16565b80519091501561083c57808060200190516020811015610acc57600080fd5b505161083c5760405162461bcd60e51b815260040180806020018281038252602a815260200180610d4e602a913960400191505060405180910390fd5b6060610b188484600085610b22565b90505b9392505050565b606082471015610b635760405162461bcd60e51b8152600401808060200182810382526026815260200180610d286026913960400191505060405180910390fd5b610b6c85610c7d565b610bbd576040805162461bcd60e51b815260206004820152601d60248201527f416464726573733a2063616c6c20746f206e6f6e2d636f6e7472616374000000604482015290519081900360640190fd5b600080866001600160a01b031685876040518082805190602001908083835b60208310610bfb5780518252601f199092019160209182019101610bdc565b6001836020036101000a03801982511681845116808217855250505050505090500191505060006040518083038185875af1925050503d8060008114610c5d576040519150601f19603f3d011682016040523d82523d6000602084013e610c62565b606091505b5091509150610c72828286610c83565b979650505050505050565b3b151590565b60608315610c92575081610b1b565b825115610ca25782518084602001fd5b8160405162461bcd60e51b81526004018080602001828103825283818151815260200191508051906020019080838360005b83811015610cec578181015183820152602001610cd4565b50505050905090810190601f168015610d195780820380516001836020036101000a031916815260200191505b509250505060405180910390fdfe416464726573733a20696e73756666696369656e742062616c616e636520666f722063616c6c5361666545524332303a204552433230206f7065726174696f6e20646964206e6f7420737563636565645361666545524332303a20617070726f76652066726f6d206e6f6e2d7a65726f20746f206e6f6e2d7a65726f20616c6c6f77616e6365a2646970667358221220e6ea54756900da65ecf37a40b035b0b68a2e62bebc6a7b571345725d5059e7c664736f6c634300070600335265656e7472616e637947756172643a207265656e7472616e742063616c6c00416464726573733a20696e73756666696369656e742062616c616e636520666f722063616c6c536166654d6174683a206d756c7469706c69636174696f6e206f766572666c6f775361666545524332303a204552433230206f7065726174696f6e20646964206e6f7420737563636565645361666545524332303a20617070726f76652066726f6d206e6f6e2d7a65726f20746f206e6f6e2d7a65726f20616c6c6f77616e6365a26469706673582212209fcc1961681237ea8c6e13a3c488610fabdfc957b833440eced7f942ea954ca764736f6c63430007060033",
    "linkReferences": {},
    "deployedLinkReferences": {}
}