{
  "_format": "hh-sol-artifact-1",
  "contractName": "PendleTraderJoeYieldTokenHolder",
  "sourceName": "contracts/core/TraderJoe/PendleTraderJoeYieldTokenHolder.sol",
  "abi": [
    {
      "inputs": [
        {
          "internalType": "address",
          "name": "_forge",
          "type": "address"
        },
        {
          "internalType": "address",
          "name": "_yieldToken",
          "type": "address"
        },
        {
          "internalType": "uint256",
          "name": "_expiry",
          "type": "uint256"
        },
        {
          "internalType": "address",
          "name": "_joeMasterChefV2",
          "type": "address"
        },
        {
          "internalType": "uint256",
          "name": "_pid",
          "type": "uint256"
        },
        {
          "components": [
            {
              "internalType": "address",
              "name": "tokenA",
              "type": "address"
            },
            {
              "internalType": "address",
              "name": "tokenB",
              "type": "address"
            },
            {
              "internalType": "address",
              "name": "tokenC",
              "type": "address"
            },
            {
              "internalType": "bool",
              "name": "_confirmNoDuplication",
              "type": "bool"
            }
          ],
          "internalType": "struct TrioTokens",
          "name": "_trioRewardTokens",
          "type": "tuple"
        }
      ],
      "stateMutability": "nonpayable",
      "type": "constructor"
    },
    {
      "inputs": [
        {
          "internalType": "uint256",
          "name": "amount",
          "type": "uint256"
        }
      ],
      "name": "afterReceiveTokens",
      "outputs": [],
      "stateMutability": "nonpayable",
      "type": "function"
    },
    {
      "inputs": [],
      "name": "expiry",
      "outputs": [
        {
          "internalType": "uint256",
          "name": "",
          "type": "uint256"
        }
      ],
      "stateMutability": "view",
      "type": "function"
    },
    {
      "inputs": [],
      "name": "forge",
      "outputs": [
        {
          "internalType": "address",
          "name": "",
          "type": "address"
        }
      ],
      "stateMutability": "view",
      "type": "function"
    },
    {
      "inputs": [],
      "name": "pid",
      "outputs": [
        {
          "internalType": "uint32",
          "name": "",
          "type": "uint32"
        }
      ],
      "stateMutability": "view",
      "type": "function"
    },
    {
      "inputs": [
        {
          "internalType": "address",
          "name": "to",
          "type": "address"
        },
        {
          "internalType": "uint256",
          "name": "amount",
          "type": "uint256"
        },
        {
          "internalType": "uint256",
          "name": "minNYieldAfterPush",
          "type": "uint256"
        }
      ],
      "name": "pushYieldTokens",
      "outputs": [],
      "stateMutability": "nonpayable",
      "type": "function"
    },
    {
      "inputs": [],
      "name": "redeemRewards",
      "outputs": [],
      "stateMutability": "nonpayable",
      "type": "function"
    },
    {
      "inputs": [],
      "name": "rewardToken",
      "outputs": [
        {
          "internalType": "address",
          "name": "",
          "type": "address"
        }
      ],
      "stateMutability": "view",
      "type": "function"
    },
    {
      "inputs": [
        {
          "internalType": "address",
          "name": "",
          "type": "address"
        }
      ],
      "name": "setUpEmergencyMode",
      "outputs": [],
      "stateMutability": "pure",
      "type": "function"
    },
    {
      "inputs": [
        {
          "internalType": "address",
          "name": "spender",
          "type": "address"
        },
        {
          "internalType": "bool",
          "name": "useEmergencyWithdraw",
          "type": "bool"
        }
      ],
      "name": "setUpEmergencyModeV2",
      "outputs": [],
      "stateMutability": "nonpayable",
      "type": "function"
    },
    {
      "inputs": [],
      "name": "trioRewardTokens",
      "outputs": [
        {
          "internalType": "address",
          "name": "tokenA",
          "type": "address"
        },
        {
          "internalType": "address",
          "name": "tokenB",
          "type": "address"
        },
        {
          "internalType": "address",
          "name": "tokenC",
          "type": "address"
        },
        {
          "internalType": "bool",
          "name": "_confirmNoDuplication",
          "type": "bool"
        }
      ],
      "stateMutability": "view",
      "type": "function"
    },
    {
      "inputs": [],
      "name": "yieldToken",
      "outputs": [
        {
          "internalType": "address",
          "name": "",
          "type": "address"
        }
      ],
      "stateMutability": "view",
      "type": "function"
    },
    {
      "stateMutability": "payable",
      "type": "receive"
    }
  ],
  "bytecode": "0x60c06040523480156200001157600080fd5b506040516200194d3803806200194d833981016040819052620000349162000640565b858585836200004e816200036b60201b620008321760201c565b6001600160601b0319606084811b821660805285811b90911660a05260038390558151600080546001600160a01b039283166001600160a01b0319918216179091556020808501516001805491851691841691909117905560408086015160028054968801511515600160a01b0260ff60a01b199287169790951696909617169290921790935580516303e21fa960e61b815290519187169263f887ea4092600480840193829003018186803b1580156200010857600080fd5b505afa1580156200011d573d6000803e3d6000fd5b505050506040513d601f19601f8201168201806040525081019062000143919062000754565b6001600160a01b0316633fc8cef36040518163ffffffff1660e01b815260040160206040518083038186803b1580156200017c57600080fd5b505afa15801562000191573d6000803e3d6000fd5b505050506040513d601f19601f82011682018060405250810190620001b7919062000754565b600480546001600160a01b0319166001600160a01b03928316178155604080516307a77c5360e11b81529051620002a193881692630f4ef8a692808201926020929091829003018186803b1580156200020f57600080fd5b505afa15801562000224573d6000803e3d6000fd5b505050506040513d601f19601f820116820180604052508101906200024a919062000754565b604080516080810182526000546001600160a01b039081168252600154811660208084019190915260025491821693830193909352600160a01b900460ff1615156060820152919062000444811b620008f917901c565b5050600580546001600160a01b0319166001600160a01b038781169190911763ffffffff60a01b1916600160a01b63ffffffff8816021790915560405163095ea7b360e01b8152908816925063095ea7b39150620003089086906000199060040162000773565b602060405180830381600087803b1580156200032357600080fd5b505af115801562000338573d6000803e3d6000fd5b505050506040513d601f19601f820116820180604052508101906200035e919062000730565b50505050505050620007d0565b80516001600160a01b031615620003e95780602001516001600160a01b031681600001516001600160a01b031614158015620003c1575080604001516001600160a01b031681600001516001600160a01b031614155b620003e95760405162461bcd60e51b8152600401620003e0906200078c565b60405180910390fd5b60208101516001600160a01b0316156200043a5780604001516001600160a01b031681602001516001600160a01b031614156200043a5760405162461bcd60e51b8152600401620003e0906200078c565b6001606090910152565b81516001600160a01b031615620004e257815160405163095ea7b360e01b81526001600160a01b039091169063095ea7b3906200048a9084906000199060040162000773565b602060405180830381600087803b158015620004a557600080fd5b505af1158015620004ba573d6000803e3d6000fd5b505050506040513d601f19601f82011682018060405250810190620004e0919062000730565b505b60208201516001600160a01b031615620005845781602001516001600160a01b031663095ea7b3826000196040518363ffffffff1660e01b81526004016200052c92919062000773565b602060405180830381600087803b1580156200054757600080fd5b505af11580156200055c573d6000803e3d6000fd5b505050506040513d601f19601f8201168201806040525081019062000582919062000730565b505b60408201516001600160a01b031615620006265781604001516001600160a01b031663095ea7b3826000196040518363ffffffff1660e01b8152600401620005ce92919062000773565b602060405180830381600087803b158015620005e957600080fd5b505af1158015620005fe573d6000803e3d6000fd5b505050506040513d601f19601f8201168201806040525081019062000624919062000730565b505b5050565b805180151581146200063b57600080fd5b919050565b6000806000806000808688036101208112156200065b578283fd5b87516200066881620007b7565b60208901519097506200067b81620007b7565b604089015160608a015191975095506200069581620007b7565b608089810151919550909350609f1982011215620006b1578182fd5b50604051608081016001600160401b0381118282101715620006cf57fe5b60405260a0880151620006e281620007b7565b815260c0880151620006f481620007b7565b602082015260e08801516200070981620007b7565b60408201526200071d61010089016200062a565b6060820152809150509295509295509295565b60006020828403121562000742578081fd5b6200074d826200062a565b9392505050565b60006020828403121562000766578081fd5b81516200074d81620007b7565b6001600160a01b03929092168252602082015260400190565b6020808252601190820152704455504c4943415445445f544f4b454e5360781b604082015260600190565b6001600160a01b0381168114620007cd57600080fd5b50565b60805160601c60a05160601c61113f6200080e6000398061020c52806104ad52806104fe5250806103ce52806104d15280610673525061113f6000f3fe6080604052600436106100a05760003560e01c8063c72e9d1d11610064578063c72e9d1d1461014e578063d02fba5114610173578063e184c9be14610193578063f0fc4ec1146101b5578063f1068454146101ca578063f7c618c1146101ec576100a7565b806303b7acaf146100ac5780636c6f4239146100ce57806376d5de85146100f957806391680e5f1461010e5780639cabec7b1461012e576100a7565b366100a757005b600080fd5b3480156100b857600080fd5b506100cc6100c7366004610e77565b610201565b005b3480156100da57600080fd5b506100e36104ab565b6040516100f09190610f5b565b60405180910390f35b34801561010557600080fd5b506100e36104cf565b34801561011a57600080fd5b506100cc610129366004610ead565b6104f3565b34801561013a57600080fd5b506100cc610149366004610f43565b6106a2565b34801561015a57600080fd5b50610163610714565b6040516100f09493929190610f6f565b34801561017f57600080fd5b506100cc61018e366004610e5d565b61073d565b34801561019f57600080fd5b506101a8610755565b6040516100f09190611059565b3480156101c157600080fd5b506100cc61075b565b3480156101d657600080fd5b506101df61081a565b6040516100f09190611062565b3480156101f857600080fd5b506100e361082d565b336001600160a01b037f000000000000000000000000000000000000000000000000000000000000000016146102525760405162461bcd60e51b815260040161024990610fe0565b60405180910390fd5b80156102ca57600554604051632989754760e11b81526001600160a01b03821691635312ea8e9161029391600160a01b900463ffffffff1690600401611062565b600060405180830381600087803b1580156102ad57600080fd5b505af11580156102c1573d6000803e3d6000fd5b505050506103b7565b6005546040516393f1a40b60e01b81526001600160a01b0382169163441a3e7091600160a01b90910463ffffffff169083906393f1a40b906103129084903090600401611073565b604080518083038186803b15801561032957600080fd5b505afa15801561033d573d6000803e3d6000fd5b505050506040513d601f19601f820116820180604052508101906103619190610efb565b516040516001600160e01b031960e085901b168152610384929190600401611092565b600060405180830381600087803b15801561039e57600080fd5b505af11580156103b2573d6000803e3d6000fd5b505050505b60405163095ea7b360e01b81526001600160a01b037f0000000000000000000000000000000000000000000000000000000000000000169063095ea7b39061040790859060001990600401610f99565b602060405180830381600087803b15801561042157600080fd5b505af1158015610435573d6000803e3d6000fd5b505050506040513d601f19601f820116820180604052508101906104599190610edf565b50604080516080810182526000546001600160a01b0390811682526001548116602083015260025490811692820192909252600160a01b90910460ff16151560608201526104a790836108f9565b5050565b7f000000000000000000000000000000000000000000000000000000000000000081565b7f000000000000000000000000000000000000000000000000000000000000000081565b336001600160a01b037f0000000000000000000000000000000000000000000000000000000000000000161461053b5760405162461bcd60e51b815260040161024990610fe0565b6005546040516393f1a40b60e01b81526000916001600160a01b038116916393f1a40b9161057c91600160a01b90910463ffffffff16903090600401611073565b604080518083038186803b15801561059357600080fd5b505afa1580156105a7573d6000803e3d6000fd5b505050506040513d601f19601f820116820180604052508101906105cb9190610efb565b519050816105d98285610ac9565b10156105f75760405162461bcd60e51b81526004016102499061102f565b600554604051630441a3e760e41b81526001600160a01b0382169163441a3e709161063491600160a01b900463ffffffff16908790600401611092565b600060405180830381600087803b15801561064e57600080fd5b505af1158015610662573d6000803e3d6000fd5b5061069c9250506001600160a01b037f00000000000000000000000000000000000000000000000000000000000000001690508585610b26565b50505050565b600554604051631c57762b60e31b81526001600160a01b0382169163e2bbb158916106df91600160a01b900463ffffffff16908590600401611092565b600060405180830381600087803b1580156106f957600080fd5b505af115801561070d573d6000803e3d6000fd5b5050505050565b6000546001546002546001600160a01b039283169291821691811690600160a01b900460ff1684565b60405162461bcd60e51b815260040161024990610fb2565b60035481565b600554604051630441a3e760e41b81526001600160a01b0382169163441a3e709161079991600160a01b900463ffffffff1690600090600401611092565b600060405180830381600087803b1580156107b357600080fd5b505af11580156107c7573d6000803e3d6000fd5b5050505047600014610818576004805460408051630d0e30db60e41b815290516001600160a01b039092169263d0e30db0924792808301926000929182900301818588803b1580156106f957600080fd5b565b600554600160a01b900463ffffffff1681565b600081565b80516001600160a01b0316156108a25780602001516001600160a01b031681600001516001600160a01b031614158015610886575080604001516001600160a01b031681600001516001600160a01b031614155b6108a25760405162461bcd60e51b815260040161024990611004565b60208101516001600160a01b0316156108ef5780604001516001600160a01b031681602001516001600160a01b031614156108ef5760405162461bcd60e51b815260040161024990611004565b6001606090910152565b81516001600160a01b03161561099057815160405163095ea7b360e01b81526001600160a01b039091169063095ea7b39061093c90849060001990600401610f99565b602060405180830381600087803b15801561095657600080fd5b505af115801561096a573d6000803e3d6000fd5b505050506040513d601f19601f8201168201806040525081019061098e9190610edf565b505b60208201516001600160a01b031615610a2b5781602001516001600160a01b031663095ea7b3826000196040518363ffffffff1660e01b81526004016109d7929190610f99565b602060405180830381600087803b1580156109f157600080fd5b505af1158015610a05573d6000803e3d6000fd5b505050506040513d601f19601f82011682018060405250810190610a299190610edf565b505b60408201516001600160a01b0316156104a75781604001516001600160a01b031663095ea7b3826000196040518363ffffffff1660e01b8152600401610a72929190610f99565b602060405180830381600087803b158015610a8c57600080fd5b505af1158015610aa0573d6000803e3d6000fd5b505050506040513d601f19601f82011682018060405250810190610ac49190610edf565b505050565b600082821115610b20576040805162461bcd60e51b815260206004820152601e60248201527f536166654d6174683a207375627472616374696f6e206f766572666c6f770000604482015290519081900360640190fd5b50900390565b604080516001600160a01b038416602482015260448082018490528251808303909101815260649091019091526020810180516001600160e01b031663a9059cbb60e01b179052610ac49084906000610bc8826040518060400160405280602081526020017f5361666545524332303a206c6f772d6c6576656c2063616c6c206661696c6564815250856001600160a01b0316610c249092919063ffffffff16565b805190915015610ac457808060200190516020811015610be757600080fd5b5051610ac45760405162461bcd60e51b815260040180806020018281038252602a8152602001806110e0602a913960400191505060405180910390fd5b6060610c338484600085610c3d565b90505b9392505050565b606082471015610c7e5760405162461bcd60e51b81526004018080602001828103825260268152602001806110ba6026913960400191505060405180910390fd5b610c8785610d98565b610cd8576040805162461bcd60e51b815260206004820152601d60248201527f416464726573733a2063616c6c20746f206e6f6e2d636f6e7472616374000000604482015290519081900360640190fd5b600080866001600160a01b031685876040518082805190602001908083835b60208310610d165780518252601f199092019160209182019101610cf7565b6001836020036101000a03801982511681845116808217855250505050505090500191505060006040518083038185875af1925050503d8060008114610d78576040519150601f19603f3d011682016040523d82523d6000602084013e610d7d565b606091505b5091509150610d8d828286610da2565b979650505050505050565b803b15155b919050565b60608315610db1575081610c36565b825115610dc15782518084602001fd5b8160405162461bcd60e51b81526004018080602001828103825283818151815260200191508051906020019080838360005b83811015610e0b578181015183820152602001610df3565b50505050905090810190601f168015610e385780820380516001836020036101000a031916815260200191505b509250505060405180910390fd5b80356001600160a01b0381168114610d9d57600080fd5b600060208284031215610e6e578081fd5b610c3682610e46565b60008060408385031215610e89578081fd5b610e9283610e46565b91506020830135610ea2816110a8565b809150509250929050565b600080600060608486031215610ec1578081fd5b610eca84610e46565b95602085013595506040909401359392505050565b600060208284031215610ef0578081fd5b8151610c36816110a8565b600060408284031215610f0c578081fd5b6040516040810181811067ffffffffffffffff82111715610f2957fe5b604052825181526020928301519281019290925250919050565b600060208284031215610f54578081fd5b5035919050565b6001600160a01b0391909116815260200190565b6001600160a01b039485168152928416602084015292166040820152901515606082015260800190565b6001600160a01b03929092168252602082015260400190565b60208082526014908201527311955390d51253d397d11154149150d25055115160621b604082015260600190565b6020808252600a90820152694f4e4c595f464f52474560b01b604082015260600190565b6020808252601190820152704455504c4943415445445f544f4b454e5360781b604082015260600190565b60208082526010908201526f24a72b20a924a0a721a2afa2a92927a960811b604082015260600190565b90815260200190565b63ffffffff91909116815260200190565b63ffffffff9290921682526001600160a01b0316602082015260400190565b63ffffffff929092168252602082015260400190565b80151581146110b657600080fd5b5056fe416464726573733a20696e73756666696369656e742062616c616e636520666f722063616c6c5361666545524332303a204552433230206f7065726174696f6e20646964206e6f742073756363656564a2646970667358221220a7996ce3c21686e933f316f1f31c472d662d63cebe680f93977d812f9b62251964736f6c63430007060033",
  "linkReferences": {},
  "deployedLinkReferences": {}
}