{
    "_format": "hh-sol-artifact-1",
    "contractName": "PendleWrapper",
    "sourceName": "contracts/proxies/PendleWrapper.sol",
    "abi": [
        {
            "inputs": [
                {
                    "components": [
                        {
                            "internalType": "contract IPendleRouter",
                            "name": "pendleRouter",
                            "type": "address"
                        },
                        {
                            "internalType": "contract IAaveV2LendingPool",
                            "name": "aaveLendingPool",
                            "type": "address"
                        },
                        {
                            "internalType": "contract IUniswapV2Router02",
                            "name": "uniRouter",
                            "type": "address"
                        },
                        {
                            "internalType": "contract IUniswapV2Router02",
                            "name": "sushiRouter",
                            "type": "address"
                        },
                        {
                            "internalType": "contract IDMMLiquidityRouter",
                            "name": "kyberRouter",
                            "type": "address"
                        },
                        {
                            "internalType": "contract IJoeBar",
                            "name": "joeBar",
                            "type": "address"
                        },
                        {
                            "internalType": "contract IWETH",
                            "name": "weth",
                            "type": "address"
                        },
                        {
                            "internalType": "bytes32",
                            "name": "codeHashUni",
                            "type": "bytes32"
                        },
                        {
                            "internalType": "bytes32",
                            "name": "codeHashSushi",
                            "type": "bytes32"
                        },
                        {
                            "internalType": "bool",
                            "name": "deployedOnAvax",
                            "type": "bool"
                        }
                    ],
                    "internalType": "struct ConstructorData",
                    "name": "_data",
                    "type": "tuple"
                }
            ],
            "stateMutability": "nonpayable",
            "type": "constructor"
        },
        {
            "anonymous": false,
            "inputs": [
                {
                    "indexed": true,
                    "internalType": "address",
                    "name": "sender",
                    "type": "address"
                },
                {
                    "indexed": false,
                    "internalType": "address",
                    "name": "token0",
                    "type": "address"
                },
                {
                    "indexed": false,
                    "internalType": "address",
                    "name": "token1",
                    "type": "address"
                },
                {
                    "indexed": false,
                    "internalType": "uint256",
                    "name": "token0Amount",
                    "type": "uint256"
                },
                {
                    "indexed": false,
                    "internalType": "uint256",
                    "name": "token1Amount",
                    "type": "uint256"
                },
                {
                    "indexed": false,
                    "internalType": "uint256",
                    "name": "exactOutLp",
                    "type": "uint256"
                }
            ],
            "name": "AddLiquidityOT",
            "type": "event"
        },
        {
            "anonymous": false,
            "inputs": [
                {
                    "indexed": true,
                    "internalType": "address",
                    "name": "sender",
                    "type": "address"
                },
                {
                    "indexed": false,
                    "internalType": "bytes32",
                    "name": "marketFactoryId",
                    "type": "bytes32"
                },
                {
                    "indexed": false,
                    "internalType": "address",
                    "name": "token0",
                    "type": "address"
                },
                {
                    "indexed": false,
                    "internalType": "address",
                    "name": "token1",
                    "type": "address"
                },
                {
                    "indexed": false,
                    "internalType": "uint256",
                    "name": "token0Amount",
                    "type": "uint256"
                },
                {
                    "indexed": false,
                    "internalType": "uint256",
                    "name": "token1Amount",
                    "type": "uint256"
                },
                {
                    "indexed": false,
                    "internalType": "uint256",
                    "name": "exactOutLp",
                    "type": "uint256"
                }
            ],
            "name": "AddLiquidityYT",
            "type": "event"
        },
        {
            "anonymous": false,
            "inputs": [
                {
                    "indexed": false,
                    "internalType": "bytes32",
                    "name": "forgeId",
                    "type": "bytes32"
                },
                {
                    "indexed": true,
                    "internalType": "address",
                    "name": "underlyingAsset",
                    "type": "address"
                },
                {
                    "indexed": true,
                    "internalType": "uint256",
                    "name": "expiry",
                    "type": "uint256"
                },
                {
                    "indexed": false,
                    "internalType": "uint256",
                    "name": "amountToTokenize",
                    "type": "uint256"
                },
                {
                    "indexed": false,
                    "internalType": "uint256",
                    "name": "amountTokenMinted",
                    "type": "uint256"
                },
                {
                    "indexed": true,
                    "internalType": "address",
                    "name": "user",
                    "type": "address"
                }
            ],
            "name": "MintYieldTokens",
            "type": "event"
        },
        {
            "anonymous": false,
            "inputs": [
                {
                    "indexed": true,
                    "internalType": "address",
                    "name": "user",
                    "type": "address"
                },
                {
                    "indexed": false,
                    "internalType": "address",
                    "name": "token0",
                    "type": "address"
                },
                {
                    "indexed": false,
                    "internalType": "address",
                    "name": "token1",
                    "type": "address"
                },
                {
                    "indexed": false,
                    "internalType": "address",
                    "name": "lpToken",
                    "type": "address"
                },
                {
                    "indexed": false,
                    "internalType": "uint256",
                    "name": "amountIn0",
                    "type": "uint256"
                },
                {
                    "indexed": false,
                    "internalType": "uint256",
                    "name": "amountIn1",
                    "type": "uint256"
                },
                {
                    "indexed": false,
                    "internalType": "uint256",
                    "name": "lpOut",
                    "type": "uint256"
                }
            ],
            "name": "RawTokenToYTokenDouble",
            "type": "event"
        },
        {
            "anonymous": false,
            "inputs": [
                {
                    "indexed": true,
                    "internalType": "address",
                    "name": "user",
                    "type": "address"
                },
                {
                    "indexed": false,
                    "internalType": "address",
                    "name": "rawAsset",
                    "type": "address"
                },
                {
                    "indexed": false,
                    "internalType": "address",
                    "name": "yieldBearingToken",
                    "type": "address"
                },
                {
                    "indexed": false,
                    "internalType": "uint256",
                    "name": "amountIn",
                    "type": "uint256"
                },
                {
                    "indexed": false,
                    "internalType": "uint256",
                    "name": "amountOut",
                    "type": "uint256"
                }
            ],
            "name": "RawTokenToYTokenSingle",
            "type": "event"
        },
        {
            "anonymous": false,
            "inputs": [
                {
                    "indexed": false,
                    "internalType": "address",
                    "name": "user",
                    "type": "address"
                },
                {
                    "indexed": false,
                    "internalType": "address",
                    "name": "inToken",
                    "type": "address"
                },
                {
                    "indexed": false,
                    "internalType": "address",
                    "name": "outToken",
                    "type": "address"
                },
                {
                    "indexed": false,
                    "internalType": "uint256",
                    "name": "inAmount",
                    "type": "uint256"
                },
                {
                    "indexed": false,
                    "internalType": "uint256",
                    "name": "outAmount",
                    "type": "uint256"
                }
            ],
            "name": "SwapEventYT",
            "type": "event"
        },
        {
            "inputs": [],
            "name": "ETH_ADDRESS",
            "outputs": [
                {
                    "internalType": "address",
                    "name": "",
                    "type": "address"
                }
            ],
            "stateMutability": "view",
            "type": "function"
        },
        {
            "inputs": [],
            "name": "aaveLendingPool",
            "outputs": [
                {
                    "internalType": "contract IAaveV2LendingPool",
                    "name": "",
                    "type": "address"
                }
            ],
            "stateMutability": "view",
            "type": "function"
        },
        {
            "inputs": [],
            "name": "codeHashSushi",
            "outputs": [
                {
                    "internalType": "bytes32",
                    "name": "",
                    "type": "bytes32"
                }
            ],
            "stateMutability": "view",
            "type": "function"
        },
        {
            "inputs": [],
            "name": "codeHashUni",
            "outputs": [
                {
                    "internalType": "bytes32",
                    "name": "",
                    "type": "bytes32"
                }
            ],
            "stateMutability": "view",
            "type": "function"
        },
        {
            "inputs": [],
            "name": "deployedOnAvax",
            "outputs": [
                {
                    "internalType": "bool",
                    "name": "",
                    "type": "bool"
                }
            ],
            "stateMutability": "view",
            "type": "function"
        },
        {
            "inputs": [
                {
                    "components": [
                        {
                            "internalType": "address",
                            "name": "token",
                            "type": "address"
                        },
                        {
                            "internalType": "address",
                            "name": "to",
                            "type": "address"
                        }
                    ],
                    "internalType": "struct Approval[]",
                    "name": "approvals",
                    "type": "tuple[]"
                }
            ],
            "name": "infinityApprove",
            "outputs": [],
            "stateMutability": "nonpayable",
            "type": "function"
        },
        {
            "inputs": [
                {
                    "internalType": "enum Mode",
                    "name": "mode",
                    "type": "uint8"
                },
                {
                    "components": [
                        {
                            "components": [
                                {
                                    "internalType": "address",
                                    "name": "token",
                                    "type": "address"
                                },
                                {
                                    "internalType": "uint256",
                                    "name": "amount",
                                    "type": "uint256"
                                }
                            ],
                            "internalType": "struct DataTknzSingle",
                            "name": "single",
                            "type": "tuple"
                        },
                        {
                            "components": [
                                {
                                    "internalType": "address",
                                    "name": "tokenA",
                                    "type": "address"
                                },
                                {
                                    "internalType": "address",
                                    "name": "tokenB",
                                    "type": "address"
                                },
                                {
                                    "internalType": "uint256",
                                    "name": "amountADesired",
                                    "type": "uint256"
                                },
                                {
                                    "internalType": "uint256",
                                    "name": "amountBDesired",
                                    "type": "uint256"
                                },
                                {
                                    "internalType": "uint256",
                                    "name": "amountAMin",
                                    "type": "uint256"
                                },
                                {
                                    "internalType": "uint256",
                                    "name": "amountBMin",
                                    "type": "uint256"
                                },
                                {
                                    "internalType": "uint256",
                                    "name": "deadline",
                                    "type": "uint256"
                                },
                                {
                                    "internalType": "address",
                                    "name": "kyberPool",
                                    "type": "address"
                                },
                                {
                                    "internalType": "uint256[2]",
                                    "name": "kybervReserveRatioBounds",
                                    "type": "uint256[2]"
                                }
                            ],
                            "internalType": "struct DataAddLiqUniFork",
                            "name": "double",
                            "type": "tuple"
                        },
                        {
                            "internalType": "address",
                            "name": "forge",
                            "type": "address"
                        },
                        {
                            "internalType": "uint256",
                            "name": "expiryYT",
                            "type": "uint256"
                        }
                    ],
                    "internalType": "struct DataTknz",
                    "name": "dataTknz",
                    "type": "tuple"
                },
                {
                    "components": [
                        {
                            "internalType": "address",
                            "name": "baseToken",
                            "type": "address"
                        },
                        {
                            "internalType": "uint256",
                            "name": "amountTokenDesired",
                            "type": "uint256"
                        },
                        {
                            "internalType": "uint256",
                            "name": "amountTokenMin",
                            "type": "uint256"
                        },
                        {
                            "internalType": "uint256",
                            "name": "deadline",
                            "type": "uint256"
                        },
                        {
                            "internalType": "address",
                            "name": "liqMiningAddr",
                            "type": "address"
                        }
                    ],
                    "internalType": "struct DataAddLiqOT",
                    "name": "dataAddOT",
                    "type": "tuple"
                }
            ],
            "name": "insAddDualLiqForOT",
            "outputs": [
                {
                    "components": [
                        {
                            "internalType": "address",
                            "name": "OT",
                            "type": "address"
                        },
                        {
                            "internalType": "address",
                            "name": "YT",
                            "type": "address"
                        },
                        {
                            "internalType": "uint256",
                            "name": "amountYO",
                            "type": "uint256"
                        }
                    ],
                    "internalType": "struct DataYO",
                    "name": "dataYO",
                    "type": "tuple"
                },
                {
                    "internalType": "uint256",
                    "name": "lpOutOT",
                    "type": "uint256"
                },
                {
                    "internalType": "uint256",
                    "name": "amountBaseTokenUsedOT",
                    "type": "uint256"
                }
            ],
            "stateMutability": "payable",
            "type": "function"
        },
        {
            "inputs": [
                {
                    "internalType": "enum Mode",
                    "name": "mode",
                    "type": "uint8"
                },
                {
                    "components": [
                        {
                            "components": [
                                {
                                    "internalType": "address",
                                    "name": "token",
                                    "type": "address"
                                },
                                {
                                    "internalType": "uint256",
                                    "name": "amount",
                                    "type": "uint256"
                                }
                            ],
                            "internalType": "struct DataTknzSingle",
                            "name": "single",
                            "type": "tuple"
                        },
                        {
                            "components": [
                                {
                                    "internalType": "address",
                                    "name": "tokenA",
                                    "type": "address"
                                },
                                {
                                    "internalType": "address",
                                    "name": "tokenB",
                                    "type": "address"
                                },
                                {
                                    "internalType": "uint256",
                                    "name": "amountADesired",
                                    "type": "uint256"
                                },
                                {
                                    "internalType": "uint256",
                                    "name": "amountBDesired",
                                    "type": "uint256"
                                },
                                {
                                    "internalType": "uint256",
                                    "name": "amountAMin",
                                    "type": "uint256"
                                },
                                {
                                    "internalType": "uint256",
                                    "name": "amountBMin",
                                    "type": "uint256"
                                },
                                {
                                    "internalType": "uint256",
                                    "name": "deadline",
                                    "type": "uint256"
                                },
                                {
                                    "internalType": "address",
                                    "name": "kyberPool",
                                    "type": "address"
                                },
                                {
                                    "internalType": "uint256[2]",
                                    "name": "kybervReserveRatioBounds",
                                    "type": "uint256[2]"
                                }
                            ],
                            "internalType": "struct DataAddLiqUniFork",
                            "name": "double",
                            "type": "tuple"
                        },
                        {
                            "internalType": "address",
                            "name": "forge",
                            "type": "address"
                        },
                        {
                            "internalType": "uint256",
                            "name": "expiryYT",
                            "type": "uint256"
                        }
                    ],
                    "internalType": "struct DataTknz",
                    "name": "dataTknz",
                    "type": "tuple"
                },
                {
                    "components": [
                        {
                            "internalType": "address",
                            "name": "baseToken",
                            "type": "address"
                        },
                        {
                            "internalType": "uint256",
                            "name": "amountTokenDesired",
                            "type": "uint256"
                        },
                        {
                            "internalType": "uint256",
                            "name": "amountTokenMin",
                            "type": "uint256"
                        },
                        {
                            "internalType": "uint256",
                            "name": "deadline",
                            "type": "uint256"
                        },
                        {
                            "internalType": "address",
                            "name": "liqMiningAddr",
                            "type": "address"
                        }
                    ],
                    "internalType": "struct DataAddLiqOT",
                    "name": "dataAddOT",
                    "type": "tuple"
                },
                {
                    "components": [
                        {
                            "internalType": "address",
                            "name": "baseToken",
                            "type": "address"
                        },
                        {
                            "internalType": "uint256",
                            "name": "amountTokenDesired",
                            "type": "uint256"
                        },
                        {
                            "internalType": "uint256",
                            "name": "amountTokenMin",
                            "type": "uint256"
                        },
                        {
                            "internalType": "bytes32",
                            "name": "marketFactoryId",
                            "type": "bytes32"
                        },
                        {
                            "internalType": "address",
                            "name": "liqMiningAddr",
                            "type": "address"
                        }
                    ],
                    "internalType": "struct DataAddLiqYT",
                    "name": "dataAddYT",
                    "type": "tuple"
                }
            ],
            "name": "insAddDualLiqForOTandYT",
            "outputs": [
                {
                    "components": [
                        {
                            "internalType": "address",
                            "name": "OT",
                            "type": "address"
                        },
                        {
                            "internalType": "address",
                            "name": "YT",
                            "type": "address"
                        },
                        {
                            "internalType": "uint256",
                            "name": "amountYO",
                            "type": "uint256"
                        }
                    ],
                    "internalType": "struct DataYO",
                    "name": "dataYO",
                    "type": "tuple"
                },
                {
                    "internalType": "uint256",
                    "name": "lpOutOT",
                    "type": "uint256"
                },
                {
                    "internalType": "uint256",
                    "name": "amountBaseTokenUsedOT",
                    "type": "uint256"
                },
                {
                    "internalType": "uint256",
                    "name": "lpOutYT",
                    "type": "uint256"
                },
                {
                    "internalType": "uint256",
                    "name": "amountBaseTokenUsedYT",
                    "type": "uint256"
                }
            ],
            "stateMutability": "payable",
            "type": "function"
        },
        {
            "inputs": [
                {
                    "internalType": "enum Mode",
                    "name": "mode",
                    "type": "uint8"
                },
                {
                    "components": [
                        {
                            "components": [
                                {
                                    "internalType": "address",
                                    "name": "token",
                                    "type": "address"
                                },
                                {
                                    "internalType": "uint256",
                                    "name": "amount",
                                    "type": "uint256"
                                }
                            ],
                            "internalType": "struct DataTknzSingle",
                            "name": "single",
                            "type": "tuple"
                        },
                        {
                            "components": [
                                {
                                    "internalType": "address",
                                    "name": "tokenA",
                                    "type": "address"
                                },
                                {
                                    "internalType": "address",
                                    "name": "tokenB",
                                    "type": "address"
                                },
                                {
                                    "internalType": "uint256",
                                    "name": "amountADesired",
                                    "type": "uint256"
                                },
                                {
                                    "internalType": "uint256",
                                    "name": "amountBDesired",
                                    "type": "uint256"
                                },
                                {
                                    "internalType": "uint256",
                                    "name": "amountAMin",
                                    "type": "uint256"
                                },
                                {
                                    "internalType": "uint256",
                                    "name": "amountBMin",
                                    "type": "uint256"
                                },
                                {
                                    "internalType": "uint256",
                                    "name": "deadline",
                                    "type": "uint256"
                                },
                                {
                                    "internalType": "address",
                                    "name": "kyberPool",
                                    "type": "address"
                                },
                                {
                                    "internalType": "uint256[2]",
                                    "name": "kybervReserveRatioBounds",
                                    "type": "uint256[2]"
                                }
                            ],
                            "internalType": "struct DataAddLiqUniFork",
                            "name": "double",
                            "type": "tuple"
                        },
                        {
                            "internalType": "address",
                            "name": "forge",
                            "type": "address"
                        },
                        {
                            "internalType": "uint256",
                            "name": "expiryYT",
                            "type": "uint256"
                        }
                    ],
                    "internalType": "struct DataTknz",
                    "name": "dataTknz",
                    "type": "tuple"
                },
                {
                    "components": [
                        {
                            "internalType": "address",
                            "name": "baseToken",
                            "type": "address"
                        },
                        {
                            "internalType": "uint256",
                            "name": "amountTokenDesired",
                            "type": "uint256"
                        },
                        {
                            "internalType": "uint256",
                            "name": "amountTokenMin",
                            "type": "uint256"
                        },
                        {
                            "internalType": "bytes32",
                            "name": "marketFactoryId",
                            "type": "bytes32"
                        },
                        {
                            "internalType": "address",
                            "name": "liqMiningAddr",
                            "type": "address"
                        }
                    ],
                    "internalType": "struct DataAddLiqYT",
                    "name": "dataAddYT",
                    "type": "tuple"
                }
            ],
            "name": "insAddDualLiqForYT",
            "outputs": [
                {
                    "components": [
                        {
                            "internalType": "address",
                            "name": "OT",
                            "type": "address"
                        },
                        {
                            "internalType": "address",
                            "name": "YT",
                            "type": "address"
                        },
                        {
                            "internalType": "uint256",
                            "name": "amountYO",
                            "type": "uint256"
                        }
                    ],
                    "internalType": "struct DataYO",
                    "name": "dataYO",
                    "type": "tuple"
                },
                {
                    "internalType": "uint256",
                    "name": "lpOut",
                    "type": "uint256"
                },
                {
                    "internalType": "uint256",
                    "name": "amountBaseTokenUsed",
                    "type": "uint256"
                }
            ],
            "stateMutability": "payable",
            "type": "function"
        },
        {
            "inputs": [
                {
                    "internalType": "enum Mode",
                    "name": "mode",
                    "type": "uint8"
                },
                {
                    "components": [
                        {
                            "components": [
                                {
                                    "internalType": "address",
                                    "name": "token",
                                    "type": "address"
                                },
                                {
                                    "internalType": "uint256",
                                    "name": "amount",
                                    "type": "uint256"
                                }
                            ],
                            "internalType": "struct DataTknzSingle",
                            "name": "single",
                            "type": "tuple"
                        },
                        {
                            "components": [
                                {
                                    "internalType": "address",
                                    "name": "tokenA",
                                    "type": "address"
                                },
                                {
                                    "internalType": "address",
                                    "name": "tokenB",
                                    "type": "address"
                                },
                                {
                                    "internalType": "uint256",
                                    "name": "amountADesired",
                                    "type": "uint256"
                                },
                                {
                                    "internalType": "uint256",
                                    "name": "amountBDesired",
                                    "type": "uint256"
                                },
                                {
                                    "internalType": "uint256",
                                    "name": "amountAMin",
                                    "type": "uint256"
                                },
                                {
                                    "internalType": "uint256",
                                    "name": "amountBMin",
                                    "type": "uint256"
                                },
                                {
                                    "internalType": "uint256",
                                    "name": "deadline",
                                    "type": "uint256"
                                },
                                {
                                    "internalType": "address",
                                    "name": "kyberPool",
                                    "type": "address"
                                },
                                {
                                    "internalType": "uint256[2]",
                                    "name": "kybervReserveRatioBounds",
                                    "type": "uint256[2]"
                                }
                            ],
                            "internalType": "struct DataAddLiqUniFork",
                            "name": "double",
                            "type": "tuple"
                        },
                        {
                            "internalType": "address",
                            "name": "forge",
                            "type": "address"
                        },
                        {
                            "internalType": "uint256",
                            "name": "expiryYT",
                            "type": "uint256"
                        }
                    ],
                    "internalType": "struct DataTknz",
                    "name": "dataTknz",
                    "type": "tuple"
                },
                {
                    "internalType": "bytes32",
                    "name": "marketFactoryId",
                    "type": "bytes32"
                },
                {
                    "internalType": "address",
                    "name": "baseToken",
                    "type": "address"
                },
                {
                    "internalType": "uint256",
                    "name": "minOutLp",
                    "type": "uint256"
                },
                {
                    "internalType": "address",
                    "name": "liqMiningAddr",
                    "type": "address"
                }
            ],
            "name": "insAddSingleLiq",
            "outputs": [
                {
                    "components": [
                        {
                            "internalType": "address",
                            "name": "OT",
                            "type": "address"
                        },
                        {
                            "internalType": "address",
                            "name": "YT",
                            "type": "address"
                        },
                        {
                            "internalType": "uint256",
                            "name": "amountYO",
                            "type": "uint256"
                        }
                    ],
                    "internalType": "struct DataYO",
                    "name": "dataYO",
                    "type": "tuple"
                },
                {
                    "internalType": "uint256",
                    "name": "lpOut",
                    "type": "uint256"
                }
            ],
            "stateMutability": "payable",
            "type": "function"
        },
        {
            "inputs": [
                {
                    "internalType": "enum Mode",
                    "name": "mode",
                    "type": "uint8"
                },
                {
                    "components": [
                        {
                            "components": [
                                {
                                    "internalType": "address",
                                    "name": "token",
                                    "type": "address"
                                },
                                {
                                    "internalType": "uint256",
                                    "name": "amount",
                                    "type": "uint256"
                                }
                            ],
                            "internalType": "struct DataTknzSingle",
                            "name": "single",
                            "type": "tuple"
                        },
                        {
                            "components": [
                                {
                                    "internalType": "address",
                                    "name": "tokenA",
                                    "type": "address"
                                },
                                {
                                    "internalType": "address",
                                    "name": "tokenB",
                                    "type": "address"
                                },
                                {
                                    "internalType": "uint256",
                                    "name": "amountADesired",
                                    "type": "uint256"
                                },
                                {
                                    "internalType": "uint256",
                                    "name": "amountBDesired",
                                    "type": "uint256"
                                },
                                {
                                    "internalType": "uint256",
                                    "name": "amountAMin",
                                    "type": "uint256"
                                },
                                {
                                    "internalType": "uint256",
                                    "name": "amountBMin",
                                    "type": "uint256"
                                },
                                {
                                    "internalType": "uint256",
                                    "name": "deadline",
                                    "type": "uint256"
                                },
                                {
                                    "internalType": "address",
                                    "name": "kyberPool",
                                    "type": "address"
                                },
                                {
                                    "internalType": "uint256[2]",
                                    "name": "kybervReserveRatioBounds",
                                    "type": "uint256[2]"
                                }
                            ],
                            "internalType": "struct DataAddLiqUniFork",
                            "name": "double",
                            "type": "tuple"
                        },
                        {
                            "internalType": "address",
                            "name": "forge",
                            "type": "address"
                        },
                        {
                            "internalType": "uint256",
                            "name": "expiryYT",
                            "type": "uint256"
                        }
                    ],
                    "internalType": "struct DataTknz",
                    "name": "dataTknz",
                    "type": "tuple"
                },
                {
                    "internalType": "bytes32",
                    "name": "marketFactoryId",
                    "type": "bytes32"
                },
                {
                    "internalType": "address",
                    "name": "baseToken",
                    "type": "address"
                },
                {
                    "internalType": "uint256",
                    "name": "minOutBaseTokenAmount",
                    "type": "uint256"
                }
            ],
            "name": "insRealizeFutureYield",
            "outputs": [
                {
                    "components": [
                        {
                            "internalType": "address",
                            "name": "OT",
                            "type": "address"
                        },
                        {
                            "internalType": "address",
                            "name": "YT",
                            "type": "address"
                        },
                        {
                            "internalType": "uint256",
                            "name": "amountYO",
                            "type": "uint256"
                        }
                    ],
                    "internalType": "struct DataYO",
                    "name": "dataYO",
                    "type": "tuple"
                },
                {
                    "internalType": "uint256",
                    "name": "amountBaseTokenOut",
                    "type": "uint256"
                }
            ],
            "stateMutability": "payable",
            "type": "function"
        },
        {
            "inputs": [
                {
                    "internalType": "enum Mode",
                    "name": "mode",
                    "type": "uint8"
                },
                {
                    "components": [
                        {
                            "components": [
                                {
                                    "internalType": "address",
                                    "name": "token",
                                    "type": "address"
                                },
                                {
                                    "internalType": "uint256",
                                    "name": "amount",
                                    "type": "uint256"
                                }
                            ],
                            "internalType": "struct DataTknzSingle",
                            "name": "single",
                            "type": "tuple"
                        },
                        {
                            "components": [
                                {
                                    "internalType": "address",
                                    "name": "tokenA",
                                    "type": "address"
                                },
                                {
                                    "internalType": "address",
                                    "name": "tokenB",
                                    "type": "address"
                                },
                                {
                                    "internalType": "uint256",
                                    "name": "amountADesired",
                                    "type": "uint256"
                                },
                                {
                                    "internalType": "uint256",
                                    "name": "amountBDesired",
                                    "type": "uint256"
                                },
                                {
                                    "internalType": "uint256",
                                    "name": "amountAMin",
                                    "type": "uint256"
                                },
                                {
                                    "internalType": "uint256",
                                    "name": "amountBMin",
                                    "type": "uint256"
                                },
                                {
                                    "internalType": "uint256",
                                    "name": "deadline",
                                    "type": "uint256"
                                },
                                {
                                    "internalType": "address",
                                    "name": "kyberPool",
                                    "type": "address"
                                },
                                {
                                    "internalType": "uint256[2]",
                                    "name": "kybervReserveRatioBounds",
                                    "type": "uint256[2]"
                                }
                            ],
                            "internalType": "struct DataAddLiqUniFork",
                            "name": "double",
                            "type": "tuple"
                        },
                        {
                            "internalType": "address",
                            "name": "forge",
                            "type": "address"
                        },
                        {
                            "internalType": "uint256",
                            "name": "expiryYT",
                            "type": "uint256"
                        }
                    ],
                    "internalType": "struct DataTknz",
                    "name": "dataTknz",
                    "type": "tuple"
                }
            ],
            "name": "insTokenize",
            "outputs": [
                {
                    "components": [
                        {
                            "internalType": "address",
                            "name": "OT",
                            "type": "address"
                        },
                        {
                            "internalType": "address",
                            "name": "YT",
                            "type": "address"
                        },
                        {
                            "internalType": "uint256",
                            "name": "amountYO",
                            "type": "uint256"
                        }
                    ],
                    "internalType": "struct DataYO",
                    "name": "dataYO",
                    "type": "tuple"
                }
            ],
            "stateMutability": "payable",
            "type": "function"
        },
        {
            "inputs": [],
            "name": "joeBar",
            "outputs": [
                {
                    "internalType": "contract IJoeBar",
                    "name": "",
                    "type": "address"
                }
            ],
            "stateMutability": "view",
            "type": "function"
        },
        {
            "inputs": [],
            "name": "kyberRouter",
            "outputs": [
                {
                    "internalType": "contract IDMMLiquidityRouter",
                    "name": "",
                    "type": "address"
                }
            ],
            "stateMutability": "view",
            "type": "function"
        },
        {
            "inputs": [],
            "name": "pendleData",
            "outputs": [
                {
                    "internalType": "contract IPendleData",
                    "name": "",
                    "type": "address"
                }
            ],
            "stateMutability": "view",
            "type": "function"
        },
        {
            "inputs": [],
            "name": "pendleRouter",
            "outputs": [
                {
                    "internalType": "contract IPendleRouter",
                    "name": "",
                    "type": "address"
                }
            ],
            "stateMutability": "view",
            "type": "function"
        },
        {
            "inputs": [],
            "name": "sushiRouter",
            "outputs": [
                {
                    "internalType": "contract IUniswapV2Router02",
                    "name": "",
                    "type": "address"
                }
            ],
            "stateMutability": "view",
            "type": "function"
        },
        {
            "inputs": [],
            "name": "uniRouter",
            "outputs": [
                {
                    "internalType": "contract IUniswapV2Router02",
                    "name": "",
                    "type": "address"
                }
            ],
            "stateMutability": "view",
            "type": "function"
        },
        {
            "inputs": [],
            "name": "weth",
            "outputs": [
                {
                    "internalType": "contract IWETH",
                    "name": "",
                    "type": "address"
                }
            ],
            "stateMutability": "view",
            "type": "function"
        },
        {
            "stateMutability": "payable",
            "type": "receive"
        }
    ],
    "bytecode": "0x6101e06040523480156200001257600080fd5b506040516200392f3803806200392f8339810160408190526200003591620001a9565b600160008190555080600001516001600160a01b03166101a0816001600160a01b031660601b8152505080600001516001600160a01b03166373d4a13a6040518163ffffffff1660e01b815260040160206040518083038186803b1580156200009d57600080fd5b505afa158015620000b2573d6000803e3d6000fd5b505050506040513d601f19601f82011682018060405250810190620000d8919062000183565b6001600160601b0319606091821b81166101c0526020830151821b811660c09081526040840151831b821660e090815284840151841b831661010090815260a080870151861b851661014052608080880151871b86166101209081529488015190961b90941661016052908501519093529183015190520151151560f81b61018052620002b7565b805180151581146200017157600080fd5b919050565b805162000171816200029e565b60006020828403121562000195578081fd5b8151620001a2816200029e565b9392505050565b6000610140808385031215620001bd578182fd5b620001c8816200027a565b9050620001d58362000176565b8152620001e56020840162000176565b6020820152620001f86040840162000176565b60408201526200020b6060840162000176565b60608201526200021e6080840162000176565b60808201526200023160a0840162000176565b60a08201526200024460c0840162000176565b60c082015260e083015160e08201526101008084015181830152506101206200026f81850162000160565b908201529392505050565b6040518181016001600160401b03811182821017156200029657fe5b604052919050565b6001600160a01b0381168114620002b457600080fd5b50565b60805160a05160c05160601c60e05160601c6101005160601c6101205160601c6101405160601c6101605160601c6101805160f81c6101a05160601c6101c05160601c613578620003b7600039806103eb5280610e525250806104335280610b895280610cd952806111eb52806114c652508061096152806119cd5250806105755280610e9652806122c352806122f852508061040f528061201b528061208b52806120ea5250806109a952806124fc52806125d752508061069d528061195352806121e1525080610836528061197952806122075250806109855280611d9d52508061093d528061232d525080610551528061235352506135786000f3fe6080604052600436106101175760003560e01c80636d13582c116100a0578063cbe2745e11610064578063cbe2745e146102aa578063d7ec767b146102bd578063e712476e146102d2578063e9d337b8146102f4578063f63ca6e4146103095761011e565b80636d13582c1461023657806370708d161461024b57806383cf148a1461026d578063a0e47bf614610280578063a734f06e146102955761011e565b806334bdfd24116100e757806334bdfd24146101995780633e1ea49b146101bd5780633fc8cef3146101df5780634f213dfe146101f4578063678fb541146102145761011e565b80625f875f146101235780630a99b3a11461014d5780631ce3525a1461016f578063206aeab3146101845761011e565b3661011e57005b600080fd5b610136610131366004612db8565b61031e565b604051610144929190613407565b60405180910390f35b34801561015957600080fd5b506101626103e9565b604051610144919061300b565b34801561017b57600080fd5b5061016261040d565b34801561019057600080fd5b50610162610431565b6101ac6101a7366004612e6f565b610455565b604051610144959493929190613441565b3480156101c957600080fd5b506101d261054f565b60405161014491906131dc565b3480156101eb57600080fd5b50610162610573565b610207610202366004612d29565b610597565b60405161014491906133f9565b34801561022057600080fd5b5061023461022f366004612ca1565b610627565b005b34801561024257600080fd5b5061016261069b565b61025e610259366004612e29565b6106bf565b60405161014493929190613422565b61013661027b366004612d5d565b61077a565b34801561028c57600080fd5b50610162610834565b3480156102a157600080fd5b50610162610858565b61025e6102b8366004612e29565b610870565b3480156102c957600080fd5b506101d261093b565b3480156102de57600080fd5b506102e761095f565b60405161014491906131d1565b34801561030057600080fd5b50610162610983565b34801561031557600080fd5b506101626109a7565b610326612a5c565b60006002600054141561036e576040805162461bcd60e51b815260206004820152601f60248201526000805160206134ae833981519152604482015290519081900360640190fd5b600260005561037b612a7c565b61038581896109cb565b61038e81610a26565b61039989308a610ab9565b92506103a58184610c89565b6103b28388888888610caf565b91506103cd6103c688888660200151610e4e565b8290610f2e565b6103d681610f3a565b5060016000559097909650945050505050565b7f000000000000000000000000000000000000000000000000000000000000000081565b7f000000000000000000000000000000000000000000000000000000000000000081565b7f000000000000000000000000000000000000000000000000000000000000000081565b61045d612a5c565b600080600080600260005414156104a9576040805162461bcd60e51b815260206004820152601f60248201526000805160206134ae833981519152604482015290519081900360640190fd5b60026000556104b6612a7c565b6104c0818a6109cb565b6104ca818961105a565b6104d4818861105a565b6104dd81610a26565b6104e88a308b610ab9565b95506104f48187610c89565b6104fe8689611075565b9550935061050c86886111c2565b935091506105326103c6606089013561052860208b018b612c27565b8960200151610e4e565b61053b81610f3a565b506001600081905550945094509450945094565b7f000000000000000000000000000000000000000000000000000000000000000081565b7f000000000000000000000000000000000000000000000000000000000000000081565b61059f612a5c565b600260005414156105e5576040805162461bcd60e51b815260206004820152601f60248201526000805160206134ae833981519152604482015290519081900360640190fd5b60026000556105f2612a7c565b6105fc81846109cb565b61060581610a26565b610610843385610ab9565b915061061b81610f3a565b50600160005592915050565b60005b818110156106965761068e83838381811061064157fe5b90506040020160200160208101906106599190612c27565b60001985858581811061066857fe5b61067e9260206040909202019081019150612c27565b6001600160a01b0316919061139a565b60010161062a565b505050565b7f000000000000000000000000000000000000000000000000000000000000000081565b6106c7612a5c565b60008060026000541415610710576040805162461bcd60e51b815260206004820152601f60248201526000805160206134ae833981519152604482015290519081900360640190fd5b600260005561071d612a7c565b61072781876109cb565b610731818661105a565b61073a81610a26565b610745873088610ab9565b93506107518185610c89565b61075b8486611075565b9350915061076881610f3a565b50600160008190555093509350939050565b610782612a5c565b6000600260005414156107ca576040805162461bcd60e51b815260206004820152601f60248201526000805160206134ae833981519152604482015290519081900360640190fd5b60026000556107d7612a7c565b6107e181886109cb565b6107ea81610a26565b6107f5883089610ab9565b92506108018184610c89565b61080d838787876114a2565b91506108198186610f2e565b61082281610f3a565b50600160005590969095509350505050565b7f000000000000000000000000000000000000000000000000000000000000000081565b73eeeeeeeeeeeeeeeeeeeeeeeeeeeeeeeeeeeeeeee81565b610878612a5c565b600080600260005414156108c1576040805162461bcd60e51b815260206004820152601f60248201526000805160206134ae833981519152604482015290519081900360640190fd5b60026000556108ce612a7c565b6108d881876109cb565b6108e2818661105a565b6108eb81610a26565b6108f6873088610ab9565b93506109028185610c89565b61090c84866111c2565b935091506109326103c660608701356109286020890189612c27565b8760200151610e4e565b61076881610f3a565b7f000000000000000000000000000000000000000000000000000000000000000081565b7f000000000000000000000000000000000000000000000000000000000000000081565b7f000000000000000000000000000000000000000000000000000000000000000081565b7f000000000000000000000000000000000000000000000000000000000000000081565b6109e6826109dc6020840184612c27565b60208401356115a3565b610a04826109fa6060840160408501612c27565b60808401356115a3565b610a2282610a186080840160608501612c27565b60a08401356115a3565b5050565b60005b6007811015610a2257818160078110610a3e57fe5b60200201516020015160001480610a6a5750610a6a828260078110610a5f57fe5b60200201515161168c565b15610a7457610ab1565b610ab13330848460078110610a8557fe5b602002015160200151858560078110610a9a57fe5b6020020151516001600160a01b03169291906116b2565b600101610a29565b610ac1612a5c565b6000610acd85846116cd565b90506000610ae36101a085016101808601612c27565b6001600160a01b031663beb9a9736040518163ffffffff1660e01b815260040160206040518083038186803b158015610b1b57600080fd5b505afa158015610b2f573d6000803e3d6000fd5b505050506040513d601f19601f82011682018060405250810190610b539190612d11565b90506000610b6f87610b6a36889003880188612ee4565b611753565b604051630bd7389760e41b81529091506001600160a01b037f0000000000000000000000000000000000000000000000000000000000000000169063bd73897090610bcb90859085906101a08b01359089908d906004016132aa565b606060405180830381600087803b158015610be557600080fd5b505af1158015610bf9573d6000803e3d6000fd5b505050506040513d601f19601f82011682018060405250810190610c1d9190612c5f565b60408088018290526001600160a01b0392831660208901529282168752915133926101a0890135928516917f25c3d30ac04323eeab03b77624058f9dba1b9ad77f4b8cde98c6ed1b54b0a2ae91610c779188918a916132d6565b60405180910390a45050509392505050565b610c9c82826000015183604001516115a3565b610a2282826020015183604001516115a3565b602085015160408087015190516373095ccb60e11b81526000926001600160a01b038581161515937f00000000000000000000000000000000000000000000000000000000000000009091169263e612b99692610d17928b928b916001918c90600401613204565b602060405180830381600087803b158015610d3157600080fd5b505af1158015610d45573d6000803e3d6000fd5b505050506040513d601f19601f82011682018060405250810190610d699190612d11565b9150336001600160a01b03167f7082f656bbe948898eb7290d1bfdc6fc58eb8ea5867dc304dc7cc1831a7fc384878960200151888b60400151600088604051610db79695949392919061323a565b60405180910390a28015610e4457610e448388602001516001600160a01b031663e184c9be6040518163ffffffff1660e01b815260040160206040518083038186803b158015610e0657600080fd5b505afa158015610e1a573d6000803e3d6000fd5b505050506040513d601f19601f82011682018060405250810190610e3e9190612d11565b84611810565b5095945050505050565b60007f00000000000000000000000000000000000000000000000000000000000000006001600160a01b0316638e7cf7668584610e8a8761168c565b610e945786610eb6565b7f00000000000000000000000000000000000000000000000000000000000000005b6040518463ffffffff1660e01b8152600401610ed4939291906131e5565b60206040518083038186803b158015610eec57600080fd5b505afa158015610f00573d6000803e3d6000fd5b505050506040513d601f19601f82011682018060405250810190610f249190612c43565b90505b9392505050565b610a22828260006115a3565b60005b6007811015610a22576000828260078110610f5457fe5b6020020151516001600160a01b03161415610f6e57610a22565b610f7d828260078110610a5f57fe5b1561101d57600033610f9f848460078110610f9457fe5b602002015151611892565b604051610fab90613008565b60006040518083038185875af1925050503d8060008114610fe8576040519150601f19603f3d011682016040523d82523d6000602084013e610fed565b606091505b50509050806110175760405162461bcd60e51b815260040161100e906133a8565b60405180910390fd5b50611052565b61105233611030848460078110610f9457fe5b84846007811061103c57fe5b6020020151516001600160a01b03169190611925565b600101610f3d565b610a228261106b6020840184612c27565b83602001356115a3565b600080808061108a60a0860160808701612c27565b6001600160a01b0316141590506000816110a457336110a6565b305b90506110b0612aa9565b6111416003836040518061012001604052808b600001516001600160a01b031681526020018a60000160208101906110e89190612c27565b6001600160a01b031681526020018b6040015181526020018a6020013581526020018b6040015181526020018a6040013581526020018a60600135815260200160006001600160a01b0316815260200185815250611939565b965094505082156111655761116561115f60a0880160808901612c27565b86611c1b565b865133907fb89b89aa639e6d1925f87d47cb14154370386b5db972794d6c7d7f94db1edfb79061119860208a018a612c27565b8a60400151888a6040516111b09594939291906130ef565b60405180910390a25050509250929050565b60008080806111d760a0860160808701612c27565b6001600160a01b03908116919091141591507f0000000000000000000000000000000000000000000000000000000000000000166374f62c0d6112256112206020880188612c27565b61168c565b611230576000611236565b85602001355b60208089015160608901359161124e908a018a612c27565b6040808c015181516001600160e01b031960e089901b1681526112829594939260208e01359183918f01359060040161326e565b6060604051808303818588803b15801561129b57600080fd5b505af11580156112af573d6000803e3d6000fd5b50505050506040513d601f19601f820116820180604052508101906112d49190612f91565b6020808901519296509094503392507f7082f656bbe948898eb7290d1bfdc6fc58eb8ea5867dc304dc7cc1831a7fc3849160608801359161131790890189612c27565b89604001518960200135886040516113349695949392919061323a565b60405180910390a280156113925761139261135560a0860160808701612c27565b86602001516001600160a01b031663e184c9be6040518163ffffffff1660e01b815260040160206040518083038186803b158015610e0657600080fd5b509250929050565b826001600160a01b031663095ea7b38360006040518363ffffffff1660e01b815260040180836001600160a01b0316815260200182815260200192505050602060405180830381600087803b1580156113f257600080fd5b505af1158015611406573d6000803e3d6000fd5b505050506040513d602081101561141c57600080fd5b50506040805163095ea7b360e01b81526001600160a01b0384811660048301526024820184905291519185169163095ea7b3916044808201926020929091908290030181600087803b15801561147157600080fd5b505af1158015611485573d6000803e3d6000fd5b505050506040513d602081101561149b57600080fd5b5050505050565b60208401516040808601519051630c8140d560e31b81526000926001600160a01b037f0000000000000000000000000000000000000000000000000000000000000000169263640a06a8926115009291889188908b906004016130ef565b602060405180830381600087803b15801561151a57600080fd5b505af115801561152e573d6000803e3d6000fd5b505050506040513d601f19601f820116820180604052508101906115529190612d11565b90507f3afca6d1a5fd82596782f7dc8b2e23bdd69d22398e73a6c7deb8662e28c023fa3386602001518588604001518560405161159395949392919061301f565b60405180910390a1949350505050565b6001600160a01b0382166115b657610696565b60005b600781101561167357826001600160a01b03168482600781106115d857fe5b6020020151516001600160a01b0316141561161357818482600781106115fa57fe5b6020020151602001818151019150818152505050610696565b600084826007811061162157fe5b6020020151516001600160a01b0316141561166b576040518060400160405280846001600160a01b031681526020018381525084826007811061166057fe5b602002015250610696565b6001016115b9565b5060405162461bcd60e51b815260040161100e906133d1565b6001600160a01b03811673eeeeeeeeeeeeeeeeeeeeeeeeeeeeeeeeeeeeeeee145b919050565b6116c76001600160a01b038516848484611c7f565b50505050565b6000808360058111156116dc57fe5b14156116f2576116eb82611cd9565b905061174d565b600183600581111561170057fe5b141561170f576116eb82611e65565b600583600581111561171d57fe5b141561172c576116eb82612001565b611748833061174336869003860160408701612ec8565b612124565b925050505b92915050565b60008083600581111561176257fe5b14806117795750600183600581111561177757fe5b145b8061178f5750600583600581111561178d57fe5b145b1561179d575080515161174d565b60028360058111156117ab57fe5b14806117c2575060038360058111156117c057fe5b145b156117d5576116eb8383602001516121c9565b60048360058111156117e357fe5b14156117f85750602081015160e0015161174d565b60405162461bcd60e51b815260040161100e906133d1565b6040516358e9a81560e01b81526001600160a01b038416906358e9a815906118409033908690869060040161306c565b602060405180830381600087803b15801561185a57600080fd5b505af115801561186e573d6000803e3d6000fd5b505050506040513d601f19601f820116820180604052508101906116c79190612c43565b600061189d8261168c565b156118a95750476116ad565b6040516370a0823160e01b81526001600160a01b038316906370a08231906118d590309060040161300b565b60206040518083038186803b1580156118ed57600080fd5b505afa158015611901573d6000803e3d6000fd5b505050506040513d601f19601f8201168201806040525081019061174d9190612d11565b6106966001600160a01b0384168383612382565b6000808080600287600581111561194c57fe5b14611977577f0000000000000000000000000000000000000000000000000000000000000000611999565b7f00000000000000000000000000000000000000000000000000000000000000005b905060006119aa866020015161168c565b156119bb575060016119bb866123d4565b85516119c69061168c565b15611b4e577f000000000000000000000000000000000000000000000000000000000000000015611a9f57816001600160a01b031663f91b3f728760400151886020015189606001518a60a001518b608001518d8d60c001516040518863ffffffff1660e01b8152600401611a4096959493929190613196565b6060604051808303818588803b158015611a5957600080fd5b505af1158015611a6d573d6000803e3d6000fd5b50505050506040513d601f19601f82011682018060405250810190611a929190612f91565b9096509094509250611b49565b816001600160a01b031663f305d7198760400151886020015189606001518a60a001518b608001518d8d60c001516040518863ffffffff1660e01b8152600401611aee96959493929190613196565b6060604051808303818588803b158015611b0757600080fd5b505af1158015611b1b573d6000803e3d6000fd5b50505050506040513d601f19601f82011682018060405250810190611b409190612f91565b90965090945092505b611bfe565b816001600160a01b031663e8e337008760000151886020015189604001518a606001518b608001518c60a001518e8e60c001516040518963ffffffff1660e01b8152600401611ba4989796959493929190613120565b606060405180830381600087803b158015611bbe57600080fd5b505af1158015611bd2573d6000803e3d6000fd5b505050506040513d601f19601f82011682018060405250810190611bf69190612f91565b919650945092505b8015611c1057929392611c10866123d4565b505093509350939050565b6040516356e4bb9760e11b81526001600160a01b0383169063adc9772e90611c499033908590600401613053565b600060405180830381600087803b158015611c6357600080fd5b505af1158015611c77573d6000803e3d6000fd5b505050505050565b604080516001600160a01b0380861660248301528416604482015260648082018490528251808303909101815260849091019091526020810180516001600160e01b03166323b872dd60e01b1790526116c7908590612411565b60008080611cea6020850185612c27565b91505060208301356000611d066101a086016101808701612c27565b6001600160a01b03166319d515ec846040518263ffffffff1660e01b8152600401611d31919061300b565b602060405180830381600087803b158015611d4b57600080fd5b505af1158015611d5f573d6000803e3d6000fd5b505050506040513d601f19601f82011682018060405250810190611d839190612c43565b60405163e8eda9df60e01b81529091506001600160a01b037f0000000000000000000000000000000000000000000000000000000000000000169063e8eda9df90611dd990869086903090600090600401613169565b600060405180830381600087803b158015611df357600080fd5b505af1158015611e07573d6000803e3d6000fd5b50505050611e1481611892565b9350336001600160a01b03167fdc237c455127799c709a81be1f2628a791d7b1e1e018442fe455c81321b7509a84838588604051611e5594939291906130c6565b60405180910390a2505050919050565b60008080611e766020850185612c27565b91505060208301356000611e926101a086016101808701612c27565b6001600160a01b03166319d515ec846040518263ffffffff1660e01b8152600401611ebd919061300b565b602060405180830381600087803b158015611ed757600080fd5b505af1158015611eeb573d6000803e3d6000fd5b505050506040513d601f19601f82011682018060405250810190611f0f9190612c43565b9050611f1a8361168c565b15611f7857806001600160a01b0316631249c58b836040518263ffffffff1660e01b81526004016000604051808303818588803b158015611f5a57600080fd5b505af1158015611f6e573d6000803e3d6000fd5b5050505050611ff8565b60405163140e25ad60e31b81526001600160a01b0382169063a0712d6890611fa49085906004016131dc565b602060405180830381600087803b158015611fbe57600080fd5b505af1158015611fd2573d6000803e3d6000fd5b505050506040513d601f19601f82011682018060405250810190611ff69190612d11565b505b611e1481611892565b604051632967cf8360e21b81526000906001600160a01b037f0000000000000000000000000000000000000000000000000000000000000000169063a59f3e0c90612054906020860135906004016131dc565b600060405180830381600087803b15801561206e57600080fd5b505af1158015612082573d6000803e3d6000fd5b505050506120af7f0000000000000000000000000000000000000000000000000000000000000000611892565b9050337fdc237c455127799c709a81be1f2628a791d7b1e1e018442fe455c81321b7509a6120e06020850185612c27565b60405161211791907f00000000000000000000000000000000000000000000000000000000000000009060208801359087906130c6565b60405180910390a2919050565b6000808080600487600581111561213757fe5b1415612159575060e084015161214d86866124c2565b91955093509150612178565b61216387866121c9565b9050612170878787611939565b919550935091505b8451602086015160405133927f525c2896d9d8eeec5fbd61b27630ab914e72153cac2d46f4019cfcaf1060aa24926121b79286908a908a908a9061308d565b60405180910390a25093509350939050565b60008060028460058111156121da57fe5b14612205577f0000000000000000000000000000000000000000000000000000000000000000612227565b7f00000000000000000000000000000000000000000000000000000000000000005b90506000808460000151856020015191509150612378836001600160a01b031663c45a01556040518163ffffffff1660e01b815260040160206040518083038186803b15801561227657600080fd5b505afa15801561228a573d6000803e3d6000fd5b505050506040513d601f19601f820116820180604052508101906122ae9190612c43565b6122b78461168c565b6122c157836122e3565b7f00000000000000000000000000000000000000000000000000000000000000005b6122ec8461168c565b6122f65783612318565b7f00000000000000000000000000000000000000000000000000000000000000005b60028a600581111561232657fe5b14612351577f0000000000000000000000000000000000000000000000000000000000000000612373565b7f00000000000000000000000000000000000000000000000000000000000000005b6126cc565b9695505050505050565b604080516001600160a01b038416602482015260448082018490528251808303909101815260649091019091526020810180516001600160e01b031663a9059cbb60e01b179052610696908490612411565b60208101805182516001600160a01b03908116909252168152606081018051604083018051909252905260a0810180516080909201805190915252565b6000612466826040518060400160405280602081526020017f5361666545524332303a206c6f772d6c6576656c2063616c6c206661696c6564815250856001600160a01b031661276a9092919063ffffffff16565b8051909150156106965780806020019051602081101561248557600080fd5b50516106965760405162461bcd60e51b815260040180806020018281038252602a815260200180613519602a913960400191505060405180910390fd5b600080600080600090506124d9856020015161168c565b156124ea575060016124ea856123d4565b84516124f59061168c565b156125d5577f00000000000000000000000000000000000000000000000000000000000000006001600160a01b031663d72c1447866040015187602001518860e0015189606001518a60a001518b608001518c61010001518e8e60c001516040518a63ffffffff1660e01b81526004016125769897969594939291906132ec565b6060604051808303818588803b15801561258f57600080fd5b505af11580156125a3573d6000803e3d6000fd5b50505050506040513d601f19601f820116820180604052508101906125c89190612f91565b90955090935091506126b2565b7f00000000000000000000000000000000000000000000000000000000000000006001600160a01b03166324341934866000015187602001518860e0015189604001518a606001518b608001518c60a001518d61010001518f8f60c001516040518b63ffffffff1660e01b81526004016126589a99989796959493929190613341565b606060405180830381600087803b15801561267257600080fd5b505af1158015612686573d6000803e3d6000fd5b505050506040513d601f19601f820116820180604052508101906126aa9190612f91565b919550935091505b80156126c4579192916126c4856123d4565b509250925092565b60008060006126db8686612779565b604080516bffffffffffffffffffffffff19606094851b811660208084019190915293851b81166034830152825160288184030181526048830184528051908501206001600160f81b031960688401529b90941b9093166069840152607d830199909952609d808301969096528851808303909601865260bd9091019097525050815191909401209392505050565b6060610f248484600085612857565b600080826001600160a01b0316846001600160a01b031614156127cd5760405162461bcd60e51b81526004018080602001828103825260258152602001806134ce6025913960400191505060405180910390fd5b826001600160a01b0316846001600160a01b0316106127ed5782846127f0565b83835b90925090506001600160a01b038216612850576040805162461bcd60e51b815260206004820152601e60248201527f556e697377617056324c6962726172793a205a45524f5f414444524553530000604482015290519081900360640190fd5b9250929050565b6060824710156128985760405162461bcd60e51b81526004018080602001828103825260268152602001806134f36026913960400191505060405180910390fd5b6128a1856129b2565b6128f2576040805162461bcd60e51b815260206004820152601d60248201527f416464726573733a2063616c6c20746f206e6f6e2d636f6e7472616374000000604482015290519081900360640190fd5b600080866001600160a01b031685876040518082805190602001908083835b602083106129305780518252601f199092019160209182019101612911565b6001836020036101000a03801982511681845116808217855250505050505090500191505060006040518083038185875af1925050503d8060008114612992576040519150601f19603f3d011682016040523d82523d6000602084013e612997565b606091505b50915091506129a78282866129b8565b979650505050505050565b3b151590565b606083156129c7575081610f27565b8251156129d75782518084602001fd5b8160405162461bcd60e51b81526004018080602001828103825283818151815260200191508051906020019080838360005b83811015612a21578181015183820152602001612a09565b50505050905090810190601f168015612a4e5780820380516001836020036101000a031916815260200191505b509250505060405180910390fd5b604080516060810182526000808252602082018190529181019190915290565b6040518060e001604052806007905b612a93612ac7565b815260200190600190039081612a8b5790505090565b60405180604001604052806002906020820280368337509192915050565b604080518082019091526000808252602082015290565b80356116ad81613495565b600082601f830112612af9578081fd5b6040516040810181811067ffffffffffffffff82111715612b1657fe5b8060405250808385604086011115612b2c578384fd5b835b6002811015612b4d578135835260209283019290910190600101612b2e565b509195945050505050565b8035600681106116ad57600080fd5b600060a08284031215612b78578081fd5b50919050565b60006101408284031215612b90578081fd5b612b9b610120613471565b9050612ba682612ade565b8152612bb460208301612ade565b602082015260408201356040820152606082013560608201526080820135608082015260a082013560a082015260c082013560c0820152612bf760e08301612ade565b60e0820152610100612c0b84828501612ae9565b9082015292915050565b60006101c08284031215612b78578081fd5b600060208284031215612c38578081fd5b8135610f2781613495565b600060208284031215612c54578081fd5b8151610f2781613495565b600080600060608486031215612c73578182fd5b8351612c7e81613495565b6020850151909350612c8f81613495565b80925050604084015190509250925092565b60008060208385031215612cb3578182fd5b823567ffffffffffffffff80821115612cca578384fd5b818501915085601f830112612cdd578384fd5b813581811115612ceb578485fd5b866020604083028501011115612cff578485fd5b60209290920196919550909350505050565b600060208284031215612d22578081fd5b5051919050565b6000806101e08385031215612d3c578182fd5b612d4583612b58565b9150612d548460208501612c15565b90509250929050565b60008060008060006102408688031215612d75578081fd5b612d7e86612b58565b9450612d8d8760208801612c15565b93506101e08601359250610200860135612da681613495565b94979396509194610220013592915050565b6000806000806000806102608789031215612dd1578384fd5b612dda87612b58565b9550612de98860208901612c15565b94506101e08701359350610200870135612e0281613495565b92506102208701359150610240870135612e1b81613495565b809150509295509295509295565b60008060006102808486031215612e3e578081fd5b612e4784612b58565b9250612e568560208601612c15565b9150612e66856101e08601612b67565b90509250925092565b6000806000806103208587031215612e85578182fd5b612e8e85612b58565b9350612e9d8660208701612c15565b9250612ead866101e08701612b67565b9150612ebd866102808701612b67565b905092959194509250565b60006101408284031215612eda578081fd5b610f278383612b7e565b60008183036101c0811215612ef7578182fd5b604080516080810167ffffffffffffffff8282108183111715612f1657fe5b81845283851215612f25578586fd5b60c0830194508185108186111715612f3957fe5b50928252843592612f4984613495565b838152602086013560a08301528152612f6486838701612b7e565b6020820152612f766101808601612ade565b828201526101a0850135606082015280935050505092915050565b600080600060608486031215612fa5578081fd5b8351925060208401519150604084015190509250925092565b8060005b60028110156116c7578151845260209384019390910190600101612fc2565b80516001600160a01b03908116835260208083015190911690830152604090810151910152565b90565b6001600160a01b0391909116815260200190565b6001600160a01b03958616815293851660208501529190931660408301526060820192909252608081019190915260a00190565b6001600160a01b03929092168252602082015260400190565b6001600160a01b039390931683526020830191909152604082015260600190565b6001600160a01b03968716815294861660208601529290941660408401526060830152608082019290925260a081019190915260c00190565b6001600160a01b0394851681529290931660208301526040820152606081019190915260800190565b6001600160a01b03958616815293909416602084015260408301919091526060820152608081019190915260a00190565b6001600160a01b039889168152968816602088015260408701959095526060860193909352608085019190915260a084015290921660c082015260e08101919091526101000190565b6001600160a01b03948516815260208101939093529216604082015261ffff909116606082015260800190565b6001600160a01b039687168152602081019590955260408501939093526060840191909152909216608082015260a081019190915260c00190565b901515815260200190565b90815260200190565b9283526001600160a01b03918216602084015216604082015260600190565b9586526001600160a01b03948516602087015292909316604085015215156060840152608083019190915260a082015260c00190565b9586526001600160a01b0394851660208701529290931660408501526060840152608083019190915260a082015260c00190565b9687526001600160a01b0395861660208801529390941660408601526060850191909152608084015260a083019190915260c082015260e00190565b9485526001600160a01b0393841660208601526040850192909252606084015216608082015260a00190565b9283526020830191909152604082015260600190565b6001600160a01b038981168252888116602083015260408201889052606082018790526080820186905261012082019061332960a0840187612fbe565b9390931660e082015261010001529695505050505050565b6001600160a01b038b811682528a811660208301528981166040830152606082018990526080820188905260a0820187905260c0820186905261016082019061338d60e0840187612fbe565b93909316610120820152610140015298975050505050505050565b6020808252600f908201526e1514905394d1915497d19052531151608a1b604082015260600190565b6020808252600e908201526d24a72a22a92720a62fa2a92927a960911b604082015260600190565b6060810161174d8284612fe1565b608081016134158285612fe1565b8260608301529392505050565b60a081016134308286612fe1565b606082019390935260800152919050565b60e0810161344f8288612fe1565b8560608301528460808301528360a08301528260c08301529695505050505050565b60405181810167ffffffffffffffff8111828210171561348d57fe5b604052919050565b6001600160a01b03811681146134aa57600080fd5b5056fe5265656e7472616e637947756172643a207265656e7472616e742063616c6c00556e697377617056324c6962726172793a204944454e544943414c5f414444524553534553416464726573733a20696e73756666696369656e742062616c616e636520666f722063616c6c5361666545524332303a204552433230206f7065726174696f6e20646964206e6f742073756363656564a26469706673582212200afb7f5c12c70e207de09d6a5383877069c59d025e97372d0f848860095fa9a664736f6c63430007060033",
    "linkReferences": {},
    "deployedLinkReferences": {}
}